:100000000C9445010C946D010C946D010C946D01E0
:100010000C946D010C946D010C946D010C946D01A8
:100020000C946D010C946D010C9434110C94C2125B
:100030000C946D010C946D010C946D010C946D0188
:100040000C946D010C946D010C946D010C946D0178
:100050000C946D010C946D010C946D010C94F609D7
:100060000C946D010C946D010C946D010C946D0158
:100070000C946D010C946D010C946D010C946D0148
:100080000C946D010C946D010C946D010C946D0138
:100090000C946D010C946D010C946D010C946D0128
:1000A0000C946D010C946D010C946D01310F340FA3
:1000B000230F270F2D0F550F550F550F380F3C0FDE
:1000C000400F460F4A0F550F500F0000000023004D
:1000D000260029002C002F0000000000240027002B
:1000E0002A002D00300000000000250028002B0011
:1000F0002E00310004040404040304050202020279
:1001000004030202020206060606060604040202B0
:100110000204040408020110408040102040804086
:10012000800802040180402010020110801020404D
:1001300040200000000200090F0000030401000C31
:1001400000000000000000000000000000000000AF
:10015000007C3C3E5E2B3D3F2F5B5D3B2C2A225CAE
:100160000005010906A1018502050719E029E71527
:100170000025017501950881029501750881039597
:10018000067508150025730507190029738100C03D
:10019000080B000202020100090400000102020033
:1001A00000052400100105240101010424020605B4
:1001B0002406000107058103100040090401000224
:1001C0000A00000007050202400000070583024004
:1001D00000000403090412010002EF020140412360
:1001E000368000010102030141726475696E6F205F
:1001F0004C4C430041726475696E6F204C656F6EA4
:100200006172646F0000000000000000002A2B28CB
:1002100000000000000000000000000000000000DE
:1002200000000000002C9EB4A0A1A2A434A6A7A5A3
:10023000AE362D3738271E1F20212223242526B332
:1002400033B62EB7B89F8485868788898A8B8C8D34
:100250008E8F909192939495969798999A9B9C9D46
:100260002F3130A3AD350405060708090A0B0C0D24
:100270000E0F101112131415161718191A1B1C1D26
:10028000AFB1B0B500001C1E9D1F11241FBECFEFE3
:10029000DAE0DEBFCDBF26E0A2E9B2E001C01D92E8
:1002A000A834B207E1F712E0A0E0B1E0EAEAF5E431
:1002B00002C005900D92A239B107D9F711E0C4E44C
:1002C000D1E004C02197FE010E946E20C334D10703
:1002D000C9F70E94CE1A0C94C8220C940000DC01CD
:1002E0005996ED91FC915A973097B9F0838994898A
:1002F000A589B6894285538564857585841B950BD0
:10030000A60BB70B811520E89207A105B10538F0BF
:100310008FEF9FE7A0E0B0E0089580E090E00895BF
:10032000CF93DF931F92CDB7DEB76983DC01ED91E8
:10033000FC910280F381E02D41E050E0BE016F5F4F
:100340007F4F09950F90DF91CF910895DC01FB015C
:1003500012968C91129790E0248135818217930731
:10036000D1F491818081813A31F481E0913091F032
:10037000933089F411C0813271F49B3021F4828171
:100380001F968C9305C09A3031F4828150968C93DD
:1003900081E00895089580E00895DC01FB0188E480
:1003A000808389E4818384E482831D969C911D97D8
:1003B0009F709F5B93831D968D919C911E9724E067
:1003C000969587952A95E1F78F708F5B848385E0FA
:1003D0000895FC0182818F5BFB01808381E0089599
:1003E000CF92DF92EF92FF920F931F93CF93DF9301
:1003F0006C01EB017B01E40EF51E00E010E0CE1570
:10040000DF0581F069916D30D1F3D601ED91FC915A
:100410000190F081E02DC6010995892B19F00F5F3D
:100420001F4FEDCFC801DF91CF911F910F91FF902A
:10043000EF90DF90CF900895EF92FF920F931F936C
:10044000CF93DF93FB012081213851F523812232A4
:1004500039F5DC0112962C9130E044815581421728
:100460005307F1F4EC010B851C85E12CF12C0115EF
:10047000110591F0F801448155816281738180E812
:100480000E94A6118F3FFFEF9F0769F0E80EF91E4B
:10049000D8010D911C91EBCF81E08F87C70105C07A
:1004A00080E090E002C08FEF9FEFDF91CF911F912E
:1004B0000F91FF90EF900895CF93DF93CDB7DEB704
:1004C00069970FB6F894DEBF0FBECDBFFC01DB010C
:1004D0008C918F5F8C93BE016F5F7F4F89E1DB0151
:1004E0001D928A95E9F729E0298384E08A8391E0C7
:1004F0009D8383E08E832A8721E22B879C879D87BB
:100500009F8722E2288B27E02B8B25E02C8B8E8B7C
:1005100020E430E0388F2F8B998F82818B839585F3
:100520008685998B8A8B838180688D8B49E150E029
:1005300080E00E94A61169960FB6F894DEBF0FBE48
:10054000CDBFDF91CF910895CF93DF93EC018D81E3
:10055000882379F18C8187FF28C06E857F85888903
:10056000998941E00E943B15882319F1EA8980E2CC
:10057000E89FF0011124EB55FD4F3097D1F08D81AC
:10058000823040F48B899C89AD89BE89848F958F98
:10059000A68FB78F8F89988DA98DBA8D938F828FF3
:1005A000B58BA48B8C818F778C83DF91CF910C944A
:1005B000001580E0DF91CF910895FC01818D928D2F
:1005C000009711F00C94A40208958F929F92AF921D
:1005D000BF92CF92DF92EF92FF920F931F93CF9330
:1005E000DF93EC018D81811102C080E078C00B891E
:1005F0001C892D893E890417150726073707A8F39C
:100600006A017B01823029F4CA86DB86EC86FD868E
:100610000DC0C114D104E104F10451F41E821F8203
:10062000188619861A861B861C861D8681E057C08F
:100630008A849B84AC84BD84EB8DFC8D258530E061
:10064000275F3F4FB501A40141505109610971096C
:10065000022E04C076956795579547950A94D2F770
:10066000D701C6010197A109B10904C0B695A795A4
:10067000979587952A95D2F784179507A607B70708
:1006800020F089288A288B2871F44F89588D698D2C
:100690007A8D4E835F83688779874C015D018E0177
:1006A0000A5F1F4F16C0841B950BA60BB70BF5CF27
:1006B0004E815F816885798598018B8D9C8D0E9424
:1006C000251691E0891A9108A108B108882309F438
:1006D0008CCF81149104A104B10451F795CFDF911F
:1006E000CF911F910F91FF90EF90DF90CF90BF902F
:1006F000AF909F908F900895CF93DF93EC010E946D
:10070000A402882311F01D8281E0DF91CF9108952A
:100710003F924F925F926F927F928F929F92AF9291
:10072000BF92CF92DF92EF92FF920F931F93CF93DE
:10073000DF93CDB7DEB72C970FB6F894DEBF0FBEB0
:10074000CDBF5C01DC015B968D909C905C9716960A
:10075000CD90DD90ED90FC901997C114D104E10487
:10076000F10439F0BFEFCB1ADB0AEB0AFB0A312C9C
:1007700007C0F401C080D180E280F3803324339439
:10078000F40181859285A385B4859C01AD012F5F1D
:100790003F4F4F4F5F4F29873A874B875C87260132
:1007A00037011D821E821F821886F4018185928581
:1007B000A385B4852D813E814F815885281739073F
:1007C0004A075B0708F063C089859A85AB85BC85BD
:1007D0008C159D05AE05BF0550F482E0C82ED12CC6
:1007E000E12CF12C92E0492E512C612C712C9E01B0
:1007F0002F5F3F4FB701A601C4010E942516882331
:1008000009F445C089819A81AB81BC81892B8A2BEF
:100810008B2B41F0260137019FEF491A590A690ACB
:10082000790A05C0C414D504E604F70491F02D81BB
:100830003E814F8158852F5F3F4F4F4F5F4F2D8334
:100840003E834F8358873FEFC31AD30AE30AF30A64
:10085000ACCF0FEF1FEF2FEF3FE0B301A201C401B8
:100860000E948415882399F0D50116964D915D91CB
:100870006D917C911997411551056105710549F0FC
:1008800093018201C4010E948415811102C080E09D
:100890002AC0D50116964D925D926D927C92199761
:1008A000332051F0D301C2010196A11DB11DF40105
:1008B00080839183A283B383F5018789908DA18D75
:1008C000B28D892B8A2B8B2B69F4D50157964D92CB
:1008D0005D926D927C925A9714968C9114978068D1
:1008E00014968C9381E02C960FB6F894DEBF0FBE61
:1008F000CDBFDF91CF911F910F91FF90EF90DF90CF
:10090000CF90BF90AF909F908F907F906F905F90AF
:100910004F903F9008958FB7F894809193028FBFC6
:10092000089561E0FC0184810E94560F809192023B
:1009300081111092920208958EBD00000DB407FE41
:10094000FDCF8EB508958FEF0C949C040F931F93E9
:10095000CF93DF93EB010E94EA098B010E94A3046D
:100960008F3F49F00E94EA09601B710B6C177D07ED
:10097000A8F380E001C081E0DF91CF911F910F913A
:100980000895CF93DF93EC018E81882389F08F81C6
:1009900098859C012F5F3F4F38872F83823092408C
:1009A00018F40E94A304F3CFCE010E9491041E828A
:1009B000DF91CF9108958CBD9DBD0895CF93DF93B6
:1009C000EC0180919202811109C081E08093920232
:1009D0008091A5049091A6040E94DB0460E08C81C4
:1009E000DF91CF910C94560F8F929F92AF92BF924E
:1009F000FF920F931F93CF93DF93EC01F62E4901E3
:100A00005A010E94C104CE010E94DE046CE271E032
:100A1000CE010E94A6048F2D80640E949C0408E1F0
:100A200010E0D501C401002E04C0B695A795979596
:100A300087950A94D2F70E949C0408501109083F38
:100A40008FEF180771F7FF2029F088E0F81204C033
:100A500087E803C085E901C08FEF0E949C0410E085
:100A60000E94A3048A8787FF04C01F3F11F01F5F05
:100A7000F7CFDF91CF911F910F91FF90BF90AF9073
:100A80009F908F900895AF92BF92CF92DF92EF9296
:100A9000FF920F931F93CF93DF93EC016901C8017D
:100AA000820F931F8130924008F070C08E8188239E
:100AB00071F088819981AA81BB8184179507A60767
:100AC000B70729F48F819885C816D906B0F54883F1
:100AD00059836A837B838B85833039F089E0440FA7
:100AE000551F661F771F8A95D1F79A01AB0161E107
:100AF000CE010E94F404882319F083E08D8346C060
:100B00000E94EA095B010E94A3048A878F3F49F48F
:100B10000E94EA096A197B096D327140A0F38FE0E7
:100B200003C08E3F31F08DE08D83CE010E94910491
:100B30002DC018861F8281E08E838F8198858C1549
:100B40009D0540F40E94A3048F81988501969887A3
:100B50008F83F3CF6701E00EF11EEC14FD0431F03A
:100B60000E94A304F60181936F01F7CF8F819885CE
:100B7000080F191F18870F838985882319F001151D
:100B8000124048F0CE010E94C10405C0CE010E946F
:100B9000910480E001C081E0DF91CF911F910F911E
:100BA000FF90EF90DF90CF90BF90AF900895EF92BD
:100BB000FF920F931F93CF93DF93EC0179014115BF
:100BC00051056105710511F482E13CC08B858330CC
:100BD00039F089E0440F551F661F771F8A95D1F7BA
:100BE0009A01AB0168E1CE010E94F404882311F060
:100BF00084E028C08EEF0E949C0487018EEFF81AD3
:100C0000F80181918F010E949C04E016F106C1F762
:100C10008FEF0E949C048FEF0E949C040E94A3040B
:100C20008A878F71853031F081E18D83CE010E94FA
:100C3000910409C068E572E0CE010E94A60481110A
:100C400007C085E18D83CE010E94910480E014C02D
:100C500020E030E0A9016DE0CE010E94F404811192
:100C600009C00E94A304811105C0CE010E94910415
:100C700081E002C084E1E6CFDF91CF911F910F9117
:100C8000FF90EF9008952F923F924F925F926F9254
:100C90007F928F929F92AF92BF92CF92DF92EF920C
:100CA000FF920F931F93CF93DF9300D000D0CDB767
:100CB000DEB78C015B011A01DC0115968C9115974A
:100CC0008130C9F414968C9181FF15C082FF1DC03C
:100CD000F801438954896589768982859385A4853D
:100CE000B58584179507A607B70779F0C8010E9454
:100CF000E50281110AC081E090E0D80113969C932F
:100D00008E93129780E090E036C1610183C05B96BC
:100D10008D919C915C97FC0174802FEF270D2A0127
:100D20003B0139E076946794579447943A95D1F70C
:100D3000722E74207A01F1E0FF22772009F476C048
:100D400080E092E08E199F0946018C159D0508F4FC
:100D50004C01D8015B962D913C915C9716968D9134
:100D60009D910D90BC91A02D0297A109B109F901A7
:100D7000058404C0880F991FAA1FBB1F0A94D2F7CD
:100D80004685578560897189840F951FA61FB71FF7
:100D90009C01AD01270D311D411D511D29013A0155
:100DA000811432E0930609F088C08091000190918F
:100DB0000101A0910201B0910301481659066A068B
:100DC0007B0659F48FEF9FEFDC0180930001909335
:100DD0000101A0930201B09303019501B301A201A7
:100DE0008091A2029091A3020E94D705882309F462
:100DF00082CF9EEFB91AC818D908F8018285938569
:100E0000A485B585880D991DA11DB11D8287938785
:100E1000A487B587D8011A964D915D916D917C910B
:100E20001D97C114D10409F072CF87C0E114F104F9
:100E300009F086CF16964D915D916D917C91199731
:100E4000411551056105710559F457968D919D9194
:100E50000D90BC91A02D0097A105B10541F521C0D1
:100E60009E012F5F3F4F0E942516882309F44BCF28
:100E700089819A81AB81BC81F801238D348DF90180
:100E80002789203129F048EF5FEF6FEF7FE004C042
:100E900048EF5FEF60E070E084179507A607B7079B
:100EA00030F0C8010E94880381114ACF24CFF80195
:100EB00086839783A087B18743CFE114F10429F596
:100EC000D8011A964D915D916D917C911D97539625
:100ED0008D919D910D90BC91A02D481759076A07DF
:100EE0007B0798F00E940015882309F404CF4092F4
:100EF0000001509201016092020170920301809101
:100F0000A40281608093A40208C041E0C301B20141
:100F10000E943B15882309F4EECED501F701EB556D
:100F2000FD4F9F01280D391D2E173F0719F08D9198
:100F30008193FACFA80CB91C5ECFF80183899489FC
:100F4000A589B68984179507A607B70738F4438B98
:100F5000548B658B768B848180688483F8018481CF
:100F600083FD02C0C10107C0C8010E94A4028823FA
:100F700009F4C1CEF7CF0F900F900F900F90DF9133
:100F8000CF911F910F91FF90EF90DF90CF90BF9086
:100F9000AF909F908F907F906F905F904F903F9019
:100FA0002F900895CF93DF93EC01898D9A8D009750
:100FB00039F481E090E09B838A8380E090E00BC06D
:100FC000FC01138212820E944306E98DFA8D228170
:100FD0003381232B71F7DF91CF910895FC01DB0161
:100FE00012968D919C9113979383828387E691E06B
:100FF0009183808314968C911497848315968C9199
:101000001597858316964D915D916D917C911997F9
:1010100046835783608771871A964D915D916D91D4
:101020007C911D9742875387648775871E964D91E3
:101030005D916D917C91519746875787608B718B3D
:1010400052968C915297828B53964D915D916D91F2
:101050007C915697438B548B658B768B57964D912D
:101060005D916D917C915A97478B508F618F728FF4
:101070005B968D919C915C97948F838F08954F928E
:101080005F926F927F92AF92BF92CF92DF92EF9278
:10109000FF920F931F93CF93DF931F92CDB7DEB7CD
:1010A000FC012581222309F4C1C0848180FFBEC0D8
:1010B00083899489A589B68942845384648475841C
:1010C00084159505A605B70509F4B0C06F01520156
:1010D000F1E0BF22D6015B968D919C915C97B301A4
:1010E000A20139E076956795579547953A95D1F7DE
:1010F000223071F4FC01828D938DA48DB58D8A010F
:101100009B01080F191F2A1F3B1FC901B8014AC0C4
:10111000DC0114961C9111501423A114B104F9F4AC
:1011200011111DC045284628472851F4F60187892A
:10113000908DA18DB28D86839783A087B1870FC0D4
:10114000D60116964D915D916D917C9119979601FE
:101150002A5F3F4F0E942516882309F467C0F601D5
:10116000238D348D86819781A085B1850297A10951
:10117000B109AC01BD01F901058404C0440F551F3C
:10118000661F771F0A94D2F786859785A089B18953
:10119000840F951FA61FB71FBC01CD01610F711DE4
:1011A000811D911DD60114962C9126FF0DC04090F3
:1011B00000015090010160900201709003014616F9
:1011C00057066806790699F440E00E943B1588238B
:1011D00069F1F501EB55FD4FDE0111969F012F5F7F
:1011E0003F4F2E173F0799F081918D93FACFFE0163
:1011F00031967F0101E010E09501AB01BC018091C7
:10120000A2029091A3020E944305882379F0F6017F
:1012100082859385A485B5850196A11DB11D828720
:101220009387A487B587898190E002C08FEF9FEFF5
:101230000F90DF91CF911F910F91FF90EF90DF9072
:10124000CF90BF90AF907F906F905F904F90089538
:10125000FC01818D928D009711F00C943F088FEF67
:101260009FEF08950F931F93CF93DF93FC01818D20
:10127000928D0097B9F0EF010E943F088C010F3F5B
:101280008FEF180791F0898D9A8DFC014285538567
:101290006485758541505109610971090E94E50213
:1012A000C80105C080E090E002C08FEF9FEFDF91A2
:1012B000CF911F910F910895CF93DF93EC01888117
:1012C0009981009711F00E940C21198218821D82C9
:1012D0001C821B821A82DF91CF9108950E945B22AB
:1012E0000F931F93CF93DF93EC018881998100972F
:1012F00029F02A813B812617370788F48B016F5F1D
:101300007F4F0E949521009761F0998388831B830A
:101310000A832C813D81232B11F4FC01108281E092
:1013200001C080E0DF91CF911F910F910895EF925E
:10133000FF920F931F93CF93DF936115710511F403
:1013400080E01CC041155105C1F07B01EC018C818E
:101350009D818A01080F191FB801CE010E947009F2
:10136000882371F3288139818C819D81B701820F97
:10137000931F0E948A221D830C8381E0DF91CF910D
:101380001F910F91FF90EF9008953FB7F8948091CF
:101390009C0290919D02A0919E02B0919F0226B561
:1013A000A89B05C02F3F19F00196A11DB11D3FBF9D
:1013B000BA2FA92F982F8827820F911DA11DB11D2B
:1013C000BC01CD0142E0660F771F881F991F4A9527
:1013D000D1F708952FB7F89460919802709199020F
:1013E00080919A0290919B022FBF08951F920F92B5
:1013F0000FB60F9211242F933F938F939F93AF9328
:10140000BF938091980290919902A0919A02B09115
:101410009B023091970223E0230F2D3720F4019691
:10142000A11DB11D05C026E8230F0296A11DB11D07
:10143000209397028093980290939902A0939A0226
:10144000B0939B0280919C0290919D02A0919E027C
:10145000B0919F020196A11DB11D80939C029093B3
:101460009D02A0939E02B0939F02BF91AF919F9166
:101470008F913F912F910F900FBE0F901F90189555
:10148000CF93DF93FC0124813581232B71F0FB0185
:10149000DC01CD91DC9160817181CE010E94AE2290
:1014A000009719F08C1B9D0B02C08FEF9FEFDF910F
:1014B000CF910895FC0124813581232B31F421E063
:1014C00061157105A1F0FB0108C0FC0180819181CB
:1014D0006115710531F421E0FC018081882339F028
:1014E00005C00E94812221E0892B09F020E0822F93
:1014F0000895EF92FF920F931F93CF93DF93EC0128
:101500007B018A01BA010E947009811104C0CE01D9
:101510000E945C0907C01D830C83B70188819981F3
:101520000E948A22CE01DF91CF911F910F91FF90EF
:10153000EF900895CF93DF93EC016115710559F099
:10154000FB0101900020E9F73197AF01461B570BD3
:101550000E94790A02C00E945C09CE01DF91CF91FE
:101560000895FC01808191810C940C21BF92CF924F
:10157000DF92EF92FF920F931F93CF93DF937C0143
:101580006B018A01E9012417350720F4812F8901B5
:10159000C42FD82F67E772E0C7010E941F11D60140
:1015A00014968D919C91159708171907C8F48C17FC
:1015B0009D0708F4EC01D601ED91FC911197EC0F19
:1015C000FD1FB08010826D917C91600F711FC7016B
:1015D0000E949A0AD601ED91FC91EC0FFD1FB0829A
:1015E000C701DF91CF911F910F91FF90EF90DF9096
:1015F000CF90BF9008954F925F926F927F92AF927B
:10160000BF92CF92DF92EF92FF920F931F93CF93EF
:10161000DF9300D000D0CDB7DEB78C0149835A8369
:101620006B837C835901C12CD12C7601412C82E043
:10163000582E612C712C49815A816B817C819E01CD
:101640002F5F3F4FC8010E942516882351F1D30117
:10165000C201F801058404C0880F991FAA1FBB1F8F
:101660000A94D2F7C80ED91EEA1EFB1E49815A8180
:101670006B817C818789803129F088EF9FEFAFEF04
:10168000BFE004C088EF9FEFA0E0B0E04817590723
:101690006A077B0780F2F501C082D182E282F38281
:1016A00081E00F900F900F900F90DF91CF911F91DD
:1016B0000F91FF90EF90DF90CF90BF90AF907F9011
:1016C0006F905F904F900895CF93DF93EC0180E28D
:1016D000689FF0011124EB55FD4F6A8B809100014A
:1016E00090910101A0910201B09103018E879F8723
:1016F000A88BB98B4489558960E070E0BA01552701
:101700004427828D938DA0E0B0E0482B592B6A2BA3
:101710007B2B4F8B588F698F7A8F8385887151F41B
:10172000848D958DA68DB78D8B8B9C8BAD8BBE8B51
:1017300081E00EC0803111F080E015C09E012D5E69
:101740003F4F8B8D9C8D0E94FB0A8823A9F384E078
:101750008D8381E08C831E821F82188619861A86EB
:101760001B861C861D86DF91CF91089581E08093B2
:10177000F4048093F5042AEF34E03093F7042093C7
:10178000F6041092F9041092F80427E331E0309344
:10179000F1042093F0041092FC041092FB041092C8
:1017A000FE041092FD048093FF048093000581ECF9
:1017B0008093FA040E947C12FC0121818091F40440
:1017C00090E0820F911D0897C4F5A281B381109714
:1017D00029F480EF94E0938382830EC018968D9154
:1017E0009C911997009711F0DC01F8CF80EF94E0FD
:1017F00019969C938E93189780818093F20481812F
:101800008093F30490818091F504890F808380E0B8
:101810009091F404891788F4A091F604B091F7042C
:10182000A80FB11D9C91A181B0E0AC5FBE4F9C930D
:1018300091819F5F91838F5FEBCF0895FC0124819D
:101840003581FB014481558124173507A0F0FC0147
:1018500080819181009779F0FB0160817181611530
:10186000710549F0241B350B820F931F0E948122C2
:1018700021E0892B09F020E0822F0895009769F07C
:10188000FC0101900020E9F73197AF01481B590B8B
:10189000BC0189E095E00C94F00180E090E00895AF
:1018A000EF92FF920F931F93CF93DF93EC017B0195
:1018B0008A011B821A8288EE93E0A0E0B0E08C835C
:1018C0009D83AE83BF8385E291E0998388838DE118
:1018D00090E00E9474209A8F898F009779F02DE113
:1018E000F701DC0101900D922A95E1F74CE050E000
:1018F000B801CE010C960E949F22188EDF91CF91E5
:101900001F910F91FF90EF900895AF92BF92CF92E9
:10191000DF92EF92FF920F931F93CF93DF93CDB798
:10192000DEB72B970FB6F894DEBF0FBECDBF6C01AC
:10193000FE013196CE010C967F0120E22193E8173B
:10194000F907E1F7DA0120E037E09D91992331F1C1
:101950009E3231F43A3009F4AAC028E03AE0F5CFDB
:10196000E1E5F1E08491882321F031969813FACFD4
:101970009EC0321708F49BC08FED890F8E3508F09A
:1019800096C081E0820FF701E20FF11D2FE9290FC8
:101990002A3108F490529083282FD7CF8981803242
:1019A00009F485C08B01FB01838D948DF601948F22
:1019B000838FFB011682178210861186128613868A
:1019C00014861586B12CF80182859385A485B5858A
:1019D000438954896589768984179507A607B707CF
:1019E00008F065C025E0B695A795979587952A9547
:1019F000D1F7F82FFF70AF2EF8018581823008F4FF
:101A000056C0C8010E943F0897FD51C0F801828569
:101A10009385A485B5854F96A11DB11D82879387B7
:101A2000A487B587F0E2AF9EB00111246B557D4FBE
:101A300061157105E1F1FB0180818823F1F0853E9C
:101A400099F14BE050E0C7010E946022892B09F018
:101A5000BACF6A2DC6012B960FB6F894DEBF0FBE23
:101A6000CDBFDF91CF911F910F91FF90EF90DF904D
:101A7000CF90BF90AF900C94640BB11018C0F601DA
:101A8000A28A8091000190910101A0910201B09180
:101A9000030186879787A08BB18BFB018081882308
:101AA00031F0BB24B3948FCFB110FBCFE8CF80E0EF
:101AB0002B960FB6F894DEBF0FBECDBFDF91CF914E
:101AC0001F910F91FF90EF90DF90CF90BF90AF905C
:101AD0000895CF93DF93FC012581222311F080E04C
:101AE00049C0EC018091CA048031C1F482E0858351
:101AF000178A108E118E128E8091CB049091CC0497
:101B0000A0E0B0E025E0880F991FAA1FBB1F2A950F
:101B1000D1F7838B948BA58BB68B19C08032F9F6E5
:101B200083E085834091CD045091CE046091CF0431
:101B30007091D004478B508F618F728F9F012D5E03
:101B40003F4F83EB94E00E94FB0A882341F283EB32
:101B500094E09C8F8B8F81E08C831E821F8218867D
:101B600019861A861B861C861D861E861F86188A65
:101B7000198A1A8ADF91CF9108958F929F92AF921E
:101B8000BF92CF92DF92EF92FF92CF93DF93C82F55
:101B900087EA94E09093A3028093A202CC2369F198
:101BA000C53010F080E00CC140E060E070E0CB0197
:101BB0000E943B158823B1F320E1C29FC00111248C
:101BC0008B569D4FFC01E254FE4F20812F7751F739
:101BD0003C96408151816281738144365105610593
:101BE000710500F33497C080D180E280F380C11486
:101BF000D104E104F10421F4D5CFC12CD12C76011C
:101C000040E0C701B6010E943B15882359F280913C
:101C1000B0029091B1028115924021F6A091B502D7
:101C2000AA2309F4BFCF6091B3027091B402611589
:101C3000710509F4B7CF2091B202222309F4B2CF83
:101C4000A093C5042093B70480E030E041E050E069
:101C5000C82FFA01082E02C0EE0FFF1F0A94E2F708
:101C60002E173F0739F08F5FC83091F789E08093D6
:101C7000C00498CF8093C0042091BB023091BC0275
:101C80002115310519F040E050E008C02091C9024B
:101C90003091CA024091CB025091CC022093B804FB
:101CA0003093B9044093BA045093BB0446015701E2
:101CB000860E971EA11CB11C8092C6049092C70488
:101CC000A092C804B092C904E091B602F091B702A4
:101CD000F093CC04E093CB04B0E00E941D20860E6C
:101CE000971EA81EB91E8092CD049092CE04A09299
:101CF000CF04B092D00485E0EE0FFF1F8A95E1F784
:101D0000E150FE4FEF2FFF27E6958E0E9F1EA11C80
:101D1000B11C8092C1049092C204A092C304B092FC
:101D2000C4042091B8023091B9022115310521F087
:101D3000A90160E070E008C04091C5025091C60260
:101D40006091C7027091C802D701C601881999092C
:101D5000AA09BB09840F951FA61FB71F04C0B6951B
:101D6000A79597958795CA95D2F78093BC049093D1
:101D7000BD04A093BE04B093BF04853F2FE092073B
:101D8000A105B10510F48CE018C0853F9F4FA10557
:101D9000B10510F480E111C08091D1029091D2027E
:101DA000A091D302B091D4028093CD049093CE043D
:101DB000A093CF04B093D00480E28093CA0481E062
:101DC000DF91CF91FF90EF90DF90CF90BF90AF90D9
:101DD0009F908F9008952091A102211103C08FEF51
:101DE0009FEF08955FB7F89422E02093E9002091D7
:101DF000F20030E01216130614F421E030E0422F16
:101E0000FC0184E6415038F028988093A00290911C
:101E1000F1009193F7CF2115310521F08091F20067
:101E2000882319F05FBFC90108958BE68093E8000D
:101E3000F9CF90E0FC013197EF30F105B0F5EA5AA7
:101E4000FF4F0C946E20809180008F7703C08091AB
:101E500080008F7D80938000089580918000877F2F
:101E6000F9CF84B58F7702C084B58F7D84BD089586
:101E7000809190008F7707C0809190008F7D03C084
:101E800080919000877F8093900008958091C0009A
:101E90008F7703C08091C0008F7D8093C00008952C
:101EA0008091C200877F8093C20008951F93CF93D3
:101EB000DF93282F30E0F901EE5CFE4F8491F901A9
:101EC000ED5EFE4FD491F901EC50FF4FC491CC234D
:101ED000C1F0162F81110E94190FEC2FF0E0EE0FC8
:101EE000FF1FEA51FF4FA591B4919FB7F8941111CC
:101EF00004C08C91D095D82302C0EC91DE2BDC93EA
:101F00009FBFDF91CF911F910895CF93DF9390E012
:101F1000FC01ED5EFE4F2491FC01EC50FF4F8491DB
:101F2000882361F190E0880F991FFC01E852FF4F70
:101F3000C591D491FC01EA51FF4FA591B491611173
:101F400009C09FB7F8948881209582238883EC91FB
:101F50002E230BC0623061F49FB7F8948881322F32
:101F6000309583238883EC912E2B2C939FBF06C042
:101F70008FB7F894E8812E2B28838FBFDF91CF9104
:101F800008958F929F92AF92BF92CF92DF92EF927D
:101F9000FF926B017C010E94C5094B015C01C114D9
:101FA000D104E104F104F1F00E94C509DC01CB0188
:101FB00088199909AA09BB09883E9340A105B10572
:101FC00070F321E0C21AD108E108F10888EE880E0A
:101FD00083E0981EA11CB11CC114D104E104F104DA
:101FE00019F7DDCFFF90EF90DF90CF90BF90AF90CB
:101FF0009F908F900895089540913F06509140061C
:1020000020913D0630913E0642175307B4F490915B
:10201000E8009570E1F39091E80092FD19C080937B
:10202000F10080913F069091400601968F739927A9
:10203000892B19F48EEF8093E80080913F069091F0
:10204000400601969093400680933F0681E00895F4
:1020500080E008952FB7F89487708093E9009091FD
:10206000E800892F807295FF04C09091F20080E40F
:10207000891B2FBF0895615030F02091F100FC01C1
:1020800020830196F8CF289884E68093A0020895D3
:10209000CF92DF92EF92FF920F931F93CF93DF9334
:1020A0006C017A018B01C0E0D0E0CE15DF0581F034
:1020B000D8016D918D01D601ED91FC910190F081D7
:1020C000E02DC6010995892B11F02196EECF7E01F6
:1020D000C701DF91CF911F910F91FF90EF90DF909B
:1020E000CF900895CF93DF931F92CDB7DEB769836A
:1020F000DC01ED91FC910280F381E02D41E050E0A4
:10210000BE016F5F7F4F09950F90DF91CF910895CA
:1021100083E08093E9008091F200882319F08AE33C
:102120008093E800089583E00E942A1090E00895CB
:10213000FC018485958597FD0BC09FB7F89482E0DC
:102140008093E9008091F2009FBF90E0019608958E
:102150009FB7F89482E08093E9008091F2009FBFDE
:1021600090E008950F931F93CF93DF931F92CDB705
:10217000DEB78C01FC018485958597FF0EC0CE01EA
:1021800001960E94EB0E019719F4898190E002C03C
:102190008FEF9FEFF80195878487F80184859585F7
:1021A0000F90DF91CF911F910F910895CF93DF93FF
:1021B0001F92CDB7DEB7FC018485958597FD05C0DC
:1021C0002FEF3FEF358724870BC0CE0101960E9489
:1021D000EB0E019719F4898190E002C08FEF9FEF19
:1021E0000F90DF91CF910895CF93DF931F92CDB7DA
:1021F000DEB7698341E050E0BE016F5F7F4F0E9410
:1022000043060F90DF91CF910895FB01DC011196F9
:102210001C921E9213961C921E92129715961C9257
:102220001E9214978617970749F060817181611596
:10223000710521F0448155810C94790A0895FC01BF
:102240001182108213821282158214826115710527
:1022500051F0FB0101900020E9F73197AF01461BD7
:10226000570B0C94790A08951F920F920FB60F9294
:1022700011248F939F938091E1009091E100937FCF
:102280009093E10083FF0FC01092E90091E09093DA
:10229000EB001092EC0092E39093ED001092A102FB
:1022A00098E09093F00082FF20C093E09093E900C3
:1022B0009091F200992319F09AE39093E80090919D
:1022C0004206992339F0909142069150909342062C
:1022D000992389F19091A002992339F09091A0025D
:1022E00091509093A002992341F184FF10C08091F6
:1022F000E2008E7E81608093E2008091E1008F7E1B
:102300008093E100809194028E7E806111C080FFF5
:1023100016C08091E2008E7E80618093E200809101
:10232000E1008E7E8093E100809194028E7E816038
:102330008093940204C05D9ACDCF289AD6CF9F9106
:102340008F910F900FBE0F901F901895DF92EF9214
:10235000FF920F931F93CF93DF93D82E8A017B01B7
:10236000E40EF51EEB01CE15DF0571F0D7FE03C0BC
:10237000FE01849101C088810E94FC0F2196811189
:10238000F2CF8FEF9FEF01C0C801DF91CF911F9176
:102390000F91FF90EF90DF9008957F928F929F9220
:1023A000AF92BF92CF92DF92EF92FF920F931F9363
:1023B000CF93DF93C82E8B017A018091A102811106
:1023C00003C08FEF9FEF74C08091940280FF05C01F
:1023D0008091E00082608093E000CE2DDF2DD12C33
:1023E0008AEFB82E8C2D8770982E8C2D8072882EB7
:1023F0008C2D8074782E9AE3A92E209719F4DD2075
:1024000009F451C08C2D0E942A1081110AC0BA947F
:10241000BB20B9F261E070E080E090E00E94C10F63
:10242000ECCF282F30E0C217D3070CF48C2F9FB7C6
:10243000F8949092E9002091E80025FF32C0282FFF
:1024400030E0C21BD30B882029F08150A0F01092FD
:10245000F100FBCFF801C7FE0AC0815050F0449153
:102460004093F1003196F9CF41914093F1008150B2
:10247000D8F7020F131FDD2019F0A092E8000AC060
:102480008091E80085FD08C0A092E800DD24D39487
:10249000209739F0D12C05C0209719F47110A09223
:1024A000E8009FBFAACF5D9884E680934206C701EB
:1024B000DF91CF911F910F91FF90EF90DF90CF9020
:1024C000BF90AF909F908F907F900895CF93DF93B0
:1024D000EC0180911601882331F083E00E94CD1138
:1024E0001816190634F081E090E09B838A8380E01F
:1024F00090E0DF91CF9108958091350681110DC054
:1025000082E08093310684E0809332061092340694
:102510001092330681E08093350681E396E00895BA
:102520000F931F93CF93DF931F92CDB7DEB782E057
:10253000898342E450E060E971E080E80E94A611DE
:102540000E947C12DC0112960D911C9113970115CB
:10255000110589F0D801ED91FC910280F381E02D05
:10256000BE016F5F7F4FC801099597FD04C0F80158
:1025700000851185ECCF89810F90DF91CF911F915C
:102580000F9108951F920F920FB60F921124CF92C0
:10259000DF92EF92FF920F931F932F933F934F93EE
:1025A0005F936F937F938F939F93AF93BF93EF93BB
:1025B000FF93CF93DF93CDB7DEB76C97DEBFCDBF70
:1025C0001092E9008091E80083FFFBC168E0CE0132
:1025D00045960E943B1082EF8093E8008D8987FF2B
:1025E00005C09091E80090FFFCCF03C09EEF909350
:1025F000E800982F907609F0C6C09E894F89588DC3
:102600002F89F88C91110CC0803829F480919502A3
:102610008093F10002C01092F1001092F10045C1C8
:10262000913051F4811141C14130510509F03DC152
:10263000809195028D7F0BC0933061F4811135C17B
:102640004130510509F031C180919502826080933B
:1026500095022BC1953049F48091E80080FFFCCFB2
:10266000822F80688093E30020C1963009F05EC01D
:102670000B8D1C8D22E01092E90010924006109202
:102680003F06F21232C010923E0610923D060E94A2
:10269000901299E0BE016F5F7F4FDB01E92F1D9221
:1026A000EA95E9F79983FA8291E09E8390EA988708
:1026B0009AEF998720913F0630914006275F3F4F60
:1026C0003C832B838D831092E90010924006109278
:1026D0003F0610933E0600933D0649E050E080E03F
:1026E0000E94A6110E949012E0C010933E06009333
:1026F0003D060E947C12DC0112960D911C911397ED
:102700000115110509F4BBC0D801ED91FC910480BD
:10271000F581E02DBE016B5E7F4FC80109950097E2
:1027200009F0C7C0F80100851185EACF973009F498
:1027300045C1983021F481E08093F100B6C0993012
:1027400009F0B3C0837009F039C1E5E0F1E081E040
:1027500031E096E32081211109C08EE78093EA00E1
:102760001092EA008F898093A1029FC08093E900B4
:102770003093EB0021912093EC009093ED008F5F5C
:10278000873041F7EACF8B8D9C8D1092E900109233
:10279000400610923F0690933E0680933D06898D39
:1027A000811153C08E899D89913A49F4813209F093
:1027B00005C147E050E06FE071E080E0BBC09132BE
:1027C00009F0FCC0833269F48F89988DA0E0B0E0F5
:1027D00080930B0190930C01A0930D01B0930E0117
:1027E00064C0803269F48091E80082FFFCCF67E02A
:1027F0008FE091E00E943B108BEF8093E80055C082
:10280000823209F052C08F8980931601EEEFFFE704
:10281000859194918B3F9C4D19F0E0E0F8E002C067
:10282000EEEFFAE080910F0190911001A09111015B
:10283000B0911201803B9440A105B10509F09EC002
:102840008091160180FF79C099C00E947C12FC0122
:10285000028113810115110509F4B0C0D801ED9171
:10286000FC910190F081E02DBE016B5E7F4FC801AD
:10287000099581111AC0F80100851185EBCFF1E0AF
:10288000FF1609F44EC0F3E0FF1298C08F89882329
:1028900009F44AC0823089F440E860E184EF91E0B5
:1028A0000E94681F882309F489C08EEF8093E80096
:1028B00088C018161906CCF381C0813029F440E88D
:1028C0006BE088EE91E0ECCF833009F077C00E9496
:1028D0007C12DC011296ED90FC9013978E010F5F35
:1028E0001F4F6801E114F10479F0D701ED91FC91DB
:1028F0000680F781E02DB801C7010995080F111D69
:10290000F701E084F184EECFD8011C92F60101902A
:102910000020E9F73197BF016C197D0940E0C6013D
:10292000BFCF66ED71E002C062ED71E0FB01449142
:1029300050E080E80E94A611B8CFEE3F2AE0F207EF
:1029400051F0808191818737A7E79A0721F0909312
:10295000FF0A8093FE0A87E797E79183808380913F
:102960006000809341069BE088E10FB6F894A8953B
:10297000809360000FBE9093600097CF808191811B
:102980008737974709F091CFA895809160008861BB
:10299000809360008091410680936000EE3FBAE032
:1029A000FB0739F08091FE0A9091FF0A91838083A2
:1029B0007CCF1092FF0A1092FE0A77CF81E28093BB
:1029C000EB006C960FB6F894DEBF0FBECDBFDF9163
:1029D000CF91FF91EF91BF91AF919F918F917F9197
:1029E0006F915F914F913F912F911F910F91FF90A8
:1029F000EF90DF90CF900F900FBE0F901F90189523
:102A00008091A4028823A9F1409100015091010115
:102A1000609102017091030125EA32E08091A202E7
:102A20009091A3020E94D705811102C080E0089511
:102A300040912D0650912E0660912F067091300620
:102A4000411551056105710591F025EA32E080914B
:102A5000A2029091A3020E94D705882339F3109215
:102A60002D0610922E0610922F061092300610920C
:102A7000A40281E008958F929F92AF92BF92EF924D
:102A8000FF920F931F93CF934B015C01C42F809152
:102A9000000190910101A0910201B09103018815FC
:102AA0009905AA05BB0501F10E940015811102C01C
:102AB00080E020C085EAE82E82E0F82E00E012E0F7
:102AC00020E030E0B501A4018091A2029091A30220
:102AD0000E944305882361F38092000190920101D6
:102AE000A0920201B09203018091A402C82BC0936E
:102AF000A40281E0CF911F910F91FF90EF90BF90C2
:102B0000AF909F908F9008954F925F926F927F92B7
:102B10008F929F92AF92BF92CF92DF92EF92FF92ED
:102B20000F931F93CF93DF93EC0142305105610562
:102B3000710510F480E078C089859A85AB85BC85E5
:102B40000196A11DB11D84179507A607B70790F33D
:102B5000CB88DC88ED88FE888F89803129F4BB27FB
:102B6000A72F962F852F09C0DB01CA01E7E0B69594
:102B7000A79597958795EA95D1F7480159012A01BC
:102B80003B01C80ED91EEA1EFB1E809100019091E8
:102B90000101A0910201B0910301C816D906EA060D
:102BA000FB0681F48F898031A9F4B301A201552776
:102BB00066277727440F551FFA01EB55FD4F918289
:102BC000808219C040E0C701B6010E943B15811107
:102BD000E9CFB0CFB301A2014F77552766277727FA
:102BE000440F551F440F551FFA01EB55FD4F8082CE
:102BF0009182A282B3828091A40281608093A40218
:102C00008A89823080F08D819E81AF81B885C80E1F
:102C1000D91EEA1EFB1EC0922D06D0922E06E0920F
:102C20002F06F092300681E0DF91CF911F910F9136
:102C3000FF90EF90DF90CF90BF90AF909F908F90DC
:102C40007F906F905F904F9008958F929F92AF9278
:102C5000BF92CF92DF92EF92FF920F931F93CF9389
:102C6000DF93FC0181859285A385B4850196A11D22
:102C7000B11D84179507A607B70710F480E05BC065
:102C800083889488A588B6888789803129F4BB27F2
:102C9000A72F962F852F09C0DB01CA01C7E0B69583
:102CA000A79597958795CA95D1F7E9016A017B01A8
:102CB0008F01BC01CD01680D791D8A1D9B1D80907F
:102CC000000190900101A0900201B09003016815ED
:102CD00079058A059B0591F4F80187898031A1F473
:102CE000DD24EE24FF24C601880F991FFC01EB555B
:102CF000FD4F80819181A0E0B0E018C040E00E94CB
:102D00003B158111E9CFBACFE894C7F8DD24EE2452
:102D1000FF24C601880F991F880F991FFC01EB55EE
:102D2000FD4F80819181A281B381BF708883998397
:102D3000AA83BB8381E0DF91CF911F910F91FF9018
:102D4000EF90DF90CF90BF90AF909F908F900895BD
:102D500080E090E008950F931F93CF93DF931F922D
:102D6000CDB7DEB78B0180910105811105C00E94AE
:102D7000B60B81E08093010582E0898341E050E059
:102D8000BE016F5F7F4F8091F3040E94CD1197FDCC
:102D900008C08091F30448E050E0B80180640E94CC
:102DA000CD110F90DF91CF911F910F910895DC010C
:102DB000683810F068582DC0E62FF0E067FF11C0AA
:102DC000E058F10981E090E001C0880FEA95EAF748
:102DD00014969C911497892B14968C93149760E009
:102DE00018C0EB5FFD4F6491611109C081E090E074
:102DF00013969C938E93129780E090E0089567FF5E
:102E000008C014968C911497826014968C93149732
:102E10006F7716968C911697681751F117968C91CB
:102E20001797681729F118968C911897681701F170
:102E300019968C9119976817D9F01A968C911A9750
:102E40006817B1F01B968C911B97681789F0FD01EC
:102E5000369680E090E02191211105C0FD01E80F38
:102E6000F91F668305C0019686309105A1F7BECF94
:102E7000CD01BD016C5F7F4F0E94AB1681E090E0F9
:102E80000895EF92FF920F931F93CF938C01C62F5B
:102E90000E94D7167C01C83818F068E76C0F1FC075
:102EA000EC2FF0E0C7FF0FC0E058F10981E090E09F
:102EB00001C0880FEA95EAF78095F801948189238B
:102EC000848360E00CC0EB5FFD4F64916623C9F022
:102ED00067FF05C0F80184818D7F84836F77F801D7
:102EE00086E0662321F09681691301C01682815025
:102EF00031968111F6CFB8016C5F7F4FC8010E94F7
:102F0000AB16C7019927CF911F910F91FF90EF90BA
:102F10000895CF93DF93EC01FB01248135810E945A
:102F2000B60ACE01DF91CF910895CF92DF92EF9252
:102F3000FF920F931F93CF93DF9300D000D000D068
:102F4000CDB7DEB78C01DC0114968D919C9115975D
:102F5000019771F4ED91FC91309721F410924306A2
:102F6000E3E4F6E0608189E095E00E94D716E2C0D4
:102F70006AE372E0CE0101960E941F114D815E81CD
:102F8000F801848195818417950778F0808191817B
:102F9000009759F069817A816115710531F00E94BD
:102FA0009122FF24F394892B09F0F12CCE01019694
:102FB0000E94B10AFF2009F478C060E889E095E03A
:102FC0000E94D71661E889E095E00E94D7166EE36B
:102FD00072E0CE0101960E941F11BE016F5F7F4F0C
:102FE000C8010E941E0CF82ECE0101960E94B10A63
:102FF000FF2019F082E492E041C068E472E0CE0163
:1030000001960E941F11BE016F5F7F4FC8010E9491
:103010001E0CF82ECE0101960E94B10AFF2019F075
:103020008BE492E02BC061E572E0CE0101960E9434
:103030001F11BE016F5F7F4FC8010E941E0CF82E4A
:10304000CE0101960E94B10AFF2019F084E592E0BA
:1030500015C06AE572E0CE0101960E941F11BE0103
:103060006F5F7F4FC8010E941E0C182FCE01019682
:103070000E94B10A112321F08DE592E00E943E0CDE
:1030800010920F0510921005109211051092120562
:10309000109213051092140510920D056DE075E065
:1030A00089E095E00E94AB1645C085E1E82E85E0F9
:1030B000F82E97E8C92E91E0D92ED80114962D91BB
:1030C0003C911597F701848195812817390739F5C7
:1030D0008D919C9160817181009719F06115710546
:1030E000A1F46115710549F0232B99F0DB018C9156
:1030F00090E09195819591090AC0009751F0232B9A
:1031000041F0FC01808190E002C00E948122892B65
:1031100031F4D6016C9189E095E00E94D716B6E0B3
:10312000EB0EF11CEFEFCE1ADE0AFFECEF16F5E026
:10313000FF0619F626960FB6F894DEBF0FBECDBF78
:10314000DF91CF911F910F91FF90EF90DF90CF9083
:103150000895CF92DF92EF92FF920F931F93CF9338
:10316000DF93CDB7DEB72C970FB6F894DEBF0FBE56
:10317000CDBF7C0163E672E0CE0101960E941F1173
:10318000BE016F5F7F4FC7010E94400A8C01CE01D4
:1031900001960E94B10A0F3F8FEF180751F4B70153
:1031A000CE0101960E940511CE0101960E9495174D
:1031B000C7C1980140E050E0B701CE0101960E94DE
:1031C000B60A65E672E0CE0101960E945A0AD82E30
:1031D000CE0101960E94B10ADD2069F0A8014F5F7F
:1031E0005F4FB701CE0101960E9489174D815E8124
:1031F00069817A8129C0980140E050E0B701CE0191
:1032000001960E94B60A6CE672E0CE0101960E9419
:103210005A0AD82ECE0101960E94B10ADD20C9F0CB
:10322000A8014F5F5F4FB701CE0101960E94891739
:103230004D815E8169817A8189E095E00E94F0018B
:1032400042E050E065E772E089E095E00E94F0011D
:1032500077C1980140E050E0B701CE0101960E948D
:10326000B60A68E772E0CE0101960E945A0AD82E8B
:10327000CE0101960E94B10ADD20B9F0A8014F5F8E
:103280005F4FB701CE0101960E94891789819A810B
:10329000009719F00E94AC1F03C060E070E0CB0102
:1032A00070931801609317014BC1980140E050E002
:1032B000B701CE0101960E94B60A60E872E0CE0125
:1032C00001960E945A0AD82ECE0101960E94B10A98
:1032D000DD20E9F10F5F1F4FA801B701CE0107966E
:1032E0000E94891767E772E0CE0107960E945A0A8A
:1032F000882341F0609117017091180180E090E0FF
:1033000010E01AC0A801B701CE0101960E948917EA
:1033100089819A81009739F00E94AC1F562F472F60
:10332000382F292F04C050E040E030E020E0652F26
:10333000742F832F922F11E00E94C10F112321F0CF
:10334000CE0101960E94B10ACE010796FBC09801FA
:1033500040E050E0B701CE0101960E94B60A66E84F
:1033600072E0CE0101960E945A0AD82ECE01019633
:103370000E94B10ADD2009F44CC063E672E0CE0180
:1033800007960E941F110F5F1F4FA801B701CE01C2
:1033900001960E948917BE01695F7F4FCE01019699
:1033A0000E94400A6C01CE0101960E94B10ACE0132
:1033B00007960E94B10A9601A801B701CE010196B5
:1033C0000E94B60A89819A81009719F00E94AC1F69
:1033D00003C060E070E0CB018B01CE0101960E943A
:1033E000B10A8FEFC81AD80A101611060CF0ACC03B
:1033F000A601B701CE0101960E948917CE01019660
:103400000E94A918CE0101960E94B10A015011092B
:10341000EBCF980140E050E0B701CE0101960E9449
:10342000B60A6DE872E0CE0101960E945A0A182F82
:10343000CE0101960E94B10A111186C0B701CE01DA
:1034400001960E9405118D819E81892B09F478C017
:1034500063E672E0CE0107960E941F11BE01695F0C
:103460007F4FCE0101960E94400A8C01CE01079643
:103470000E94B10A0F3F8FEF1807B1F4BE016F5FD2
:103480007F4FCE0107960E940511CE0107960E943C
:103490009517CE0107960E94B10A67E772E0CE0148
:1034A00001960E949A0A45C0980140E050E0BE0192
:1034B0006F5F7F4FCE0107960E94B60ACE01079636
:1034C0000E949517CE0107960E94B10AA8014F5F8E
:1034D0005F4FBE016F5F7F4FCE0107960E94891735
:1034E00089819A81009779F06F81788561157105DE
:1034F00041F04B815C812B853C854217530708F0D6
:1035000046C00E940C218F8198859A838983898582
:103510009A859C838B838B859C859E838D8318865F
:103520001F821A8619861C861B86CE0107960E946A
:10353000B10A64EF71E080E090E00E94C10F83CF98
:10354000CE0101960E94B10A10920F05109210054B
:103550001092110510921205109213051092140585
:1035600010920D056DE075E089E095E00E94AB16C4
:103570002C960FB6F894DEBF0FBECDBFDF91CF9172
:103580001F910F91FF90EF90DF90CF9008950E94D0
:103590008A228B859C859E838D83C5CFCF93DF93B5
:1035A000CDB7DEB7CE57D1090FB6F894DEBF0FBE48
:1035B000CDBF789484B5826084BD84B5816084BDBC
:1035C00085B5826085BD85B5816085BD80916E00C1
:1035D000816080936E0010928100809181008260F2
:1035E000809381008091810081608093810080912F
:1035F0008000816080938000809191008260809340
:103600009100809191008160809391008091900061
:103610008160809390008091C10084608093C1009C
:103620008091C10082608093C1008091C10081605F
:103630008093C1008091C30081608093C30080911A
:10364000C00082608093C0008091C200816080933E
:10365000C20080917A00846080937A0080917A0021
:10366000826080937A0080917A00816080937A00F2
:1036700080917A00806880937A001092A102109263
:103680009502109294028091D70081608093D700B8
:1036900080EA8093D80089B5806189BD89B5826050
:1036A00089BD09B400FEFDCF61E070E080E090E0EC
:1036B0000E94C10F8091D8008F7C80618093D800D8
:1036C0008091E000807F8093E0008091E1008E7E19
:1036D0008093E1008DE08093E200559A209A67E79D
:1036E00072E0CE0187589F4F0E941F118E010F5F1D
:1036F0001F4FEF968EAD9FADEF978830910508F084
:1037000042C062E08E5F0E94850FEE962FADEE976D
:103710002E5F30E0F901EE5CFE4F8491F901ED5E21
:10372000FE4FF490F901EC50FF4FE490EE20A1F031
:1037300081110E94190FEE2DF0E0EE0FFF1FE653EE
:10374000FF4FA591B491EC91FE2231E020E009F405
:1037500030E0832F922F02C080E090E04AE0B80171
:1037600021E082270E94D31FF80101900020E9F791
:103770003197AF01401B510BB801CE0187589F4FC5
:103780000E949709B6CF68E873E180E090E00E945C
:10379000C10F8091D604882321F081ED94E00E942E
:1037A0007C031092B2041092B0041092AD041092F7
:1037B000AC048AE08093AB040E94EA098B0161E0CB
:1037C0008091AB040E94850F61E08091AB040E9460
:1037D000560FFFB6F89480919602811127C0E5E05C
:1037E000F1E08491E4E2F1E09491E82FF0E0EE0F53
:1037F000FF1FE852FF4FA591B491EC91E92321F40A
:1038000061E081E10E94560F61E081E10E94850F35
:103810008CB580618CBD8CB580648CBD61E08FE01F
:103820000E94850F61E080E10E94850F80919602E1
:103830008F5F80939602FFBE82E58093A50410926D
:10384000A6048091A5049091A6040E94DB042AE0BE
:10385000F22E8FEF0E949C04FA94F110FACF87EABF
:1038600094E00E94DE0420E030E0A90160E087EAF5
:1038700094E00E94F404F82E8093B10481E0F816DD
:1038800049F00E94EA09601B710B613D774058F3D3
:1038900081E056C02AEA31E040E050E068E087EA83
:1038A00094E00E94F40482FF03C0F092B20410C0BE
:1038B00094E0F92E0E94A3048093B104FA94F110CD
:1038C000F9CF8A3A11F082E03BC082E08093B204E3
:1038D0008091B204823021F0C12CD12C760105C038
:1038E000C12CD12CE12C80E4F82E20E030E0A9019D
:1038F00067E387EA94E00E94F404A701960169E275
:1039000087EA94E00E94F4048093B104882349F08C
:103910000E94EA09601B710B613D774030F388E03B
:103920000FC08091B204823001F520E030E0A9019F
:103930006AE387EA94E00E94F404882341F086E079
:103940008093AC0487EA94E00E94910462C10E94D3
:10395000A304807C803C19F483E08093B2040E942D
:10396000A3040E94A3040E94A30487EA94E00E9497
:10397000910480E58093A5041092A60481E00E9442
:10398000BD0D882341F081ED94E00E94690D8823EC
:1039900009F43FC107C080E00E94BD0D882309F4EF
:1039A00038C1F1CFBE0167587F4FCE018D589F4F70
:1039B0000E94051144E050E066EA71E0CE018D58A6
:1039C0009F4F0E949709882309F430C1E5968EAC79
:1039D0009FACE59719A218A287E691E09F8F8E8F82
:1039E0001BA21C821B829A8389831E828E01025E27
:1039F0001F4FC8010E94690D5401CE0101967C0140
:103A000018012C016FE270E0C5010E947622009738
:103A100009F441C0F50120812F3221F4FFEFAF1AE4
:103A2000BF0AF0CF8A198D3008F08CE0C82ED12C57
:103A3000A601B501CE01885A9F4F0E949F22E8E55A
:103A4000F0E0EC0FFD1FEC0DFD1D1082C7010E9480
:103A50007C03F7018581882351F01EAE1DAE87E6F9
:103A600091E09CAF8BAF21961FAE21971CC0AE0199
:103A7000485A5F4FB101C7010E94850C882369F342
:103A8000AC0CBD1CC1010E947C03922D832D17013B
:103A9000E92EF82EB7CF350168187908B101CE01AB
:103AA000CB960E94EE07860C971CF4018081811151
:103AB00009C0BE01655C7F4FC2010E94EE074BEA60
:103AC00051E03AC019A218A287E691E09F8F8E8F2D
:103AD0001BA221968FAD219781111CC06C961FAE41
:103AE0001EAE6C9788EE93E0A0E0B0E0A0968CAF9D
:103AF0009DAFAEAFBFAFA09785E291E06A969FAF52
:103B00008EAF6A97E3961FAE1EAEE397A5961FAEE3
:103B1000A59718C0A401BE01655C7F4FC8010E9433
:103B2000850C8823D9F2CE01CB960E947C03B80184
:103B3000C2010E94EE07A401B201CE01885A9F4F34
:103B40000E94500CCE018D589F4F0E94B10AE396FF
:103B5000EEADFFADE397309709F45BC08581882314
:103B600009F457C064EF71E080E090E00E94C10F5B
:103B700067E772E0C8010E941F11CE01885A9F4F6B
:103B80000E946F01892B11F1CE01885A9F4F0E942C
:103B900028098A3081F4B801C2010E940511C201CE
:103BA0000E94A918C2010E94B10A67E772E0C80129
:103BB0000E949A0AE2CF8D3001F389831A8241E094
:103BC00050E0B201C8010E949709D7CFB801C201E5
:103BD0000E940511C2010E94A918C2010E94B10AE7
:103BE000E3968EAD9FADE397009761F00E947C0352
:103BF000E3968EAD9FADE3970E940C21E3961FAE36
:103C00001EAEE39781ED94E00E947C03C8010E9400
:103C1000B10ACE0187589F4F0E94B10A00E010E020
:103C200001151105E9F30E940000FACFCE018D586D
:103C30009F4F0E945C09CACE1092D2051092D10506
:103C400088EE93E0A0E0B0E08093D3059093D40594
:103C5000A093D505B093D60585E591E09093D00566
:103C60008093CF058FEF9FEF9093DC058093DB056A
:103C700080E58093A5041092A6041092AC041092E3
:103C8000AD041092B0041092B20482E090E0A0E083
:103C9000B0E08093B3049093B404A093B504B093C0
:103CA000B6041092CA041092D4041092D30487E68A
:103CB00091E09093D2048093D1041092D604109294
:103CC0000C0510920B0583E791E090930A05809311
:103CD000090580912506811113C0109220061092CB
:103CE0001F0681E691E090932206809321068FE2E1
:103CF00090E0909324068093230681E0809325062C
:103D000080910105811105C00E94B60B81E080936E
:103D10000105E091FB04F091FC04309739F48FE148
:103D200096E09093FC048093FB040AC0808191810B
:103D3000009711F0FC01FACF8FE196E09183808328
:103D40002091FD043091FE04809123069091240679
:103D5000820F931F9093FE048093FD046DEA71E03F
:103D600085E195E00E941F1163EB71E08BE195E026
:103D70000E941F1168EB71E081E295E00E941F1123
:103D80006EEB71E087E295E00E941F1162EC71E03A
:103D90008DE295E00E941F1165ED71E083E395E0EF
:103DA0000E941F116CED71E089E395E00E941F11E4
:103DB00066EC71E08FE395E00E941F116BEC71E0FF
:103DC00085E495E00E941F1161ED71E08BE495E0C0
:103DD0000E941F1168ED71E081E595E00E941F11BE
:103DE00061EE71E087E595E00E941F116AEE71E0D7
:103DF0008DE595E00E941F1161EF71E083E695E08B
:103E00000E941F1166EF71E089E695E00E941F1184
:103E10006AEF71E08FE695E00E941F1161E072E0A9
:103E200085E795E00E941F1165E072E08BE795E061
:103E30000E941F1169E072E081E895E00E941F1165
:103E400063E172E087E895E00E941F1166E172E08D
:103E50008DE895E00E941F1169E172E083E995E029
:103E60000E941F116CE172E089E995E00E941F1128
:103E70006FE172E08FE995E00E941F1162E272E04B
:103E800085EA95E00E941F1165E272E08BEA95E0F9
:103E90000E941F1168E272E081EB95E00E941F1101
:103EA0006BE272E087EB95E00E941F116EE272E018
:103EB0008DEB95E00E941F1162E372E083EC95E0C8
:103EC0000E941F1166E372E089EC95E00C941F11CB
:103ED000DF92EF92FF920F931F93CF93DF93D82E31
:103EE000F92EE42E062F10E0C8010196880F0E94DB
:103EF000FC0F83E00E94FC0FCD2DDF2D0C0F1D1F4A
:103F0000C017D10789F0E7FE03C0FE01849101C00C
:103F100088810E94FC0FF82E80E00E94FC0F8F2108
:103F200021968111EDCF01C081E0DF91CF911F91EA
:103F30000F91FF90EF90DF900895CF93DF93CFEC38
:103F4000D5E02697CE010E94B10A85E0C531D80799
:103F5000C1F7DF91CF9108951F93FC01992788271E
:103F6000BC01E89411911032E9F3193010F01E30C1
:103F7000C8F31B3251F01D3249F4689406C00E9408
:103F8000DE1F610F711D811D911D119110531A309B
:103F9000B0F33EF490958095709561957F4F8F4F6B
:103FA0009F4F1F910895BB274A3031F4992322F483
:103FB000BDE2909581959F4F0C94F41F592F482F87
:103FC000372F262F660F771F881F991F660F771FC1
:103FD000881F991F620F731F841F951F660F771F1D
:103FE000881F991F0895BB27FB015527AA27880F13
:103FF000991FAA1FA41710F0A41B83955051B9F75D
:10400000A05DAA3308F0A95DA193009779F7B111DB
:10401000B1931192CB010C940D20DC01FC01672FB0
:1040200071917723E1F7329704C07C916D9370838F
:104030006291AE17BF07C8F308950E945F20A59F45
:10404000900DB49F900DA49F800D911D1124089593
:104050002F923F924F925F926F927F928F929F9298
:10406000AF92BF92CF92DF92EF92FF920F931F9386
:10407000CF93DF93CDB7DEB7CA1BDB0B0FB6F89437
:10408000DEBF0FBECDBF09942A88398848885F8477
:104090006E847D848C849B84AA84B984C884DF80E8
:1040A000EE80FD800C811B81AA81B981CE0FD11DCC
:1040B0000FB6F894DEBF0FBECDBFED010895A29FED
:1040C000B001B39FC001A39F700D811D1124911DEC
:1040D000B29F700D811D1124911D0895EE0FFF1FD9
:1040E0000590F491E02D09940F931F93CF93DF93E4
:1040F0008230910510F482E090E0E0914606F09164
:10410000470620E030E0A0E0B0E0309719F14081B0
:1041100051810281138148175907C8F08417950708
:1041200069F4109731F012960C93129713961C9322
:1041300027C0009346061093470622C0211531057B
:1041400019F04217530718F49A01BD01EF01DF017E
:10415000F801DBCF21153105F9F0281B390B24308C
:10416000310580F48A819B816115710521F0FB0185
:104170009383828304C09093470680934606FE0192
:10418000329644C0FE01E20FF31F819391932250B7
:104190003109398328833AC020914406309145067D
:1041A000232B41F420911B0130911C0130934506D3
:1041B000209344062091190130911A0121153105EF
:1041C00041F42DB73EB740911D0150911E01241BB3
:1041D000350BE0914406F0914506E217F307A0F491
:1041E0002E1B3F0B2817390778F0AC014E5F5F4F4D
:1041F0002417350748F04E0F5F1F50934506409334
:1042000044068193919302C0E0E0F0E0CF01DF919A
:10421000CF911F910F910895CF93DF93009709F4E9
:1042200081C0FC01329713821282A0914606B091A0
:104230004706109781F420813181820F931F2091CE
:104240004406309145062817390751F5F093450685
:10425000E093440667C0ED0120E030E0CE17DF07B1
:1042600040F44A815B819E0141155105F1F0EA015C
:10427000F5CFD383C28340815181840F951FC81726
:10428000D90759F488819981840F951F02969183EB
:1042900080838A819B81938382832115310529F450
:1042A000F0934706E09346063DC0E901FB83EA83AD
:1042B00049915991C40FD51FEC17FD0761F4808116
:1042C0009181840F951F0296E901998388838281E9
:1042D00093819B838A83E0E0F0E012968D919C911C
:1042E0001397009719F0FD01DC01F7CF8D919C9198
:1042F00011979D012E5F3F4F820F931F209144061F
:10430000309145062817390769F4309729F410923F
:1043100047061092460602C013821282B0934506E9
:10432000A0934406DF91CF910895A0E0B0E0EBE9BF
:10433000F1E20C942C20EC01009721F4CB010E94B7
:104340007420B4C0FC01E60FF71F9C012250310914
:10435000E217F30708F4A8C0D9010D911C91119739
:1043600006171707B0F00530110508F49BC0C80107
:1043700004978617970708F495C002501109061B89
:10438000170B019311936D937C93CF010E940C2125
:1043900089C05B01A01AB10A4C01800E911EA09148
:1043A0004606B0914706612C712CE12CF12C109738
:1043B00009F446C08D919C911197A815B905B1F5E6
:1043C0006C0142E0C40ED11CCA14DB0478F14C012C
:1043D0008A189B08640142E0C40ED11C1296BC905E
:1043E00012971396AC91B5E0CB16D10440F0B2828F
:1043F000A38391828082D9016D937C9309C00E5F63
:104400001F4F800F911FF90191838083EB2DFA2FAD
:10441000E114F10431F0D7011396FC93EE93129757
:1044200041C0F0934706E09346063CC06816790603
:1044300008F43C017D0112960D90BC91A02DB7CFE0
:10444000809144069091450688169906E1F4661617
:104450007706C8F48091190190911A01009741F4F0
:104460008DB79EB740911D0150911E01841B950B85
:10447000E817F907C8F4F0934506E0934406F901FC
:10448000718360830FC0CB010E9474207C01009770
:1044900059F0A801BE010E946D22CE010E940C219C
:1044A000C70104C0CE0102C080E090E0CDB7DEB706
:1044B000EEE00C94482081E090E0F8940C94C8223F
:1044C000FB01DC0104C08D910190801921F4415061
:1044D0005040C8F7881B990B0895FB01DC0102C00E
:1044E00001900D9241505040D8F70895FC01819100
:1044F000861721F08823D9F7992708953197CF019E
:104500000895FB01DC018D91019080190110D9F310
:10451000990B0895FB01DC0101900D920020E1F759
:104520000895FB01DC014150504030F08D91019025
:10453000801919F40020B9F7881B990B0895FB0125
:10454000DC014150504048F001900D920020C9F725
:1045500001C01D9241505040E0F70895FB01519178
:104560005523A9F0BF01DC014D9145174111E1F739
:1045700059F4CD010190002049F04D9140154111B1
:10458000C9F3FB014111EFCF81E090E0019708955D
:1045900011E0C4E4D1E004C0FE010E946E20219627
:0A45A000C534D107C9F7F894FFCF26
:1045AA00FFFFFFFF00C18081000000FFFFFFFF0047
:1045BA00E1000000000000F401000048068000004D
:1045CA0000000000009001D207A816DD026F012842
:1045DA0009320900000000A6015C021C02CD01009C
:1045EA000000006E094810A816FB0F6E096E096ECE
:1045FA00090000000072106612931088109810D6F5
:10460A0010B21000000000F4104810A816FB0F00AA
:10461A000000004117F001A816FB0F000000006E11
:10462A00094810A816FB0FB080818283DAD9D8D73F
:10463A00D3D6C1D4D2B1D1B3D5B2C2C3C4C5C6C709
:10464A00C8C9CACBCCCD2E747874002F00454E54FD
:10465A004552004354524C00534849465400414C79
:10466A005400475549004C4546540052494748545E
:10467A00005041474555500050414745444F574E19
:10468A0000434150534C4F434B0044454C4554451D
:10469A0000484F4D450045534300494E5345525437
:1046AA000054414200454E44004241434B5350415D
:1046BA004345004631004632004633004634004640
:1046CA00350046360046370046380046390046313E
:1046DA0030004631310046313200424C4B00313015
:1046EA003000753235383800373500753235393390
:1046FA0000353000753235393200323500753235C1
:10470A003931002000535452494E470053545249FC
:10471A004E474C4E000D0A0044454641554C545FE5
:10472A0044454C4159005245504541540052454D6B
:02473A0000007D
:00000001FF
