:100000000C9444010C946C010C946C010C946C01E4
:100010000C946C010C946C010C946C010C946C01AC
:100020000C946C010C946C010C94EC0D0C947A0FF4
:100030000C946C010C946C010C946C010C946C018C
:100040000C946C010C946C010C946C010C946C017C
:100050000C946C010C946C010C946C010C9458136E
:100060000C946C010C946C010C946C010C946C015C
:100070000C946C010C946C010C946C010C946C014C
:100080000C946C010C946C010C946C010C946C013C
:100090000C946C010C946C010C946C010C946C012C
:1000A0000C946C010C946C010C946C01E815EB152C
:1000B000DA15DE15E4150C160C160C16EF15F315F3
:1000C000F715FD1501160C160716000000000000BC
:1000D00000002A2B280000000000000000000000A3
:1000E000000000000000000000002C9EB4A0A1A2AF
:1000F000A434A6A7A5AE362D3738271E1F202122EF
:1001000023242526B333B62EB7B89F8485868788E7
:10011000898A8B8C8D8E8F909192939495969798D7
:10012000999A9B9C9D2F3130A3AD35040506070895
:10013000090A0B0C0D0E0F101112131415161718B7
:10014000191A1B1C1DAFB1B0B500080B000202024A
:100150000100090400000102020000052400100152
:1001600005240101010424020605240600010705F7
:10017000810310004009040100020A000000070585
:100180000202400000070583024000000403090446
:1001900012010002EF0201404123368000010102FA
:1001A000030141726475696E6F204C4C43004172CB
:1001B0006475696E6F204C656F6E6172646F0000CC
:1001C0000000002300260029002C002F0000000062
:1001D00000240027002A002D003000000000002528
:1001E0000028002B002E0031000404040404030442
:1001F00005020202020403020202020606060606C5
:1002000006040402020204040408020110408040B3
:10021000102040804080080204018040201002012C
:10022000108010204040200000000200090F000054
:10023000030401000C0000000000000000000000AA
:100240000000000000007C3C3E5E2B3D3F2F5B5DCC
:100250003B2C2A225C0005010906A1018502050745
:1002600019E029E71500250175019508810295011E
:100270007508810395067508150025730507190093
:1002800029738100C000421E11241FBECFEFDAE0A7
:10029000DEBFCDBF25E0A0E9B2E001C01D92AC38C1
:1002A000B207E1F712E0A0E0B1E0EEEEF3E402C045
:1002B00005900D92A039B107D9F711E0C4E4D1E05F
:1002C00004C02197FE010E94A91FC334D107C9F7BA
:1002D0000E94F31A0C94F5210C940000DC0159964D
:1002E000ED91FC915A973097B9F083899489A5894B
:1002F000B6894285538564857585841B950BA60B4D
:10030000B70B811520E89207A105B10538F08FEFF2
:100310009FE7A0E0B0E0089580E090E00895CF93DB
:10032000DF931F92CDB7DEB76983DC01ED91FC91BD
:100330000280F381E02D41E050E0BE016F5F7F4F0E
:1003400009950F90DF91CF910895DC01FB01129682
:100350008C91129790E02481358182179307D1F414
:1003600091818081813A31F481E0913091F0933034
:1003700089F411C0813271F49B3021F482811F967F
:100380008C9305C09A3031F4828150968C9381E031
:100390000895089580E00895DC01FB0188E48083DE
:1003A00089E4818384E482831D969C911D979F70CC
:1003B0009F5B93831D968D919C911E9724E096954B
:1003C00087952A95E1F78F708F5B848385E0089588
:1003D000FC0182818F5BFB01808381E00895CF92D5
:1003E000DF92EF92FF920F931F93CF93DF936C01F5
:1003F000EB017B01E40EF51E00E010E0CE15DF05F9
:1004000081F069916D30D1F3D601ED91FC910190AD
:10041000F081E02DC6010995892B19F00F5F1F4F60
:10042000EDCFC801DF91CF911F910F91FF90EF9019
:10043000DF90CF90089580E090E00895EF92FF92D2
:100440000F931F93CF93DF93FB012081213851F548
:100450002381223239F5DC0112962C9130E044815F
:10046000558142175307F1F4EC010B851C85E12CF3
:10047000F12C0115110591F0F8014481558162813B
:10048000738180E80E945E0E8F3FFFEF9F0769F047
:10049000E80EF91ED8010D911C91EBCF81E08F87FA
:1004A000C70105C080E090E002C08FEF9FEFDF91B1
:1004B000CF911F910F91FF90EF900895CF93DF930D
:1004C000CDB7DEB769970FB6F894DEBF0FBECDBFCC
:1004D000FC01DB018C918F5F8C93BE016F5F7F4FBE
:1004E00089E1DB011D928A95E9F729E0298384E0FF
:1004F0008A8391E09D8383E08E832A8721E22B8784
:100500009C879D879F8722E2288B27E02B8B25E005
:100510002C8B8E8B20E430E0388F2F8B998F82814B
:100520008B8395858685998B8A8B838180688D8B5B
:1005300049E150E080E00E945E0E69960FB6F894A3
:10054000DEBF0FBECDBFDF91CF9108958F929F92F6
:10055000AF92BF92CF92DF92EF92FF920F931F93D1
:10056000CF93DF93EC018D81811102C080E078C0D0
:100570000B891C892D893E89041715072607370723
:10058000A8F36A017B01823029F4CA86DB86EC86F7
:10059000FD860DC0C114D104E104F10451F41E82A2
:1005A0001F82188619861A861B861C861D8681E086
:1005B00057C08A849B84AC84BD84EB8DFC8D2585DB
:1005C00030E0275F3F4FB501A40141505109610957
:1005D0007109022E04C076956795579547950A9440
:1005E000D2F7D701C6010197A109B10904C0B69598
:1005F000A795979587952A95D2F784179507A6070B
:10060000B70720F089288A288B2871F44F89588DE4
:10061000698D7A8D4E835F83688779874C015D0190
:100620008E010A5F1F4F16C0841B950BA60BB70BDC
:10063000F5CF4E815F816885798598018B8D9C8D82
:100640000E94A21291E0891A9108A108B10888239A
:1006500009F48CCF81149104A104B10451F795CF12
:10066000DF91CF911F910F91FF90EF90DF90CF908E
:10067000BF90AF909F908F9008953F924F925F925E
:100680006F927F928F929F92AF92BF92CF92DF92A2
:10069000EF92FF920F931F93CF93DF93CDB7DEB707
:1006A0002C970FB6F894DEBF0FBECDBF5C01DC0106
:1006B0005B968D909C905C971696CD90DD90ED901A
:1006C000FC901997C114D104E104F10439F0BFEF93
:1006D000CB1ADB0AEB0AFB0A312C07C0F401C080FD
:1006E000D180E280F38033243394F40181859285B4
:1006F000A385B4859C01AD012F5F3F4F4F4F5F4FE6
:1007000029873A874B875C87260137011D821E8225
:100710001F821886F40181859285A385B4852D8179
:100720003E814F815885281739074A075B0708F033
:1007300063C089859A85AB85BC858C159D05AE0502
:10074000BF0550F482E0C82ED12CE12CF12C92E0B0
:10075000492E512C612C712C9E012F5F3F4FB70108
:10076000A601C4010E94A212882309F445C0898110
:100770009A81AB81BC81892B8A2B8B2B41F026017E
:1007800037019FEF491A590A690A790A05C0C4144A
:10079000D504E604F70491F02D813E814F81588500
:1007A0002F5F3F4F4F4F5F4F2D833E834F835887BF
:1007B0003FEFC31AD30AE30AF30AACCF0FEF1FEFE0
:1007C0002FEF3FE0B301A201C4010E940112882370
:1007D00099F0D50116964D915D916D917C91199787
:1007E000411551056105710549F093018201C4016C
:1007F0000E940112811102C080E02AC0D501169624
:100800004D925D926D927C921997332051F0D301F5
:10081000C2010196A11DB11DF40180839183A283C1
:10082000B383F5018789908DA18DB28D892B8A2B99
:100830008B2B69F4D50157964D925D926D927C9207
:100840005A9714968C911497806814968C9381E033
:100850002C960FB6F894DEBF0FBECDBFDF91CF91BF
:100860001F910F91FF90EF90DF90CF90BF90AF90CE
:100870009F908F907F906F905F904F903F900895E2
:100880008FB7F894809192028FBF089561E0FC01C8
:1008900084810E940D168091910281111092910223
:1008A00008958EBD00000DB407FEFDCF8EB50895EE
:1008B0008FEF0C9451040F931F93CF93DF93EB01B1
:1008C0000E944C138B010E9458048F3F49F00E94F4
:1008D0004C13601B710B6C177D07A8F380E001C0FF
:1008E00081E0DF91CF911F910F910895CF93DF9316
:1008F000EC018E81882389F08F8198859C012F5F80
:100900003F4F38872F838230924018F40E9458045A
:10091000F3CFCE010E9446041E82DF91CF9108954D
:100920008CBD9DBD0895CF93DF93EC018091910222
:10093000811109C081E0809391028091BA04909165
:10094000BB040E94900460E08C81DF91CF910C94F5
:100950000D168F929F92AF92BF92FF920F931F93AB
:10096000CF93DF93EC01F62E49015A010E947604E1
:10097000CE010E9493046CE271E0CE010E945B0400
:100980008F2D80640E94510408E110E0D501C4015C
:10099000002E04C0B695A795979587950A94D2F72F
:1009A0000E94510408501109083F8FEF180771F792
:1009B000FF2029F088E0F81204C087E803C085E929
:1009C00001C08FEF0E94510410E00E9458048A87F2
:1009D00087FF04C01F3F11F01F5FF7CFDF91CF915A
:1009E0001F910F91FF90BF90AF909F908F900895AF
:1009F000AF92BF92CF92DF92EF92FF920F931F932D
:100A0000CF93DF93EC016901C801820F931F8130FE
:100A1000924008F070C08E81882371F0888199819E
:100A2000AA81BB8184179507A607B70729F48F8190
:100A30009885C816D906B0F5488359836A837B83A5
:100A40008B85833039F089E0440F551F661F771F6F
:100A50008A95D1F79A01AB0161E1CE010E94A90408
:100A6000882319F083E08D8346C00E944C135B01FC
:100A70000E9458048A878F3F49F40E944C136A19D8
:100A80007B096D327140A0F38FE003C08E3F31F0DF
:100A90008DE08D83CE010E9446042DC018861F82F2
:100AA00081E08E838F8198858C159D0540F40E948E
:100AB00058048F819885019698878F83F3CF6701BB
:100AC000E00EF11EEC14FD0431F00E945804F60112
:100AD00081936F01F7CF8F819885080F191F1887B1
:100AE0000F838985882319F00115124048F0CE0143
:100AF0000E94760405C0CE010E94460480E001C039
:100B000081E0DF91CF911F910F91FF90EF90DF90E7
:100B1000CF90BF90AF900895EF92FF920F931F93E5
:100B2000CF93DF93EC017901411551056105710502
:100B300011F482E13CC08B85833039F089E0440FA9
:100B4000551F661F771F8A95D1F79A01AB0168E19F
:100B5000CE010E94A904882311F084E028C08EEF02
:100B60000E94510487018EEFF81AF80181918F01DC
:100B70000E945104E016F106C1F78FEF0E94510464
:100B80008FEF0E9451040E9458048A878F7185302C
:100B900031F081E18D83CE010E94460409C068E5F1
:100BA00072E0CE010E945B04811107C085E18D8354
:100BB000CE010E94460480E014C020E030E0A9018C
:100BC0006DE0CE010E94A904811109C00E94580461
:100BD000811105C0CE010E94460481E002C084E17B
:100BE000E6CFDF91CF911F910F91FF90EF90089585
:100BF0008091B9028823A9F140910E0150910F0113
:100C000060911001709111012AEB32E08091B702DE
:100C10009091B8020E948C05811102C080E0089575
:100C200040919302509194026091950270919602C6
:100C3000411551056105710591F02AEB32E0809173
:100C4000B7029091B8020E948C05882339F3109264
:100C500093021092940210929502109296021092B2
:100C6000B90281E00895CF93DF93EC018D81882351
:100C700079F18C8187FF28C06E857F858889998965
:100C800041E00E94B811882319F1EA8980E2E89FC7
:100C9000F0011124E654FD4F3097D1F08D81823060
:100CA00040F48B899C89AD89BE89848F958FA68FEE
:100CB000B78F8F89988DA98DBA8D938F828FB58BC1
:100CC000A48B8C818F778C83DF91CF910C94F80566
:100CD00080E0DF91CF910895CF93DF93EC010E94E4
:100CE0003306882311F01D8281E0DF91CF910895B2
:100CF000FC01818D928D009711F00C9433060895BC
:100D00002F923F924F925F926F927F928F929F921B
:100D1000AF92BF92CF92DF92EF92FF920F931F9309
:100D2000CF93DF9300D000D0CDB7DEB78C015B014D
:100D30001A01DC0115968C9115978130C9F414962F
:100D40008C9181FF15C082FF1DC0F8014389548931
:100D50006589768982859385A485B58584179507ED
:100D6000A607B70779F0C8010E94A60281110AC040
:100D700081E090E0D80113969C938E93129780E0C7
:100D800090E036C1610183C05B968D919C915C9728
:100D9000FC0174802FEF270D2A013B0139E0769486
:100DA0006794579447943A95D1F7722E74207A013C
:100DB000F1E0FF22772009F476C080E092E08E19FE
:100DC0009F0946018C159D0508F44C01D8015B96DE
:100DD0002D913C915C9716968D919D910D90BC91B3
:100DE000A02D0297A109B109F901058404C0880F5B
:100DF000991FAA1FBB1F0A94D2F7468557856089A1
:100E00007189840F951FA61FB71F9C01AD01270D87
:100E1000311D411D511D29013A01811432E0930613
:100E200009F088C080910E0190910F01A0911001EE
:100E3000B0911101481659066A067B0659F48FEFE6
:100E40009FEFDC0180930E0190930F01A09310019E
:100E5000B09311019501B301A2018091B702909165
:100E6000B8020E948C05882309F482CF9EEFB91A3C
:100E7000C818D908F80182859385A485B585880DA1
:100E8000991DA11DB11D82879387A487B587D801BD
:100E90001A964D915D916D917C911D97C114D1046D
:100EA00009F072CF87C0E114F10409F086CF1696DD
:100EB0004D915D916D917C91199741155105610599
:100EC000710559F457968D919D910D90BC91A02D6F
:100ED0000097A105B10541F521C09E012F5F3F4F4D
:100EE0000E94A212882309F44BCF89819A81AB8199
:100EF000BC81F801238D348DF9012789203129F037
:100F000048EF5FEF6FEF7FE004C048EF5FEF60E016
:100F100070E084179507A607B70730F0C8010E9454
:100F20003D0381114ACF24CFF80186839783A087A0
:100F3000B18743CFE114F10429F5D8011A964D91F8
:100F40005D916D917C911D9753968D919D910D9022
:100F5000BC91A02D481759076A077B0798F00E949B
:100F6000F805882309F404CF40920E0150920F0136
:100F700060921001709211018091B902816080939A
:100F8000B90208C041E0C301B2010E94B811882330
:100F900009F4EECED501F701E654FD4F9F01280D6F
:100FA000391D2E173F0719F08D918193FACFA80CA8
:100FB000B91C5ECFF80183899489A589B689841705
:100FC0009507A607B70738F4438B548B658B768B50
:100FD000848180688483F801848183FD02C0C1011B
:100FE00007C0C8010E943306882309F4C1CEF7CF99
:100FF0000F900F900F900F90DF91CF911F910F9155
:10100000FF90EF90DF90CF90BF90AF909F908F9028
:101010007F906F905F904F903F902F900895CF9367
:10102000DF931F92CDB7DEB7698341E050E0BE0188
:101030006F5F7F4F0E9480060F90DF91CF910895E0
:10104000CF93DF93EC01898D9A8D009739F481E07D
:1010500090E09B838A8380E090E00BC0FC011382C8
:1010600012820E948006E98DFA8D22813381232B22
:1010700071F7DF91CF910895FC01DB0112968D91FC
:101080009C9113979383828387E691E09183808379
:1010900014968C911497848315968C91159785835B
:1010A00016964D915D916D917C911997468357836A
:1010B000608771871A964D915D916D917C911D9716
:1010C00042875387648775871E964D915D916D9118
:1010D0007C91519746875787608B718B52968C9184
:1010E0005297828B53964D915D916D917C9156975D
:1010F000438B548B658B768B57964D915D916D919B
:101100007C915A97478B508F618F728F5B968D9130
:101110009C915C97948F838F08954F925F926F920A
:101120007F92AF92BF92CF92DF92EF92FF920F9396
:101130001F93CF93DF931F92CDB7DEB7FC012581BC
:10114000222309F4C1C0848180FFBEC083899489B1
:10115000A589B68942845384648475848415950571
:10116000A605B70509F4B0C06F015201F1E0BF2236
:10117000D6015B968D919C915C97B301A20139E0F9
:1011800076956795579547953A95D1F7223071F442
:10119000FC01828D938DA48DB58D8A019B01080F72
:1011A000191F2A1F3B1FC901B8014AC0DC01149650
:1011B0001C9111501423A114B104F9F411111DC094
:1011C00045284628472851F4F6018789908DA18D3E
:1011D000B28D86839783A087B1870FC0D6011696FC
:1011E0004D915D916D917C91199796012A5F3F4FCA
:1011F0000E94A212882309F467C0F601238D348D62
:1012000086819781A085B1850297A109B109AC01BA
:10121000BD01F901058404C0440F551F661F771FE7
:101220000A94D2F786859785A089B189840F951F86
:10123000A61FB71FBC01CD01610F711D811D911D3E
:10124000D60114962C9126FF0DC040900E015090AF
:101250000F01609010017090110146165706680644
:10126000790699F440E00E94B811882369F1F501EC
:10127000E654FD4FDE0111969F012F5F3F4F2E1761
:101280003F0799F081918D93FACFFE0131967F014E
:1012900001E010E09501AB01BC018091B702909193
:1012A000B8020E94F804882379F0F60182859385BC
:1012B000A485B5850196A11DB11D82879387A4875A
:1012C000B587898190E002C08FEF9FEF0F90DF918B
:1012D000CF911F910F91FF90EF90DF90CF90BF9033
:1012E000AF907F906F905F904F900895FC01818D3B
:1012F000928D009711F00C948D088FEF9FEF089559
:101300000F931F93CF93DF93FC01818D928D0097F4
:10131000B9F0EF010E948D088C010F3F8FEF180785
:1013200091F0898D9A8DFC01428553856485758580
:1013300041505109610971090E94A602C80105C006
:1013400080E090E002C08FEF9FEFDF91CF911F917F
:101350000F9108950F931F93CF93DF931F92CDB7F3
:10136000DEB78B0180911605811105C00E947418AB
:1013700081E08093160582E0898341E050E0BE0160
:101380006F5F7F4F809108050E94850E97FD08C012
:101390008091080548E050E0B80180640E94850E05
:1013A0000F90DF91CF911F910F910895DC01683864
:1013B00010F068582DC0E62FF0E067FF11C0E0582C
:1013C000F10981E090E001C0880FEA95EAF71496F0
:1013D0009C911497892B14968C93149760E018C0F5
:1013E000E653FF4F6491611109C081E090E01396CC
:1013F0009C938E93129780E090E0089567FF08C059
:1014000014968C911497826014968C9314976F772E
:1014100016968C911697681751F117968C9117971D
:10142000681729F118968C911897681701F1199689
:101430008C9119976817D9F01A968C911A9768179A
:10144000B1F01B968C911B97681789F0FD013696B9
:1014500080E090E02191211105C0FD01E80FF91F06
:10146000668305C0019686309105A1F7BECFCD01F8
:10147000BD016C5F7F4F0E94AA0981E090E0089552
:10148000EF92FF920F931F93CF938C01C62F0E9470
:10149000D6097C01C83818F068E76C0F1FC0EC2F24
:1014A000F0E0C7FF0FC0E058F10981E090E001C013
:1014B000880FEA95EAF78095F8019481892384835F
:1014C00060E00CC0E653FF4F64916623C9F067FFEC
:1014D00005C0F80184818D7F84836F77F80186E0F1
:1014E000662321F09681691301C0168281503196DE
:1014F0008111F6CFB8016C5F7F4FC8010E94AA0925
:10150000C7019927CF911F910F91FF90EF900895F8
:10151000CF93DF93EC018C819D81019751F4E88199
:10152000F981309721F410929002E0E9F2E06081B5
:101530006CC067E871E0CE010E94A213882311F00D
:1015400060EB63C06DE871E0CE010E94A2138823B6
:1015500011F060E85AC062E971E0CE010E94A21366
:10156000882311F061E851C068E971E0CE010E9462
:10157000A213882311F062E848C06CE971E0CE0143
:101580000E94A213882311F063E83FC06FE572E068
:10159000CE010E94A213811107C060EA71E0CE0162
:1015A0000E94A213882311F06AED2FC06BEC71E04A
:1015B000CE010E94A213811107C068EA71E0CE013A
:1015C0000E94A213882311F069ED1FC060E572E04C
:1015D000CE010E94A213811107C062EB71E0CE011F
:1015E0000E94A213882311F068ED0FC065E572E038
:1015F000CE010E94A213811107C06CEB71E0CE01F5
:101600000E94A213882339F067ED8EE195E0DF9107
:10161000CF910C94D6096BE572E0CE010E94A21323
:10162000882311F063EDF1CF67EC71E0CE010E94E9
:10163000A213882311F066EDE8CF60ED71E0CE01D2
:101640000E94A213882311F061ECDFCF69ED71E0F5
:10165000CE010E94A213882311F064EDD6CF60EE74
:1016600071E0CE010E94A213882311F062EDCDCF6C
:1016700065EE71E0CE010E94A213882311F061EBA8
:10168000C4CF69EE71E0CE010E94A213882311F04D
:1016900061EDBBCF60EF71E0CE010E94A213882301
:1016A00011F063EBB2CF64EF71E0CE010E94A213A0
:1016B000882311F065EDA9CF68EF71E0CE010E949B
:1016C000A213882311F062ECA0CF6BEF71E0CE0182
:1016D0000E94A213882311F063EC97CF6EEF71E0A4
:1016E000CE010E94A213882311F064EC8ECF61E03A
:1016F00072E0CE010E94A213882311F065EC85CF21
:1017000064E072E0CE010E94A213882311F066EC1F
:101710007CCF67E072E0CE010E94A213882311F013
:1017200067EC73CF6AE072E0CE010E94A2138823B7
:1017300011F068EC6ACF6DE072E0CE010E94A21356
:10174000882311F069EC61CF60E172E0CE010E9464
:10175000A213882311F06AEC58CF63E172E0CE0146
:101760000E94A213882311F06BEC4FCF67E172E067
:10177000CE010E94A213882311F06CEC46CF6BE1DE
:1017800072E0CE010E94A213882311F06DEC3DCFD0
:101790006FE172E0CE010E94A213882369F060E835
:1017A0008EE195E00E94D60961E88EE195E00E9405
:1017B000D60986E292E03BC06CE272E0CE010E9464
:1017C000A213882369F060E88EE195E00E94D609B3
:1017D00061E88EE195E00E94D60982E392E027C09D
:1017E00068E372E0CE010E94A213882369F060E8EA
:1017F0008EE195E00E94D60961E88EE195E00E94B5
:10180000D6098EE392E013C064E472E0CE010E9438
:10181000A213882391F060E88EE195E00E94D6093A
:1018200061E88EE195E00E94D6098AE492E00E9488
:10183000D51EDF91CF910C94DC18DF91CF910895E4
:1018400008954091A5025091A6022091A3023091E3
:10185000A40242175307B4F49091E8009570E1F3A5
:101860009091E80092FD19C08093F1008091A5024B
:101870009091A60201968F739927892B19F48EEF08
:101880008093E8008091A5029091A6020196909322
:10189000A6028093A50281E0089580E008952FB705
:1018A000F89487708093E9009091E800892F807206
:1018B00095FF04C09091F20080E4891B2FBF08952A
:1018C000615030F02091F100FC0120830196F8CFA7
:1018D000289884E68093B5020895CF92DF92EF9224
:1018E000FF920F931F93CF93DF936C017A018B01CB
:1018F000C0E0D0E0CE15DF0581F0D8016D918D01FB
:10190000D601ED91FC910190F081E02DC601099581
:10191000892B11F02196EECF7E01C701DF91CF9187
:101920001F910F91FF90EF90DF90CF900895CF938C
:10193000DF931F92CDB7DEB76983DC01ED91FC9197
:101940000280F381E02D41E050E0BE016F5F7F4FE8
:1019500009950F90DF91CF91089583E08093E9007E
:101960008091F200882319F08AE38093E8000895BB
:1019700083E00E944F0C90E00895FC0184859585DA
:1019800097FD0BC09FB7F89482E08093E9008091A7
:10199000F2009FBF90E0019608959FB7F89482E00F
:1019A0008093E9008091F2009FBF90E008950F932B
:1019B0001F93CF93DF93EC0188819981009729F0E1
:1019C0002A813B812617370788F48B016F5F7F4F91
:1019D0000E94D020009761F0998388831B830A833B
:1019E0002C813D81232B11F4FC01108281E001C088
:1019F00080E0DF91CF911F910F9108950F931F9376
:101A0000CF93DF931F92CDB7DEB78C01FC018485A5
:101A1000958597FF0EC0CE0101960E94A2150197F1
:101A200019F4898190E002C08FEF9FEFF80195874C
:101A30008487F801848595850F90DF91CF911F9160
:101A40000F910895CF93DF931F92CDB7DEB7FC01BE
:101A50008485958597FD05C02FEF3FEF3587248757
:101A60000BC0CE0101960E94A215019719F489813D
:101A700090E002C08FEF9FEF0F90DF91CF9108951C
:101A8000EF92FF920F931F93CF93DF936115710530
:101A900011F480E01CC041155105C1F07B01EC013F
:101AA0008C819D818A01080F191FB801CE010E9407
:101AB000D70C882371F3288139818C819D81B701EE
:101AC000820F931F0E94C5211D830C8381E0DF914B
:101AD000CF911F910F91FF90EF900895CF93DF93D7
:101AE000EC0188819981009711F00E9447201982AA
:101AF00018821D821C821B821A82DF91CF91089569
:101B0000EF92FF920F931F93CF93DF93EC017B0132
:101B10008A01BA010E94D70C811104C0CE010E9433
:101B20006E0D07C01D830C83B701888199810E94C7
:101B3000C521CE01DF91CF911F910F91FF90EF90C2
:101B40000895CF93DF93EC016115710559F0FB0106
:101B500001900020E9F73197AF01461B570B0E9417
:101B6000800D02C00E946E0DCE01DF91CF910895CD
:101B7000FC01808191810C944720FB01DC011196CE
:101B80001C921E9213961C921E92129715961C92EE
:101B90001E9214978617970749F06081718161152D
:101BA000710521F0448155810C94800D0895FC014C
:101BB00011821082138212821582148261157105BE
:101BC00051F0FB0101900020E9F73197AF01461B6E
:101BD000570B0C94800D08951F920F920FB60F9221
:101BE00011248F939F938091E1009091E100937F66
:101BF0009093E10083FF0FC01092E90091E0909371
:101C0000EB001092EC0092E39093ED001092B6027C
:101C100098E09093F00082FF20C093E09093E90059
:101C20009091F200992319F09AE39093E800909133
:101C3000A802992339F09091A80291509093A8029C
:101C4000992389F19091B502992339F09091B502C9
:101C500091509093B502992341F184FF10C0809177
:101C6000E2008E7E81608093E2008091E1008F7EB1
:101C70008093E1008091A9028E7E806111C080FF77
:101C800016C08091E2008E7E80618093E200809198
:101C9000E1008E7E8093E1008091A9028E7E8160BA
:101CA0008093A90204C05D9ACDCF289AD6CF9F9188
:101CB0008F910F900FBE0F901F901895DF92EF92AB
:101CC000FF920F931F93CF93DF93D82E8A017B014E
:101CD000E40EF51EEB01CE15DF0571F0D7FE03C053
:101CE000FE01849101C088810E94210C21968111FE
:101CF000F2CF8FEF9FEF01C0C801DF91CF911F910D
:101D00000F91FF90EF90DF9008957F928F929F92B6
:101D1000AF92BF92CF92DF92EF92FF920F931F93F9
:101D2000CF93DF93C82E8B017A018091B602811187
:101D300003C08FEF9FEF74C08091A90280FF05C0A0
:101D40008091E00082608093E000CE2DDF2DD12CC9
:101D50008AEFB82E8C2D8770982E8C2D8072882E4D
:101D60008C2D8074782E9AE3A92E209719F4DD200B
:101D700009F451C08C2D0E944F0C81110AC0BA94F5
:101D8000BB20B9F261E070E080E090E00E9478163C
:101D9000ECCF282F30E0C217D3070CF48C2F9FB75D
:101DA000F8949092E9002091E80025FF32C0282F96
:101DB00030E0C21BD30B882029F08150A0F0109294
:101DC000F100FBCFF801C7FE0AC0815050F04491EA
:101DD0004093F1003196F9CF41914093F100815049
:101DE000D8F7020F131FDD2019F0A092E8000AC0F7
:101DF0008091E80085FD08C0A092E800DD24D3941E
:101E0000209739F0D12C05C0209719F47110A092B9
:101E1000E8009FBFAACF5D9884E68093A802C7011F
:101E2000DF91CF911F910F91FF90EF90DF90CF90B6
:101E3000BF90AF909F908F907F900895CF93DF9346
:101E4000EC0180910B01882331F083E00E94850E24
:101E50001816190634F081E090E09B838A8380E0B5
:101E600090E0DF91CF91089580919B0281110DC088
:101E700082E08093970284E08093980210929A0205
:101E80001092990281E080939B0287E992E0089585
:101E90000F931F93CF93DF931F92CDB7DEB782E0EE
:101EA000898342E450E06AE471E080E80E945E0EBB
:101EB0000E94340FDC0112960D911C9113970115AD
:101EC000110589F0D801ED91FC910280F381E02D9C
:101ED000BE016F5F7F4FC801099597FD04C0F801EF
:101EE00000851185ECCF89810F90DF91CF911F91F3
:101EF0000F9108951F920F920FB60F921124CF9257
:101F0000DF92EF92FF920F931F932F933F934F9384
:101F10005F936F937F938F939F93AF93BF93EF9351
:101F2000FF93CF93DF93CDB7DEB76C97DEBFCDBF06
:101F30001092E9008091E80083FFFBC168E0CE01C8
:101F400045960E94600C82EF8093E8008D8987FFA0
:101F500005C09091E80090FFFCCF03C09EEF9093E6
:101F6000E800982F907609F0C6C09E894F89588D59
:101F70002F89F88C91110CC0803829F48091AA0225
:101F80008093F10002C01092F1001092F10045C15F
:101F9000913051F4811141C14130510509F03DC1E9
:101FA0008091AA028D7F0BC0933061F4811135C1FD
:101FB0004130510509F031C18091AA0282608093BD
:101FC000AA022BC1953049F48091E80080FFFCCF34
:101FD000822F80688093E30020C1963009F05EC0B4
:101FE0000B8D1C8D22E01092E9001092A602109237
:101FF000A502F21232C01092A4021092A3020E9413
:10200000480F99E0BE016F5F7F4FDB01E92F1D9202
:10201000EA95E9F79983FA8291E09E8390EA98879E
:102020009AEF99872091A5023091A602275F3F4F32
:102030003C832B838D831092E9001092A6021092AC
:10204000A5021093A4020093A30249E050E080E0AF
:102050000E945E0E0E94480FE0C01093A4020093FD
:10206000A3020E94340FDC0112960D911C9113976C
:102070000115110509F4BBC0D801ED91FC91048054
:10208000F581E02DBE016B5E7F4FC8010995009779
:1020900009F0C7C0F80100851185EACF973009F42F
:1020A00045C1983021F481E08093F100B6C09930A9
:1020B00009F0B3C0837009F039C1E3E1F1E081E0D8
:1020C00031E096E32081211109C08EE78093EA0078
:1020D0001092EA008F898093B6029FC08093E90036
:1020E0003093EB0021912093EC009093ED008F5FF3
:1020F000873041F7EACF8B8D9C8D1092E9001092CA
:10210000A6021092A5029093A4028093A302898D47
:10211000811153C08E899D89913A49F4813209F029
:1021200005C147E050E064E071E080E0BBC091325F
:1021300009F0FCC0833269F48F89988DA0E0B0E08B
:102140008093000190930101A0930201B0930301D9
:1021500064C0803269F48091E80082FFFCCF67E0C0
:1021600084E091E00E94600C8BEF8093E80055C002
:10217000823209F052C08F8980930B01EEEFFFE7A6
:10218000859194918B3F9C4D19F0E0E0F8E002C0FE
:10219000EEEFFAE08091040190910501A091060113
:1021A000B0910701803B9440A105B10509F09EC0A4
:1021B00080910B0180FF79C099C00E94340FFC010F
:1021C000028113810115110509F4B0C0D801ED9108
:1021D000FC910190F081E02DBE016B5E7F4FC80144
:1021E000099581111AC0F80100851185EBCFF1E046
:1021F000FF1609F44EC0F3E0FF1298C08F898823C0
:1022000009F44AC0823089F440E860E18EEA91E046
:102210000E94BE1A882309F489C08EEF8093E800DB
:1022200088C018161906CCF381C0813029F440E823
:102230006BE082EA91E0ECCF833009F077C00E9436
:10224000340FDC011296ED90FC9013978E010F5F16
:102250001F4F6801E114F10479F0D701ED91FC9171
:102260000680F781E02DB801C7010995080F111DFF
:10227000F701E084F184EECFD8011C92F6010190C1
:102280000020E9F73197BF016C197D0940E0C601D4
:10229000BFCF60E971E002C06CE871E0FB014491DE
:1022A00050E080E80E945E0EB8CFEE3F2AE0F207D1
:1022B00051F0808191818737A7E79A0721F09093A9
:1022C000FF0A8093FE0A87E797E7918380838091D6
:1022D00060008093A7029BE088E10FB6F894A89570
:1022E000809360000FBE9093600097CF80819181B2
:1022F0008737974709F091CFA89580916000886152
:10230000809360008091A70280936000EE3FBAE066
:10231000FB0739F08091FE0A9091FF0A9183808338
:102320007CCF1092FF0A1092FE0A77CF81E2809351
:10233000EB006C960FB6F894DEBF0FBECDBFDF91F9
:10234000CF91FF91EF91BF91AF919F918F917F912D
:102350006F915F914F913F912F911F910F91FF903E
:10236000EF90DF90CF900F900FBE0F901F901895B9
:102370008F929F92AF92BF92EF92FF920F931F9313
:10238000CF934B015C01C42F80910E0190910F01FE
:10239000A0911001B091110188159905AA05BB05FE
:1023A00001F10E94F805811102C080E020C08AEB93
:1023B000E82E82E0F82E00E012E020E030E0B501E7
:1023C000A4018091B7029091B8020E94F80488237A
:1023D00061F380920E0190920F01A0921001B092D1
:1023E00011018091B902C82BC093B90281E0CF914D
:1023F0001F910F91FF90EF90BF90AF909F908F90A3
:1024000008954F925F926F927F928F929F92AF92B8
:10241000BF92CF92DF92EF92FF920F931F93CF93D1
:10242000DF93EC01423051056105710510F480E045
:1024300078C089859A85AB85BC850196A11DB11DA3
:1024400084179507A607B70790F3CB88DC88ED883B
:10245000FE888F89803129F4BB27A72F962F852FDF
:1024600009C0DB01CA01E7E0B695A7959795879566
:10247000EA95D1F7480159012A013B01C80ED91E3E
:10248000EA1EFB1E80910E0190910F01A091100198
:10249000B0911101C816D906EA06FB0681F48F89AE
:1024A0008031A9F4B301A201552766277727440F8D
:1024B000551FFA01E654FD4F9182808219C040E019
:1024C000C701B6010E94B8118111E9CFB0CFB301A5
:1024D000A2014F77552766277727440F551F440FD2
:1024E000551FFA01E654FD4F80829182A282B38289
:1024F0008091B90281608093B9028A89823080F02C
:102500008D819E81AF81B885C80ED91EEA1EFB1E43
:10251000C0929302D0929402E0929502F0929602B9
:1025200081E0DF91CF911F910F91FF90EF90DF90AD
:10253000CF90BF90AF909F908F907F906F905F9063
:102540004F9008958F929F92AF92BF92CF92DF9259
:10255000EF92FF920F931F93CF93DF93FC0181853E
:102560009285A385B4850196A11DB11D8417950799
:10257000A607B70710F480E05BC083889488A5881D
:10258000B6888789803129F4BB27A72F962F852FFE
:1025900009C0DB01CA01C7E0B695A7959795879555
:1025A000CA95D1F7E9016A017B018F01BC01CD0118
:1025B000680D791D8A1D9B1D80900E0190900F0162
:1025C000A0901001B0901101681579058A059B054E
:1025D00091F4F80187898031A1F4DD24EE24FF24F1
:1025E000C601880F991FFC01E654FD4F808191813F
:1025F000A0E0B0E018C040E00E94B8118111E9CF1E
:10260000BACFE894C7F8DD24EE24FF24C601880F72
:10261000991F880F991FFC01E654FD4F808191811D
:10262000A281B381BF7088839983AA83BB8381E031
:10263000DF91CF911F910F91FF90EF90DF90CF909E
:10264000BF90AF909F908F9008950E9496213FB7C2
:10265000F8948091B1029091B202A091B302B0912E
:10266000B40226B5A89B05C02F3F19F00196A11D05
:10267000B11D3FBFBA2FA92F982F8827820F911D18
:10268000A11DB11DBC01CD0142E0660F771F881F5F
:10269000991F4A95D1F708952FB7F8946091AD022C
:1026A0007091AE028091AF029091B0022FBF089559
:1026B0001F920F920FB60F9211242F933F938F9377
:1026C0009F93AF93BF938091AD029091AE02A09182
:1026D000AF02B091B0023091AC0223E0230F2D374E
:1026E00020F40196A11DB11D05C026E8230F029616
:1026F000A11DB11D2093AC028093AD029093AE0258
:10270000A093AF02B093B0028091B1029091B20257
:10271000A091B302B091B4020196A11DB11D8093A6
:10272000B1029093B202A093B302B093B402BF91EE
:10273000AF919F918F913F912F910F900FBE0F906E
:102740001F901895FC0124813581232B31F421E061
:1027500061157105A1F0FB0108C0FC018081918128
:102760006115710531F421E0FC018081882339F085
:1027700005C00E94BC2121E0892B09F020E0822FB6
:102780000895BF92CF92DF92EF92FF920F931F9323
:10279000CF93DF937C016B018A01E9012417350790
:1027A00020F4812F8901C42FD82F6DE772E0C70173
:1027B0000E94D70DD60114968D919C9115970817FC
:1027C0001907C8F48C179D0708F4EC01D601ED91A8
:1027D000FC911197EC0FFD1FB08010826D917C91E0
:1027E000600F711FC7010E94A10DD601ED91FC91F0
:1027F000EC0FFD1FB082C701DF91CF911F910F91A8
:10280000FF90EF90DF90CF90BF900895CF93DF932C
:10281000FC0124813581232B71F0FB01DC01CD917A
:10282000DC9160817181CE010E94DB21009719F05B
:102830008C1B9D0B02C08FEF9FEFDF91CF9108950E
:10284000CF93DF93FC012581222311F080E049C062
:10285000EC018091DF048031C1F482E08583178A26
:10286000108E118E128E8091E0049091E104A0E010
:10287000B0E025E0880F991FAA1FBB1F2A95D1F74A
:10288000838B948BA58BB68B19C08032F9F683E0CD
:1028900085834091E2045091E3046091E4047091D7
:1028A000E504478B508F618F728F9F012D5E3F4FE4
:1028B00088EC94E00E941F19882341F288EC94E090
:1028C0009C8F8B8F81E08C831E821F8218861986D5
:1028D0001A861B861C861D861E861F86188A198AE4
:1028E0001A8ADF91CF9108958F929F92AF92BF92F3
:1028F000CF92DF92EF92FF92CF93DF93C82F8CEBB2
:1029000094E09093B8028093B702CC2369F1C5306C
:1029100010F080E00CC140E060E070E0CB010E946C
:10292000B8118823B1F320E1C29FC001112486555C
:102930009D4FFC01E254FE4F20812F7751F73C96CA
:102940004081518162817381443651056105710571
:1029500000F33497C080D180E280F380C114D104A9
:10296000E104F10421F4D5CFC12CD12C760140E053
:10297000C701B6010E94B811882359F28091C5029F
:102980009091C6028115924021F6A091CA02AA2315
:1029900009F4BFCF6091C8027091C9026115710539
:1029A00009F4B7CF2091C702222309F4B2CFA09334
:1029B000DA042093CC0480E030E041E050E0C82FFE
:1029C000FA01082E02C0EE0FFF1F0A94E2F72E173D
:1029D0003F0739F08F5FC83091F789E08093D504C5
:1029E00098CF8093D5042091D0023091D102211547
:1029F000310519F040E050E008C02091DE0230912E
:102A0000DF024091E0025091E1022093CD04309327
:102A1000CE044093CF045093D00446015701860E54
:102A2000971EA11CB11C8092DB049092DC04A09242
:102A3000DD04B092DE04E091CB02F091CC02F09381
:102A4000E104E093E004B0E00E94581F860E971E58
:102A5000A81EB91E8092E2049092E304A092E404BE
:102A6000B092E50485E0EE0FFF1F8A95E1F7E15093
:102A7000FE4FEF2FFF27E6958E0E9F1EA11CB11C67
:102A80008092D6049092D704A092D804B092D90430
:102A90002091CD023091CE022115310521F0A901FE
:102AA00060E070E008C04091DA025091DB02609172
:102AB000DC027091DD02D701C60188199909AA09C3
:102AC000BB09840F951FA61FB71F04C0B695A79515
:102AD00097958795CA95D2F78093D1049093D204A5
:102AE000A093D304B093D404853F2FE09207A105AF
:102AF000B10510F48CE018C0853F9F4FA105B105CA
:102B000010F480E111C08091E6029091E702A0915B
:102B1000E802B091E9028093E2049093E304A09369
:102B2000E404B093E50480E28093DF0481E0DF9168
:102B3000CF91FF90EF90DF90CF90BF90AF909F909C
:102B40008F9008952091B602211103C08FEF9FEF5F
:102B500008955FB7F89422E02093E9002091F200F5
:102B600030E01216130614F421E030E0422FFC018D
:102B700084E6415038F028988093B5029091F10096
:102B80009193F7CF2115310521F08091F200882330
:102B900019F05FBFC90108958BE68093E800F9CF73
:102BA00090E0FC013197EF30F105B0F5EA5AFF4FA4
:102BB0000C94A91F809180008F7703C080918000C2
:102BC0008F7D80938000089580918000877FF9CF6A
:102BD00084B58F7702C084B58F7D84BD08958091C0
:102BE00090008F7707C0809190008F7D03C0809107
:102BF0009000877F8093900008958091C0008F7728
:102C000003C08091C0008F7D8093C00008958091A3
:102C1000C200877F8093C20008951F93CF93DF93F4
:102C2000282F30E0F901E95DFD4F8491F901E85F5B
:102C3000FD4FD491F901E751FE4FC491CC23C1F06F
:102C4000162F81110E94D015EC2FF0E0EE0FFF1F20
:102C5000E552FE4FA591B4919FB7F894111104C0AD
:102C60008C91D095D82302C0EC91DE2BDC939FBFD2
:102C7000DF91CF911F910895CF93DF9390E0FC01F6
:102C8000E85FFD4F2491FC01E751FE4F84918823BA
:102C900061F190E0880F991FFC01E353FE4FC5914D
:102CA000D491FC01E552FE4FA591B491611109C088
:102CB0009FB7F8948881209582238883EC912E23F6
:102CC0000BC0623061F49FB7F8948881322F309541
:102CD00083238883EC912E2B2C939FBF06C08FB744
:102CE000F894E8812E2B28838FBFDF91CF91089530
:102CF0008F929F92AF92BF92CF92DF92EF92FF920C
:102D00006B017C010E9427134B015C01C114D104AB
:102D1000E104F104F1F00E942713DC01CB018819D2
:102D20009909AA09BB09883E9340A105B10570F332
:102D300021E0C21AD108E108F10888EE880E83E08C
:102D4000981EA11CB11CC114D104E104F10419F7AF
:102D5000DDCFFF90EF90DF90CF90BF90AF909F902E
:102D60008F900895DF92EF92FF920F931F93CF936E
:102D7000DF93CDB7DEB72C970FB6F894DEBF0FBE4A
:102D8000CDBF7C0169E672E0CE0101960E94D70DAD
:102D9000BE016F5F7F4FC7010E9406148C01CE01F8
:102DA00001960E94B80D0F3F8FEF180751F4B7013D
:102DB000CE0101960E94BD0DCE0101960E94880AA7
:102DC000DDC0980140E050E0B701CE0101960E94BD
:102DD000C1136BE672E0CE0101960E94A213D82EB9
:102DE000CE0101960E94B80DDD2081F0F70124810B
:102DF0003581A8014F5F5F4FB701CE0101960E9458
:102E0000C1134D815E8169817A812CC0980140E0B7
:102E100050E0B701CE0101960E94C11362E772E053
:102E2000CE0101960E94A213D82ECE0101960E94D7
:102E3000B80DDD20E1F0F70124813581A8014F5F55
:102E40005F4FB701CE0101960E94C1134D815E8193
:102E500069817A818EE195E00E94EF0142E050E0C5
:102E60006BE772E08EE195E00E94EF0187C0980168
:102E700040E050E0B701CE0101960E94C1136EE719
:102E800072E0CE0101960E94A213D82ECE010196C7
:102E90000E94B80DDD20D1F0F70124813581A80111
:102EA0004F5F5F4FB701CE0101960E94C113898128
:102EB0009A81009719F00E94E71E03C060E070E05D
:102EC000CB0170930D0160930C0158C0980140E054
:102ED00050E0B701CE0101960E94C11366E872E08E
:102EE000CE0101960E94A213D82ECE0101960E9417
:102EF000B80DDD2009F445C00F5F1F4FF701248195
:102F00003581A801B701CE0101960E94C1136DE77A
:102F100072E0CE0101960E94A213882351F06091C5
:102F20000C0170910D01072E000C880B990B10E01D
:102F30001DC0F70124813581A801B701CE01079694
:102F40000E94C1138F819885009739F00E94E71E77
:102F5000562F472F382F292F04C050E040E030E093
:102F600020E0652F742F832F922F11E00E94781696
:102F7000112321F0CE0107960E94B80DCE010196D3
:102F8000A1C0980140E050E0B701CE0101960E9437
:102F9000C1136CE872E0CE0101960E94A213182FB3
:102FA000CE0101960E94B80D11118EC0B701CE015D
:102FB00007960E94BD0D8B859C85892B09F480C0E6
:102FC00069E672E0CE0101960E94D70DBE016F5FE7
:102FD0007F4FCE0107960E9406148C01CE01019608
:102FE0000E94B80D0F3FFFEF1F07B1F4BE01695FEC
:102FF0007F4FCE0101960E94BD0DCE0101960E9429
:10300000880ACE0101960E94B80D6DE772E0CE01EC
:1030100007960E94A10D4DC0980140E050E0BE010E
:10302000695F7F4FCE0101960E94C113CE010196C8
:103030000E94880ACE0101960E94B80D2B853C851E
:10304000A8014F5F5F4FBE01695F7F4FCE010196C0
:103050000E94C1138F8198850097A9F069817A81B8
:103060006115710571F049855A852D813E814217A0
:10307000530738F00E94C5218D819E819C878B87E4
:1030800012C00E94472089819A8198878F838B8103
:103090009C819A8789878D819E819C878B871A82E4
:1030A00019821C821B821E821D82CE0101960E9403
:1030B000B80D64EF71E080E090E00E9478167BCF5D
:1030C000CE0107960E94B80D0E94DC182C960FB610
:1030D000F894DEBF0FBECDBFDF91CF911F910F914E
:1030E000FF90EF90DF90089581E080930905809331
:1030F0000A052FE035E030930C0520930B05109264
:103100000E0510920D0527E331E03093060520935C
:1031100005051092110510921005109213051092DA
:103120001205809314058093150581EC80930F059B
:103130000E94340FFC0121818091090590E0820FEB
:10314000911D0897C4F5A281B381109729F485E0F9
:1031500095E0938382830EC018968D919C91199768
:10316000009711F0DC01F8CF85E095E019969C936B
:103170008E9318978081809307058181809308053D
:10318000908180910A05890F808380E090910905E4
:10319000891788F4A0910B05B0910C05A80FB11DFB
:1031A0009C91A181B0E0AE5EBE4F9C9391819F5FE8
:1031B00091838F5FEBCF0895EEE1F5E016821782E1
:1031C0001086118612861386148262E275E0CF01A2
:1031D0000C94AA09EF92FF920F931F93CF93DF9362
:1031E000EC017B018A011B821A8288EE93E0A0E049
:1031F000B0E08C839D83AE83BF8385E291E09983A9
:1032000088838DE190E00E94AF1F9A8F898F00978D
:1032100079F02DE1F701DC0101900D922A95E1F79B
:103220004CE050E0B801CE010C960E94CC21188EE3
:10323000DF91CF911F910F91FF90EF9008954F92E2
:103240005F926F927F92AF92BF92CF92DF92EF9296
:10325000FF920F931F93CF93DF9300D000D0CDB791
:10326000DEB78C0149835A836B837C835901C12C5F
:10327000D12C7601412C82E0582E612C712C498191
:103280005A816B817C819E012F5F3F4FC8010E9454
:10329000A212882351F1D301C201F801058404C0B0
:1032A000880F991FAA1FBB1F0A94D2F7C80ED91EF8
:1032B000EA1EFB1E49815A816B817C81878980319E
:1032C00029F088EF9FEFAFEFBFE004C088EF9FEFDA
:1032D000A0E0B0E0481759076A077B0780F2F501C4
:1032E000C082D182E282F38281E00F900F900F9032
:1032F0000F90DF91CF911F910F91FF90EF90DF9092
:10330000CF90BF90AF907F906F905F904F90089557
:10331000CF93DF93EC0180E2689FF0011124E65423
:10332000FD4F6A8B80910E0190910F01A0911001C9
:10333000B09111018E879F87A88BB98B44895589DD
:1033400060E070E0BA0155274427828D938DA0E09C
:10335000B0E0482B592B6A2B7B2B4F8B588F698FF2
:103360007A8F8385887151F4848D958DA68DB78D64
:103370008B8B9C8BAD8BBE8B81E00EC0803111F0AE
:1033800080E015C09E012D5E3F4F8B8D9C8D0E946D
:103390001F198823A9F384E08D8381E08C831E822A
:1033A0001F82188619861A861B861C861D86DF9149
:1033B000CF910895AF92BF92CF92DF92EF92FF929A
:1033C0000F931F93CF93DF93CDB7DEB72B970FB635
:1033D000F894DEBF0FBECDBF6C01FE013196CE0169
:1033E0000C967F0120E22193E817F907E1F7DA0153
:1033F00020E037E09D91992331F19E3231F43A304B
:1034000009F4AAC028E03AE0F5CFE6E4F2E08491BE
:10341000882321F031969813FACF9EC0321708F412
:103420009BC08FED890F8E3508F096C081E0820F2A
:10343000F701E20FF11D2FE9290F2A3108F490520C
:103440009083282FD7CF8981803209F485C08B01E2
:10345000FB01838D948DF601948F838FFB0116827F
:103460001782108611861286138614861586B12C53
:10347000F80182859385A485B5854389548965893A
:10348000768984179507A607B70708F065C025E079
:10349000B695A795979587952A95D1F7F82FFF7040
:1034A000AF2EF8018581823008F456C0C8010E9411
:1034B0008D0897FD51C0F80182859385A485B58557
:1034C0004F96A11DB11D82879387A487B587F0E22F
:1034D000AF9EB001112466547D4F61157105E1F175
:1034E000FB0180818823F1F0853E99F14BE050E0AB
:1034F000C7010E949B21892B09F0BACF6A2DC60112
:103500002B960FB6F894DEBF0FBECDBFDF91CF91E3
:103510001F910F91FF90EF90DF90CF90BF90AF90F1
:103520000C948819B11018C0F601A28A80910E017E
:1035300090910F01A0911001B0911101868797879A
:10354000A08BB18BFB018081882331F0BB24B39425
:103550008FCFB110FBCFE8CF80E02B960FB6F89459
:10356000DEBF0FBECDBFDF91CF911F910F91FF90B6
:10357000EF90DF90CF90BF90AF900895DF92EF92E1
:10358000FF920F931F93CF93DF93D82EF92EE42E43
:10359000062F10E0C8010196880F0E94210C83E0DD
:1035A0000E94210CCD2DDF2D0C0F1D1FC017D10740
:1035B00089F0E7FE03C0FE01849101C088810E946A
:1035C000210CF82E80E00E94210C8F212196811180
:1035D000EDCF01C081E0DF91CF911F910F91FF905E
:1035E000EF90DF900895CF93DF93CDB7DEB7CE573E
:1035F000D1090FB6F894DEBF0FBECDBF789484B565
:10360000826084BD84B5816084BD85B5826085BDDE
:1036100085B5816085BD80916E00816080936E006C
:10362000109281008091810082608093810080915E
:10363000810081608093810080918000816080930F
:103640008000809191008260809391008091910030
:1036500081608093910080919000816080939000C0
:103660008091C10084608093C1008091C10082601C
:103670008093C1008091C10081608093C1008091DE
:10368000C30081608093C3008091C00082608093FA
:10369000C0008091C20081608093C20080917A0056
:1036A000846080937A0080917A00826080937A00AF
:1036B00080917A00816080937A0080917A0080689E
:1036C00080937A001092B6021092AA021092A90278
:1036D0008091D70081608093D70080EA8093D800E2
:1036E00089B5806189BD89B5826089BD09B400FE54
:1036F000FDCF61E070E080E090E00E94781680915C
:10370000D8008F7C80618093D8008091E000807F1A
:103710008093E0008091E1008E7E8093E1008DE057
:103720008093E200559A209A6DE772E0CE018758A7
:103730009F4F0E94D70D6DE772E0CE0187589F4FD3
:103740000E94A10D8E010F5F1F4FEF968EAD9FADB2
:10375000EF978830910508F042C062E08E5F0E94CA
:103760003C16EE962FADEE972E5F30E0F901E95D45
:10377000FD4F8491F901E85FFD4FF490F901E751A5
:10378000FE4FE490EE20A1F081110E94D015EE2DA5
:10379000F0E0EE0FFF1FE154FE4FA591B491EC91C4
:1037A000FE2231E020E009F430E0832F922F02C0A6
:1037B00080E090E04AE0B80121E082270E940E1FDD
:1037C000F80101900020E9F73197AF01401B510B40
:1037D000B801CE0187589F4F0E94400DB6CF80910F
:1037E000EB04882321F086EE94E00E946C06109290
:1037F000C7041092C5041092C2041092C1048AE05A
:103800008093C0040E944C138B0161E08091C0043E
:103810000E943C1661E08091C0040E940D16FFB624
:10382000F8948091AB02811127C0EAEFF1E0849116
:10383000E9E1F2E09491E82FF0E0EE0FFF1FE3538F
:10384000FE4FA591B491EC91E92321F461E081E16F
:103850000E940D1661E081E10E943C168CB58061EA
:103860008CBD8CB580648CBD61E08FE00E943C16FD
:1038700061E080E10E943C168091AB028F5F8093F3
:10388000AB02FFBE82E58093BA041092BB04809124
:10389000BA049091BB040E9490042AE0F22E8FEFAC
:1038A0000E945104FA94F110FACF8CEB94E00E943C
:1038B000930420E030E0A90160E08CEB94E00E94EA
:1038C000A904F82E8093C60481E0F81649F00E94FE
:1038D0004C13601B710B613D774058F381E056C07B
:1038E0002AEA31E040E050E068E08CEB94E00E948E
:1038F000A90482FF03C0F092C70410C094E0F92E1F
:103900000E9458048093C604FA94F110F9CF8A3AC1
:1039100011F082E03BC082E08093C7048091C7042D
:10392000823021F0C12CD12C760105C0C12CD12CC4
:10393000E12C80E4F82E20E030E0A90167E38CEB75
:1039400094E00E94A904A701960169E28CEB94E03F
:103950000E94A9048093C604882349F00E944C1356
:10396000601B710B613D774030F388E00FC08091A0
:10397000C704823001F520E030E0A9016AE38CEB56
:1039800094E00E94A904882341F086E08093C1045A
:103990008CEB94E00E94460462C10E945804807C33
:1039A000803C19F483E08093C7040E9458040E946D
:1039B00058040E9458048CEB94E00E94460480E571
:1039C0008093BA041092BB0481E00E94741488238F
:1039D00041F086EE94E00E942014882309F43FC150
:1039E00007C080E00E947414882309F438C1F1CF25
:1039F000BE0167587F4FCE018D589F4F0E94BD0D6D
:103A000044E050E062E672E0CE018D589F4F0E9484
:103A1000400D882309F430C1E5968EAC9FACE59744
:103A200019A218A287E691E09F8F8E8F1BA21C829D
:103A30001B829A8389831E828E01025E1F4FC801FA
:103A40000E9420145401CE0101967C0118012C0122
:103A50006FE270E0C5010E94B121009709F441C0F6
:103A6000F50120812F3221F4FFEFAF1ABF0AF0CF0A
:103A70008A198D3008F08CE0C82ED12CA601B50132
:103A8000CE01885A9F4F0E94CC21E8E5F0E0EC0F70
:103A9000FD1FEC0DFD1D1082C7010E946C06F70191
:103AA0008581882351F01EAE1DAE87E691E09CAF64
:103AB0008BAF21961FAE21971CC0AE01485A5F4FB5
:103AC000B101C7010E94DA19882369F3AC0CBD1C4F
:103AD000C1010E946C06922D832D1701E92EF82E4C
:103AE000B7CF350168187908B101CE01CB960E9495
:103AF0003C08860C971CF4018081811109C0BE012D
:103B0000655C7F4FC2010E943C0847E652E03AC024
:103B100019A218A287E691E09F8F8E8F1BA2219693
:103B20008FAD219781111CC06C961FAE1EAE6C9795
:103B300088EE93E0A0E0B0E0A0968CAF9DAFAEAF72
:103B4000BFAFA09785E291E06A969FAF8EAF6A976C
:103B5000E3961FAE1EAEE397A5961FAEA59718C0BD
:103B6000A401BE01655C7F4FC8010E94DA19882359
:103B7000D9F2CE01CB960E946C06B801C2010E9418
:103B80003C08A401B201CE01885A9F4F0E94EA1856
:103B9000CE018D589F4F0E94B80DE396EEADFFAD5C
:103BA000E397309709F45BC08581882309F457C0F7
:103BB00064EF71E080E090E00E9478166DE772E0BB
:103BC000C8010E94D70DCE01885A9F4F0E946E01F6
:103BD000892B11F1CE01885A9F4F0E9476098A30B5
:103BE00081F4B801C2010E94BD0DC2010E94B2164B
:103BF000C2010E94B80D6DE772E0C8010E94A10DDC
:103C0000E2CF8D3001F389831A8241E050E0B201A6
:103C1000C8010E94400DD7CFB801C2010E94BD0D5E
:103C2000C2010E94B216C2010E94B80DE3968EAD89
:103C30009FADE397009761F00E946C06E3968EAD0E
:103C40009FADE3970E944720E3961FAE1EAEE39719
:103C500086EE94E00E946C06C8010E94B80DCE0169
:103C600087589F4F0E94B80D00E010E00115110524
:103C7000E9F30E940000FACFCE018D589F4F0E94B9
:103C80006E0DCACE10922D0510922C0588EE93E091
:103C9000A0E0B0E080932E0590932F05A09330050F
:103CA000B093310585E591E090932B0580932A052B
:103CB0008FEF9FEF909337058093360580E58093D3
:103CC000BA041092BB041092C1041092C204109264
:103CD000C5041092C70482E090E0A0E0B0E08093B9
:103CE000C8049093C904A093CA04B093CB04109263
:103CF000DF041092E9041092E80487E691E09093C3
:103D0000E7048093E6041092EB04109221051092D0
:103D1000200583E791E090931F0580931E05809115
:103D20008005811113C010927B0510927A0586E5FB
:103D300092E090937D0580937C058FE290E09093D4
:103D40007F0580937E0581E0809380058091160534
:103D5000811105C00E94741881E080931605E091DE
:103D60001005F0911105309739F48AE795E09093AA
:103D70001105809310050AC080819181009711F090
:103D8000FC01FACF8AE795E09183808320911205A8
:103D90003091130580917E0590917F05820F931FCE
:103DA00090931305809312050895009769F0FC0124
:103DB00001900020E9F73197AF01481B590BBC0176
:103DC0008EE195E00C94EF0180E090E008951F9360
:103DD000FC0199278827BC01E89411911032E9F37E
:103DE000193010F01E30C8F31B3251F01D3249F467
:103DF000689406C00E94191F610F711D811D911DDD
:103E0000119110531A30B0F33EF49095809570954F
:103E100061957F4F8F4F9F4F1F910895BB274A3069
:103E200031F4992322F4BDE2909581959F4F0C9433
:103E30002F1F592F482F372F262F660F771F881FC8
:103E4000991F660F771F881F991F620F731F841FAA
:103E5000951F660F771F881F991F0895BB27FB01C9
:103E60005527AA27880F991FAA1FA41710F0A41B73
:103E700083955051B9F7A05DAA3308F0A95DA193CD
:103E8000009779F7B111B1931192CB010C94481FAF
:103E9000DC01FC01672F71917723E1F7329704C0B1
:103EA0007C916D9370836291AE17BF07C8F308953C
:103EB0000E949A1FA59F900DB49F900DA49F800D06
:103EC000911D112408952F923F924F925F926F920D
:103ED0007F928F929F92AF92BF92CF92DF92EF929A
:103EE000FF920F931F93CF93DF93CDB7DEB7CA1B1B
:103EF000DB0B0FB6F894DEBF0FBECDBF09942A8846
:103F0000398848885F846E847D848C849B84AA84ED
:103F1000B984C884DF80EE80FD800C811B81AA817A
:103F2000B981CE0FD11D0FB6F894DEBF0FBECDBF45
:103F3000ED010895A29FB001B39FC001A39F700D32
:103F4000811D1124911DB29F700D811D1124911DA1
:103F50000895EE0FFF1F0590F491E02D09940F9343
:103F60001F93CF93DF938230910510F482E090E0AD
:103F7000E0918A05F0918B0520E030E0A0E0B0E010
:103F8000309719F1408151810281138148175907F7
:103F9000C8F08417950769F4109731F012960C93C6
:103FA000129713961C9327C000938A0510938B05D4
:103FB00022C02115310519F04217530718F49A0150
:103FC000BD01EF01DF01F801DBCF21153105F9F06B
:103FD000281B390B2430310580F48A819B816115BF
:103FE000710521F0FB019383828304C090938B05BC
:103FF00080938A05FE01329644C0FE01E20FF31F52
:104000008193919322503109398328833AC02091BA
:10401000880530918905232B41F420911B013091B3
:104020001C01309389052093880520911901309156
:104030001A012115310541F42DB73EB740911D01FC
:1040400050911E01241B350BE0918805F0918905E4
:10405000E217F307A0F42E1B3F0B2817390778F05F
:10406000AC014E5F5F4F2417350748F04E0F5F1FBE
:1040700050938905409388058193919302C0E0E0B5
:10408000F0E0CF01DF91CF911F910F910895CF9371
:10409000DF93009709F481C0FC01329713821282EA
:1040A000A0918A05B0918B05109781F42081318110
:1040B000820F931F209188053091890528173907B1
:1040C00051F5F0938905E093880567C0ED0120E084
:1040D00030E0CE17DF0740F44A815B819E01411535
:1040E0005105F1F0EA01F5CFD383C28340815181BC
:1040F000840F951FC817D90759F488819981840FB7
:10410000951F0296918380838A819B81938382830A
:104110002115310529F4F0938B05E0938A053DC004
:10412000E901FB83EA8349915991C40FD51FEC172C
:10413000FD0761F480819181840F951F0296E9014A
:1041400099838883828193819B838A83E0E0F0E076
:1041500012968D919C911397009719F0FD01DC0147
:10416000F7CF8D919C9111979D012E5F3F4F820F4C
:10417000931F20918805309189052817390769F424
:10418000309729F410928B0510928A0502C0138291
:104190001282B0938905A0938805DF91CF9108958D
:1041A000A0E0B0E0E6EDF0E20C94671FEC010097B0
:1041B00021F4CB010E94AF1FB4C0FC01E60FF71F32
:1041C0009C0122503109E217F30708F4A8C0D90175
:1041D0000D911C91119706171707B0F005301105C6
:1041E00008F49BC0C80104978617970708F495C088
:1041F00002501109061B170B019311936D937C93C9
:10420000CF010E94472089C05B01A01AB10A4C016E
:10421000800E911EA0918A05B0918B05612C712CA6
:10422000E12CF12C109709F446C08D919C911197C7
:10423000A815B905B1F56C0142E0C40ED11CCA1431
:10424000DB0478F14C018A189B08640142E0C40E3B
:10425000D11C1296BC9012971396AC91B5E0CB1678
:10426000D10440F0B282A38391828082D9016D9300
:104270007C9309C00E5F1F4F800F911FF90191833E
:104280008083EB2DFA2FE114F10431F0D70113965E
:10429000FC93EE93129741C0F0938B05E0938A054F
:1042A0003CC06816790608F43C017D0112960D9019
:1042B000BC91A02DB7CF8091880590918905881673
:1042C0009906E1F466167706C8F480911901909179
:1042D0001A01009741F48DB79EB740911D0150918E
:1042E0001E01841B950BE817F907C8F4F0938905A4
:1042F000E0938805F901718360830FC0CB010E94B0
:10430000AF1F7C01009759F0A801BE010E94A821AF
:10431000CE010E944720C70104C0CE0102C080E048
:1043200090E0CDB7DEB7EEE00C94831F81E090E023
:10433000F8940C94F521FB01DC0104C08D910190EF
:10434000801921F441505040C8F7881B990B0895FB
:10435000FB01DC0102C001900D9241505040D8F7A2
:104360000895FC018191861721F08823D9F79927B8
:1043700008953197CF010895FB01DC018D910190E3
:1043800080190110D9F3990B0895FB01DC0101900C
:104390000D920020E1F70895FB01DC0141505040EF
:1043A00048F001900D920020C9F701C01D924150C4
:1043B0005040E0F70895FB0151915523A9F0BF014A
:1043C000DC014D9145174111E1F759F4CD01019000
:1043D000002049F04D9140154111C9F3FB014111F5
:0E43E000EFCF81E090E001970895F894FFCFB1
:1043EE00FFFFFFFF00E1000000000000F401FFFFEF
:1043FE00FFFF00C1808100000000008C05800000DE
:10440E0000000000008F0120081B0278066E017666
:10441E0009800900000000A5015E021E02CC010009
:10442E0000000025136D0C1B02200C2513251325EF
:10443E001300000000970C1E0FB80CAD0CBD0C2223
:10444E000DFE0C000000000F086D0C1B02200C006E
:10445E00000000400AEF011B02200C0000000025A6
:10446E00136D0C1B02200C454E5445520043545202
:10447E004C00534849465400414C5400475549009E
:10448E0055504152524F5700444F574E4152524F82
:10449E0057004C4546544152524F570052494748D7
:1044AE00544152524F570050414745444F574E00CA
:1044BE00434150534C4F434B0044454C45544500EB
:1044CE00484F4D450045534300494E534552540005
:1044DE0054414200454E44004631004632004633B8
:1044EE000046340046350046360046370046380052
:1044FE0046390046313000463131004631320042F5
:10450E004C4B31303000753235383800424C4B3719
:10451E003500753235393300424C4B35300075322B
:10452E0035393200424C4B32350075323539310057
:10453E004C45465400524947485400504147455552
:10454E0050002E747874002F002000535452494EA0
:10455E004700535452494E474C4E000D0A004445F5
:10456E004641554C545F44454C41590052454D000F
:00000001FF
