:100000000C9445010C946D010C946D010C946D01E0
:100010000C946D010C946D010C946D010C946D01A8
:100020000C946D010C946D010C940F0E0C949D0FAB
:100030000C946D010C946D010C946D010C946D0188
:100040000C946D010C946D010C946D010C946D0178
:100050000C946D010C946D010C946D010C94EB0BE0
:100060000C946D010C946D010C946D010C946D0158
:100070000C946D010C946D010C946D010C946D0148
:100080000C946D010C946D010C946D010C946D0138
:100090000C946D010C946D010C946D010C946D0128
:1000A0000C946D010C946D010C946D0149164C1665
:1000B0003B163F1645166D166D166D1650165416E6
:1000C00058165E1662166D166816000000000000D5
:1000D00000002A2B280000000000000000000000A3
:1000E000000000000000000000002C9EB4A0A1A2AF
:1000F000A434A6A7A5AE362D3738271E1F202122EF
:1001000023242526B333B62EB7B89F8485868788E7
:10011000898A8B8C8D8E8F909192939495969798D7
:10012000999A9B9C9D2F3130A3AD35040506070895
:10013000090A0B0C0D0E0F101112131415161718B7
:10014000191A1B1C1DAFB1B0B50000000000230040
:10015000260029002C002F00080B000202020100DB
:10016000090400000102020000052400100105241A
:10017000010101042402060524060001070581038C
:1001800010004009040100020A00000007050202F5
:100190004000000705830240000004030904120127
:1001A0000002EF02014041233680000101020301F9
:1001B00041726475696E6F204C4C430041726475E6
:1001C000696E6F204C656F6E6172646F0000000095
:1001D00000240027002A002D003000000000002528
:1001E0000028002B002E0031000404040404030442
:1001F00005020202020403020202020606060606C5
:1002000006040402020204040408020110408040B3
:10021000102040804080080204018040201002012C
:10022000108010204040200000000200090F000054
:10023000030401000C0000000000000000000000AA
:100240000000000000007C3C3E5E2B3D3F2F5B5DCC
:100250003B2C2A225C0005010906A1018502050745
:1002600019E029E71500250175019508810295011E
:100270007508810395067508150025730507190093
:1002800029738100C000FB1D6F1A11241FBECFEF20
:10029000DAE0DEBFCDBF26E0A8E8B2E001C01D92E3
:1002A000AE33B207E1F712E0A0E0B1E0E0EEF4E433
:1002B00002C005900D92A838B107D9F711E0C4E447
:1002C000D1E004C02197FE010E940920C334D10768
:1002D000C9F70E947E1A0C9463220C940000DC0182
:1002E0005996ED91FC915A973097B9F0838994898A
:1002F000A589B6894285538564857585841B950BD0
:10030000A60BB70B811520E89207A105B10538F0BF
:100310008FEF9FE7A0E0B0E0089580E090E00895BF
:10032000CF93DF931F92CDB7DEB76983DC01ED91E8
:10033000FC910280F381E02D41E050E0BE016F5F4F
:100340007F4F09950F90DF91CF910895DC01FB015C
:1003500012968C91129790E0248135818217930731
:10036000D1F491818081813A31F481E0913091F032
:10037000933089F411C0813271F49B3021F4828171
:100380001F968C9305C09A3031F4828150968C93DD
:1003900081E00895089580E00895DC01FB0188E480
:1003A000808389E4818384E482831D969C911D97D8
:1003B0009F709F5B93831D968D919C911E9724E067
:1003C000969587952A95E1F78F708F5B848385E0FA
:1003D0000895FC0182818F5BFB01808381E0089599
:1003E000CF92DF92EF92FF920F931F93CF93DF9301
:1003F0006C01EB017B01E40EF51E00E010E0CE1570
:10040000DF0581F069916D30D1F3D601ED91FC915A
:100410000190F081E02DC6010995892B19F00F5F3D
:100420001F4FEDCFC801DF91CF911F910F91FF902A
:10043000EF90DF90CF90089580E090E00895EF92E4
:10044000FF920F931F93CF93DF93FB0120812138FD
:1004500051F52381223239F5DC0112962C9130E0DE
:100460004481558142175307F1F4EC010B851C853B
:10047000E12CF12C0115110591F0F8014481558111
:100480006281738180E80E94810E8F3FFFEF9F079A
:1004900069F0E80EF91ED8010D911C91EBCF81E0B7
:1004A0008F87C70105C080E090E002C08FEF9FEF0B
:1004B000DF91CF911F910F91FF90EF900895CF930F
:1004C000DF93CDB7DEB769970FB6F894DEBF0FBEE6
:1004D000CDBFFC01DB018C918F5F8C93BE016F5F00
:1004E0007F4F89E1DB011D928A95E9F729E0298395
:1004F00084E08A8391E09D8383E08E832A8721E2D2
:100500002B879C879D879F8722E2288B27E02B8B58
:1005100025E02C8B8E8B20E430E0388F2F8B998F49
:1005200082818B8395858685998B8A8B8381806870
:100530008D8B49E150E080E00E94810E69960FB6F4
:10054000F894DEBF0FBECDBFDF91CF910895CF935A
:10055000DF93EC018D81882379F18C8187FF28C09E
:100560006E857F858889998941E00E9416128823CB
:1005700019F1EA8980E2E89FF0011124EE54FD4F61
:100580003097D1F08D81823040F48B899C89AD8980
:10059000BE89848F958FA68FB78F8F89988DA98DEF
:1005A000BA8D938F828FB58BA48B8C818F778C8340
:1005B000DF91CF910C94DB1180E0DF91CF91089512
:1005C000FC01818D928D009711F00C94A702089583
:1005D0008F929F92AF92BF92CF92DF92EF92FF9253
:1005E0000F931F93CF93DF93EC018D81811102C094
:1005F00080E078C00B891C892D893E890417150776
:1006000026073707A8F36A017B01823029F4CA86DE
:10061000DB86EC86FD860DC0C114D104E104F10433
:1006200051F41E821F82188619861A861B861C8624
:100630001D8681E057C08A849B84AC84BD84EB8D89
:10064000FC8D258530E0275F3F4FB501A401415067
:10065000510961097109022E04C076956795579575
:1006600047950A94D2F7D701C6010197A109B109AC
:1006700004C0B695A795979587952A95D2F78417C4
:100680009507A607B70720F089288A288B2871F4D8
:100690004F89588D698D7A8D4E835F8368877987FE
:1006A0004C015D018E010A5F1F4F16C0841B950B24
:1006B000A60BB70BF5CF4E815F81688579859801D0
:1006C0008B8D9C8D0E94001391E0891A9108A108DE
:1006D000B108882309F48CCF81149104A104B104DA
:1006E00051F795CFDF91CF911F910F91FF90EF9030
:1006F000DF90CF90BF90AF909F908F900895CF9351
:10070000DF93EC010E94A702882311F01D8281E093
:10071000DF91CF9108953F924F925F926F927F92B7
:100720008F929F92AF92BF92CF92DF92EF92FF9201
:100730000F931F93CF93DF93CDB7DEB72C970FB6F0
:10074000F894DEBF0FBECDBF5C01DC015B968D90DF
:100750009C905C971696CD90DD90ED90FC9019974B
:10076000C114D104E104F10439F0BFEFCB1ADB0A64
:10077000EB0AFB0A312C07C0F401C080D180E28073
:10078000F38033243394F40181859285A385B48565
:100790009C01AD012F5F3F4F4F4F5F4F29873A8735
:1007A0004B875C87260137011D821E821F821886B7
:1007B000F40181859285A385B4852D813E814F8189
:1007C0005885281739074A075B0708F063C08985F1
:1007D0009A85AB85BC858C159D05AE05BF0550F48B
:1007E00082E0C82ED12CE12CF12C92E0492E512C24
:1007F000612C712C9E012F5F3F4FB701A601C401F0
:100800000E940013882309F445C089819A81AB8135
:10081000BC81892B8A2B8B2B41F0260137019FEF5E
:10082000491A590A690A790A05C0C414D504E604AC
:10083000F70491F02D813E814F8158852F5F3F4F06
:100840004F4F5F4F2D833E834F8358873FEFC31A2F
:10085000D30AE30AF30AACCF0FEF1FEF2FEF3FE00D
:10086000B301A201C4010E945F12882399F0D5014F
:1008700016964D915D916D917C9119974115510599
:100880006105710549F093018201C4010E945F1264
:10089000811102C080E02AC0D50116964D925D926A
:1008A0006D927C921997332051F0D301C2010196C9
:1008B000A11DB11DF40180839183A283B383F5014F
:1008C0008789908DA18DB28D892B8A2B8B2B69F412
:1008D000D50157964D925D926D927C925A971496DF
:1008E0008C911497806814968C9381E02C960FB6A7
:1008F000F894DEBF0FBECDBFDF91CF911F910F9156
:10090000FF90EF90DF90CF90BF90AF909F908F902F
:100910007F906F905F904F903F9008958FB7F894BD
:1009200080918A028FBF089561E0FC0184810E945A
:100930006E168091890281111092890208958EBDF0
:1009400000000DB407FEFDCF8EB508958FEF0C9417
:100950009F040F931F93CF93DF93EB010E94DF0B54
:100960008B010E94A6048F3F49F00E94DF0B601BA1
:10097000710B6C177D07A8F380E001C081E0DF9167
:10098000CF911F910F910895CF93DF93EC018E814A
:10099000882389F08F8198859C012F5F3F4F38878E
:1009A0002F838230924018F40E94A604F3CFCE0128
:1009B0000E9494041E82DF91CF9108958CBD9DBD4D
:1009C0000895CF93DF93EC0180918902811109C0D2
:1009D00081E0809389028091B2049091B3040E94D7
:1009E000DE0460E08C81DF91CF910C946E168F92C3
:1009F0009F92AF92BF92FF920F931F93CF93DF937B
:100A0000EC01F62E49015A010E94C404CE010E9455
:100A1000E1046CE271E0CE010E94A9048F2D806494
:100A20000E949F0408E110E0D501C401002E04C01B
:100A3000B695A795979587950A94D2F70E949F043B
:100A400008501109083F8FEF180771F7FF2029F0B0
:100A500088E0F81204C087E803C085E901C08FEF81
:100A60000E949F0410E00E94A6048A8787FF04C0AA
:100A70001F3F11F01F5FF7CFDF91CF911F910F91B3
:100A8000FF90BF90AF909F908F900895AF92BF92CC
:100A9000CF92DF92EF92FF920F931F93CF93DF934A
:100AA000EC016901C801820F931F8130924008F068
:100AB00070C08E81882371F088819981AA81BB8161
:100AC00084179507A607B70729F48F819885C8165C
:100AD000D906B0F5488359836A837B838B8583303D
:100AE00039F089E0440F551F661F771F8A95D1F7AB
:100AF0009A01AB0161E1CE010E94F704882319F04D
:100B000083E08D8346C00E94DF0B5B010E94A60438
:100B10008A878F3F49F40E94DF0B6A197B096D3287
:100B20007140A0F38FE003C08E3F31F08DE08D83E4
:100B3000CE010E9494042DC018861F8281E08E830E
:100B40008F8198858C159D0540F40E94A6048F81A5
:100B50009885019698878F83F3CF6701E00EF11E89
:100B6000EC14FD0431F00E94A604F60181936F019C
:100B7000F7CF8F819885080F191F18870F838985F4
:100B8000882319F00115124048F0CE010E94C404D8
:100B900005C0CE010E94940480E001C081E0DF9195
:100BA000CF911F910F91FF90EF90DF90CF90BF906A
:100BB000AF900895EF92FF920F931F93CF93DF931F
:100BC000EC017901411551056105710511F482E1CE
:100BD0003CC08B85833039F089E0440F551F661F78
:100BE000771F8A95D1F79A01AB0168E1CE010E9487
:100BF000F704882311F084E028C08EEF0E949F0440
:100C000087018EEFF81AF80181918F010E949F04ED
:100C1000E016F106C1F78FEF0E949F048FEF0E944C
:100C20009F040E94A6048A878F71853031F081E18C
:100C30008D83CE010E94940409C068E572E0CE0164
:100C40000E94A904811107C085E18D83CE010E9415
:100C5000940480E014C020E030E0A9016DE0CE01F2
:100C60000E94F704811109C00E94A604811105C0E9
:100C7000CE010E94940481E002C084E1E6CFDF91BE
:100C8000CF911F910F91FF90EF9008952F923F9277
:100C90004F925F926F927F928F929F92AF92BF928C
:100CA000CF92DF92EF92FF920F931F93CF93DF9338
:100CB00000D000D0CDB7DEB78C015B011A01DC019A
:100CC00015968C9115978130C9F414968C9181FFFB
:100CD00015C082FF1DC0F801438954896589768952
:100CE00082859385A485B58584179507A607B707E0
:100CF00079F0C8010E94E80281110AC081E090E009
:100D0000D80113969C938E93129780E090E036C1A1
:100D1000610183C05B968D919C915C97FC0174800E
:100D20002FEF270D2A013B0139E076946794579401
:100D300047943A95D1F7722E74207A01F1E0FF22A0
:100D4000772009F476C080E092E08E199F09460171
:100D50008C159D0508F44C01D8015B962D913C91B2
:100D60005C9716968D919D910D90BC91A02D029748
:100D7000A109B109F901058404C0880F991FAA1FB0
:100D8000BB1F0A94D2F74685578560897189840F05
:100D9000951FA61FB71F9C01AD01270D311D411DD9
:100DA000511D29013A01811432E0930609F088C0EF
:100DB00080910E0190910F01A0911001B09111014D
:100DC000481659066A067B0659F48FEF9FEFDC013F
:100DD00080930E0190930F01A0931001B093110125
:100DE0009501B301A2018091AF029091B0020E94DF
:100DF000DA05882309F482CF9EEFB91AC818D908FA
:100E0000F80182859385A485B585880D991DA11D5E
:100E1000B11D82879387A487B587D8011A964D9113
:100E20005D916D917C911D97C114D10409F072CF31
:100E300087C0E114F10409F086CF16964D915D91BB
:100E40006D917C911997411551056105710559F412
:100E500057968D919D910D90BC91A02D0097A10565
:100E6000B10541F521C09E012F5F3F4F0E94001345
:100E7000882309F44BCF89819A81AB81BC81F80129
:100E8000238D348DF9012789203129F048EF5FEF58
:100E90006FEF7FE004C048EF5FEF60E070E0841721
:100EA0009507A607B70730F0C8010E948B03811190
:100EB0004ACF24CFF80186839783A087B18743CF99
:100EC000E114F10429F5D8011A964D915D916D91C7
:100ED0007C911D9753968D919D910D90BC91A02D65
:100EE000481759076A077B0798F00E94DB1188238F
:100EF00009F404CF40920E0150920F01609210014C
:100F0000709211018091B10281608093B10208C09A
:100F100041E0C301B2010E941612882309F4EECE0B
:100F2000D501F701EE54FD4F9F01280D391D2E17F5
:100F30003F0719F08D918193FACFA80CB91C5ECFB1
:100F4000F80183899489A589B68984179507A6072E
:100F5000B70738F4438B548B658B768B848180681C
:100F60008483F801848183FD02C0C10107C0C801E8
:100F70000E94A702882309F4C1CEF7CF0F900F90EB
:100F80000F900F90DF91CF911F910F91FF90EF90F5
:100F9000DF90CF90BF90AF909F908F907F906F9099
:100FA0005F904F903F902F900895CF93DF93EC0187
:100FB000898D9A8D009739F481E090E09B838A8334
:100FC00080E090E00BC0FC01138212820E94460672
:100FD000E98DFA8D22813381232B71F7DF91CF9137
:100FE0000895FC01DB0112968D919C9113979383D8
:100FF000828384E891E09183808314968C91149786
:10100000848315968C911597858316964D915D91E5
:101010006D917C91199746835783608771871A96E3
:101020004D915D916D917C911D97428753876487A7
:1010300075871E964D915D916D917C915197468774
:101040005787608B718B52968C915297828B5396F7
:101050004D915D916D917C915697438B548B658B2F
:10106000768B57964D915D916D917C915A97478BF8
:10107000508F618F728F5B968D919C915C97948F4E
:10108000838F08954F925F926F927F92AF92BF923B
:10109000CF92DF92EF92FF920F931F93CF93DF9344
:1010A0001F92CDB7DEB7FC012581222309F4C1C010
:1010B000848180FFBEC083899489A589B6894284D2
:1010C00053846484758484159505A605B70509F4D1
:1010D000B0C06F015201F1E0BF22D6015B968D9145
:1010E0009C915C97B301A20139E07695679557957D
:1010F00047953A95D1F7223071F4FC01828D938D9A
:10110000A48DB58D8A019B01080F191F2A1F3B1F53
:10111000C901B8014AC0DC0114961C911150142376
:10112000A114B104F9F411111DC04528462847281F
:1011300051F4F6018789908DA18DB28D86839783B6
:10114000A087B1870FC0D60116964D915D916D9124
:101150007C91199796012A5F3F4F0E9400138823C4
:1011600009F467C0F601238D348D86819781A085AF
:10117000B1850297A109B109AC01BD01F90105844E
:1011800004C0440F551F661F771F0A94D2F7868547
:101190009785A089B189840F951FA61FB71FBC0131
:1011A000CD01610F711D811D911DD60114962C91E9
:1011B00026FF0DC040900E0150900F01609010016D
:1011C00070901101461657066806790699F440E0BA
:1011D0000E941612882369F1F501EE54FD4FDE01DD
:1011E00011969F012F5F3F4F2E173F0799F0819176
:1011F0008D93FACFFE0131967F0101E010E0950159
:10120000AB01BC018091AF029091B0020E944605F3
:10121000882379F0F60182859385A485B5850196AA
:10122000A11DB11D82879387A487B587898190E02E
:1012300002C08FEF9FEF0F90DF91CF911F910F9121
:10124000FF90EF90DF90CF90BF90AF907F906F9026
:101250005F904F900895FC01818D928D009711F061
:101260000C9442088FEF9FEF08950F931F93CF9335
:10127000DF93FC01818D928D0097B9F0EF010E9400
:1012800042088C010F3F8FEF180791F0898D9A8DDE
:10129000FC0142855385648575854150510961097A
:1012A00071090E94E802C80105C080E090E002C018
:1012B0008FEF9FEFDF91CF911F910F9108950F93C3
:1012C0001F93CF93DF931F92CDB7DEB78B01809131
:1012D0000E05811105C00E94E51881E080930E057E
:1012E00082E0898341E050E0BE016F5F7F4F8091D3
:1012F00000050E94A80E97FD08C08091000548E0F7
:1013000050E0B80180640E94A80E0F90DF91CF9149
:101310001F910F910895DC01683810F068582DC0B6
:10132000E62FF0E067FF11C0E058F10981E090E09E
:1013300001C0880FEA95EAF714969C911497892BBF
:1013400014968C93149760E018C0E653FF4F649195
:10135000611109C081E090E013969C938E931297DF
:1013600080E090E0089567FF08C014968C91149770
:10137000826014968C9314976F7716968C911697BB
:10138000681751F117968C911797681729F11896DD
:101390008C911897681701F119968C911997681715
:1013A000D9F01A968C911A976817B1F01B968C9108
:1013B0001B97681789F0FD01369680E090E0219137
:1013C000211105C0FD01E80FF91F668305C00196D4
:1013D00086309105A1F7BECFCD01BD016C5F7F4F77
:1013E0000E945F0981E090E00895EF92FF920F93D1
:1013F0001F93CF938C01C62F0E948B097C01C838A4
:1014000018F068E76C0F1FC0EC2FF0E0C7FF0FC0AB
:10141000E058F10981E090E001C0880FEA95EAF711
:101420008095F80194818923848360E00CC0E653A1
:10143000FF4F64916623C9F067FF05C0F8018481FE
:101440008D7F84836F77F80186E0662321F0968193
:10145000691301C01682815031968111F6CFB8010F
:101460006C5F7F4FC8010E945F09C7019927CF9128
:101470001F910F91FF90EF900895CF92DF92EF921E
:10148000FF920F931F93CF93DF9300D000D000D033
:10149000CDB7DEB78C01DC0114968D919C91159728
:1014A000019771F4ED91FC91309721F4109288022C
:1014B000E8E8F2E0608186E195E00E948B09E2C0F5
:1014C00064EA71E0CE0101960E94FA0D4D815E81C1
:1014D000F801848195818417950778F08081918146
:1014E000009759F069817A816115710531F00E9488
:1014F0002C22FF24F394892B09F0F12CCE010196C4
:101500000E948C0CFF2009F478C060E886E195E029
:101510000E948B0961E886E195E00E948B0968EAE8
:1015200071E0CE0101960E94FA0DBE016F5F7F4F00
:10153000C8010E944D19F82ECE0101960E948C0C14
:10154000FF2019F08CEA91E041C062EB71E0CE011E
:1015500001960E94FA0DBE016F5F7F4FC8010E9485
:101560004D19F82ECE0101960E948C0CFF2019F027
:1015700085EB91E02BC06BEB71E0CE0101960E94F0
:10158000FA0DBE016F5F7F4FC8010E944D19F82E02
:10159000CE0101960E948C0CFF2019F08EEB91E099
:1015A00015C064EC71E0CE0101960E94FA0DBE01F7
:1015B0006F5F7F4FC8010E944D19182FCE01019611
:1015C0000E948C0C112321F087EC91E00E946D1990
:1015D00010921C0510921D0510921E0510921F05F9
:1015E000109220051092210510921A056AE175E00B
:1015F00086E195E00E945F0945C082E2E82E85E021
:10160000F82E9FE1C92E91E0D92ED80114962D9184
:101610003C911597F701848195812817390739F591
:101620008D919C9160817181009719F06115710510
:10163000A1F46115710549F0232B99F0DB018C9120
:1016400090E09195819591090AC0009751F0232B64
:1016500041F0FC01808190E002C00E941C22892B95
:1016600031F4D6016C9186E195E00E948B09B6E0D9
:10167000EB0EF11CEFEFCE1ADE0AFCEDEF16F5E0F3
:10168000FF0619F626960FB6F894DEBF0FBECDBF43
:10169000DF91CF911F910F91FF90EF90DF90CF904E
:1016A0000895CF93DF93EC0188819981009711F021
:1016B0000E94A720198218821D821C821B821A8216
:1016C000DF91CF9108950E94F6210F931F93CF933E
:1016D000DF93EC0188819981009729F02A813B8171
:1016E0002617370788F48B016F5F7F4F0E943021E8
:1016F000009761F0998388831B830A832C813D8145
:10170000232B11F4FC01108281E001C080E0DF9105
:10171000CF911F910F910895EF92FF920F931F9316
:10172000CF93DF936115710511F480E01CC0411562
:101730005105C1F07B01EC018C819D818A01080F6C
:10174000191FB801CE010E94650B882371F328810F
:1017500039818C819D81B701820F931F0E942522C0
:101760001D830C8381E0DF91CF911F910F91FF903A
:10177000EF9008953FB7F89480919302909194026E
:10178000A0919502B091960226B5A89B05C02F3F67
:1017900019F00196A11DB11D3FBFBA2FA92F982F97
:1017A0008827820F911DA11DB11DBC01CD0142E012
:1017B000660F771F881F991F4A95D1F708952FB795
:1017C000F89460918F0270919002809191029091B3
:1017D00092022FBF08951F920F920FB60F921124FD
:1017E0002F933F938F939F93AF93BF9380918F02DB
:1017F00090919002A0919102B091920230918E024C
:1018000023E0230F2D3720F40196A11DB11D05C043
:1018100026E8230F0296A11DB11D20938E0280930E
:101820008F0290939002A0939102B09392028091C4
:10183000930290919402A0919502B0919602019624
:10184000A11DB11D8093930290939402A0939502E1
:10185000B0939602BF91AF919F918F913F912F913D
:101860000F900FBE0F901F901895FC0124813581B9
:10187000232B31F421E061157105A1F0FB0108C0B3
:10188000FC01808191816115710531F421E0FC0139
:101890008081882339F005C00E941C2221E0892B19
:1018A00009F020E0822F0895EF92FF920F931F938B
:1018B000CF93DF93EC017B018A01BA010E94650B93
:1018C000811104C0CE010E94510B07C01D830C83FF
:1018D000B701888199810E942522CE01DF91CF91A5
:1018E0001F910F91FF90EF900895CF93DF93EC013C
:1018F0006115710559F0FB0101900020E9F731975E
:10190000AF01461B570B0E94540C02C00E94510BA2
:10191000CE01DF91CF910895FC01808191810C94DB
:10192000A720BF92CF92DF92EF92FF920F931F9367
:10193000CF93DF937C016B018A01E90124173507FE
:1019400020F4812F8901C42FD82F68EE71E0C701E0
:101950000E94FA0DD60114968D919C911597081747
:101960001907C8F48C179D0708F4EC01D601ED9116
:10197000FC911197EC0FFD1FB08010826D917C914E
:10198000600F711FC7010E94750CD601ED91FC918B
:10199000EC0FFD1FB082C701DF91CF911F910F9116
:1019A000FF90EF90DF90CF90BF9008950895409101
:1019B000A9025091AA022091A7023091A8024217D1
:1019C0005307B4F49091E8009570E1F39091E8002A
:1019D00092FD19C08093F1008091A9029091AA0212
:1019E00001968F739927892B19F48EEF8093E80065
:1019F0008091A9029091AA0201969093AA028093E5
:101A0000A90281E0089580E008952FB7F8948770C7
:101A10008093E9009091E800892F807295FF04C0BF
:101A20009091F20080E4891B2FBF0895615030F03F
:101A30002091F100FC0120830196F8CF289884E6DC
:101A40008093AD020895CF92DF92EF92FF920F93B1
:101A50001F93CF93DF936C017A018B01C0E0D0E03C
:101A6000CE15DF0581F0D8016D918D01D601ED9184
:101A7000FC910190F081E02DC6010995892B11F0B0
:101A80002196EECF7E01C701DF91CF911F910F917B
:101A9000FF90EF90DF90CF900895CF93DF931F9248
:101AA000CDB7DEB76983DC01ED91FC910280F38153
:101AB000E02D41E050E0BE016F5F7F4F09950F9030
:101AC000DF91CF91089583E08093E9008091F20047
:101AD000882319F08AE38093E800089583E00E9448
:101AE000050D90E00895FC018485958597FD0BC058
:101AF0009FB7F89482E08093E9008091F2009FBF45
:101B000090E0019608959FB7F89482E08093E900F1
:101B10008091F2009FBF90E008950F931F93CF93A1
:101B2000DF931F92CDB7DEB78C01FC0184859585CC
:101B300097FF0EC0CE0101960E940316019719F47B
:101B4000898190E002C08FEF9FEFF801958784872D
:101B5000F801848595850F90DF91CF911F910F91AA
:101B60000895CF93DF931F92CDB7DEB7FC01848534
:101B7000958597FD05C02FEF3FEF358724870BC074
:101B8000CE0101960E940316019719F4898190E015
:101B900002C08FEF9FEF0F90DF91CF910895CF9309
:101BA000DF931F92CDB7DEB7698341E050E0BE01FD
:101BB0006F5F7F4F0E9446060F90DF91CF9108958F
:101BC000FB01DC0111961C921E9213961C921E9230
:101BD000129715961C921E9214978617970749F034
:101BE000608171816115710521F0448155810C94EA
:101BF000540C0895FC011182108213821282158206
:101C000014826115710551F0FB0101900020E9F784
:101C10003197AF01461B570B0C94540C08951F923B
:101C20000F920FB60F9211248F939F938091E10032
:101C30009091E100937F9093E10083FF0FC0109299
:101C4000E90091E09093EB001092EC0092E3909306
:101C5000ED001092AE0298E09093F00082FF20C059
:101C600093E09093E9009091F200992319F09AE3A0
:101C70009093E8009091AC02992339F09091AC02D6
:101C800091509093AC02992389F19091AD029923E0
:101C900039F09091AD0291509093AD02992341F1AA
:101CA00084FF10C08091E2008E7E81608093E2000C
:101CB0008091E1008F7E8093E10080918B028E7E87
:101CC000806111C080FF16C08091E2008E7E80612D
:101CD0008093E2008091E1008E7E8093E10080910C
:101CE0008B028E7E816080938B0204C05D9ACDCF83
:101CF000289AD6CF9F918F910F900FBE0F901F9073
:101D00001895DF92EF92FF920F931F93CF93DF937B
:101D1000D82E8A017B01E40EF51EEB01CE15DF05FE
:101D200071F0D7FE03C0FE01849101C088810E943A
:101D3000D70C21968111F2CF8FEF9FEF01C0C80120
:101D4000DF91CF911F910F91FF90EF90DF90089559
:101D50007F928F929F92AF92BF92CF92DF92EF923B
:101D6000FF920F931F93CF93DF93C82E8B017A01BD
:101D70008091AE02811103C08FEF9FEF74C08091FC
:101D80008B0280FF05C08091E00082608093E000BC
:101D9000CE2DDF2DD12C8AEFB82E8C2D8770982E6A
:101DA0008C2D8072882E8C2D8074782E9AE3A92E2B
:101DB000209719F4DD2009F451C08C2D0E94050DE7
:101DC00081110AC0BA94BB20B9F261E070E080E0F2
:101DD00090E00E94D916ECCF282F30E0C217D3072D
:101DE0000CF48C2F9FB7F8949092E9002091E800B2
:101DF00025FF32C0282F30E0C21BD30B882029F0EA
:101E00008150A0F01092F100FBCFF801C7FE0AC08C
:101E1000815050F044914093F1003196F9CF4191B7
:101E20004093F1008150D8F7020F131FDD2019F005
:101E3000A092E8000AC08091E80085FD08C0A09249
:101E4000E800DD24D394209739F0D12C05C02097E9
:101E500019F47110A092E8009FBFAACF5D9884E6A4
:101E60008093AC02C701DF91CF911F910F91FF903A
:101E7000EF90DF90CF90BF90AF909F908F907F902A
:101E80000895CF93DF93EC0180910B01882331F00B
:101E900083E00E94A80E1816190634F081E090E045
:101EA0009B838A8380E090E0DF91CF9108958091B9
:101EB0009F0281110DC082E080939B0284E0809399
:101EC0009C0210929E0210929D0281E080939F02DC
:101ED0008BE992E008950F931F93CF93DF931F92A6
:101EE000CDB7DEB782E0898342E450E068E571E077
:101EF00080E80E94810E0E94570FDC0112960D911E
:101F00001C9113970115110589F0D801ED91FC91F1
:101F10000280F381E02DBE016F5F7F4FC8010995FC
:101F200097FD04C0F80100851185ECCF89810F90E1
:101F3000DF91CF911F910F9108951F920F920FB6CD
:101F40000F921124CF92DF92EF92FF920F931F9383
:101F50002F933F934F935F936F937F938F939F93B1
:101F6000AF93BF93EF93FF93CF93DF93CDB7DEB7DC
:101F70006C97DEBFCDBF1092E9008091E80083FF2F
:101F8000FBC168E0CE0145960E94160D82EF80935A
:101F9000E8008D8987FF05C09091E80090FFFCCF95
:101FA00003C09EEF9093E800982F907609F0C6C08A
:101FB0009E894F89588D2F89F88C91110CC08038DB
:101FC00029F480918C028093F10002C01092F100FC
:101FD0001092F10045C1913051F4811141C141305D
:101FE000510509F03DC180918C028D7F0BC093306B
:101FF00061F4811135C14130510509F031C1809141
:102000008C02826080938C022BC1953049F48091C0
:10201000E80080FFFCCF822F80688093E30020C11E
:10202000963009F05EC00B8D1C8D22E01092E90005
:102030001092AA021092A902F21232C01092A802C3
:102040001092A7020E946B0F99E0BE016F5F7F4F55
:10205000DB01E92F1D92EA95E9F79983FA8291E075
:102060009E8390EA98879AEF99872091A9023091F0
:10207000AA02275F3F4F3C832B838D831092E90098
:102080001092AA021092A9021093A8020093A7022C
:1020900049E050E080E00E94810E0E946B0FE0C09A
:1020A0001093A8020093A7020E94570FDC0112961A
:1020B0000D911C9113970115110509F4BBC0D801AE
:1020C000ED91FC910480F581E02DBE016B5E7F4FA8
:1020D000C8010995009709F0C7C0F801008511856E
:1020E000EACF973009F445C1983021F481E080931C
:1020F000F100B6C0993009F0B3C0837009F039C15E
:10210000E3E1F1E081E031E096E32081211109C0B3
:102110008EE78093EA001092EA008F898093AE02E6
:102120009FC08093E9003093EB0021912093EC0055
:102130009093ED008F5F873041F7EACF8B8D9C8DB8
:102140001092E9001092AA021092A9029093A8029C
:102150008093A702898D811153C08E899D89913A00
:1021600049F4813209F005C147E050E064E071E0D4
:1021700080E0BBC0913209F0FCC0833269F48F89E2
:10218000988DA0E0B0E08093000190930101A093AE
:102190000201B093030164C0803269F48091E800C9
:1021A00082FFFCCF67E084E091E00E94160D8BEF88
:1021B0008093E80055C0823209F052C08F89809325
:1021C0000B01EEEFFFE7859194918B3F9C4D19F049
:1021D000E0E0F8E002C0EEEFFAE0809104019091B7
:1021E0000501A0910601B0910701803B9440A10533
:1021F000B10509F09EC080910B0180FF79C099C0A4
:102200000E94570FFC01028113810115110509F489
:10221000B0C0D801ED91FC910190F081E02DBE019C
:102220006B5E7F4FC801099581111AC0F8010085C6
:102230001185EBCFF1E0FF1609F44EC0F3E0FF1279
:1022400098C08F89882309F44AC0823089F440E815
:1022500060E18CEB91E00E94C61D882309F489C0DF
:102260008EEF8093E80088C018161906CCF381C061
:10227000813029F440E86BE080EB91E0ECCF8330D3
:1022800009F077C00E94570FDC011296ED90FC9088
:1022900013978E010F5F1F4F6801E114F10479F06D
:1022A000D701ED91FC910680F781E02DB801C701BF
:1022B0000995080F111DF701E084F184EECFD801D4
:1022C0001C92F60101900020E9F73197BF016C19CB
:1022D0007D0940E0C601BFCF6EE971E002C06AE946
:1022E00071E0FB01449150E080E80E94810EB8CF7C
:1022F000EE3F2AE0F20751F0808191818737A7E70E
:102300009A0721F09093FF0A8093FE0A87E797E7E8
:1023100091838083809160008093AB029BE088E191
:102320000FB6F894A895809360000FBE909360005C
:1023300097CF808191818737974709F091CFA895F2
:10234000809160008861809360008091AB028093EF
:102350006000EE3FBAE0FB0739F08091FE0A9091F1
:10236000FF0A918380837CCF1092FF0A1092FE0AAD
:1023700077CF81E28093EB006C960FB6F894DEBFC6
:102380000FBECDBFDF91CF91FF91EF91BF91AF9184
:102390009F918F917F916F915F914F913F912F917D
:1023A0001F910F91FF90EF90DF90CF900F900FBE95
:1023B0000F901F9018958091B1028823A9F1409148
:1023C0000E0150910F01609110017091110122EBEB
:1023D00032E08091AF029091B0020E94DA05811143
:1023E00002C080E008954091970250919802609158
:1023F000990270919A02411551056105710591F09C
:1024000022EB32E08091AF029091B0020E94DA0597
:10241000882339F310929702109298021092990231
:1024200010929A021092B10281E008958F929F92C9
:10243000AF92BF92EF92FF920F931F93CF934B01F6
:102440005C01C42F80910E0190910F01A0911001A9
:10245000B091110188159905AA05BB0501F10E94EB
:10246000DB11811102C080E020C082EBE82E82E007
:10247000F82E00E012E020E030E0B501A4018091E8
:10248000AF029091B0020E944605882361F38092CA
:102490000E0190920F01A0921001B0921101809153
:1024A000B102C82BC093B10281E0CF911F910F916F
:1024B000FF90EF90BF90AF909F908F9008954F92B4
:1024C0005F926F927F928F929F92AF92BF92CF92C4
:1024D000DF92EF92FF920F931F93CF93DF93EC0164
:1024E000423051056105710510F480E078C089859E
:1024F0009A85AB85BC850196A11DB11D84179507F2
:10250000A607B70790F3CB88DC88ED88FE888F8913
:10251000803129F4BB27A72F962F852F09C0DB0117
:10252000CA01E7E0B695A79597958795EA95D1F703
:10253000480159012A013B01C80ED91EEA1EFB1EA3
:1025400080910E0190910F01A0911001B0911101A5
:10255000C816D906EA06FB0681F48F898031A9F4F2
:10256000B301A201552766277727440F551FFA01AB
:10257000EE54FD4F9182808219C040E0C701B60140
:102580000E9416128111E9CFB0CFB301A2014F779B
:10259000552766277727440F551F440F551FFA010B
:1025A000EE54FD4F80829182A282B3828091B1026B
:1025B00081608093B1028A89823080F08D819E8112
:1025C000AF81B885C80ED91EEA1EFB1EC0929702C5
:1025D000D0929802E0929902F0929A0281E0DF9103
:1025E000CF911F910F91FF90EF90DF90CF90BF9010
:1025F000AF909F908F907F906F905F904F900895D5
:102600008F929F92AF92BF92CF92DF92EF92FF9202
:102610000F931F93CF93DF93FC0181859285A38550
:10262000B4850196A11DB11D84179507A607B707AC
:1026300010F480E05BC083889488A588B688878979
:10264000803129F4BB27A72F962F852F09C0DB01E6
:10265000CA01C7E0B695A79597958795CA95D1F712
:10266000E9016A017B018F01BC01CD01680D791D73
:102670008A1D9B1D80900E0190900F01A09010016B
:10268000B0901101681579058A059B0591F4F80150
:1026900087898031A1F4DD24EE24FF24C601880F50
:1026A000991FFC01EE54FD4F80819181A0E0B0E0C4
:1026B00018C040E00E9416128111E9CFBACFE89409
:1026C000C7F8DD24EE24FF24C601880F991F880F68
:1026D000991FFC01EE54FD4F80819181A281B3814D
:1026E000BF7088839983AA83BB8381E0DF91CF91F8
:1026F0001F910F91FF90EF90DF90CF90BF90AF9020
:102700009F908F900895CF93DF93FC0124813581B2
:10271000232B71F0FB01DC01CD91DC916081718193
:10272000CE010E944922009719F08C1B9D0B02C01C
:102730008FEF9FEFDF91CF910895AF92BF92CF922D
:10274000DF92EF92FF920F931F93CF93DF93CDB75A
:10275000DEB72B970FB6F894DEBF0FBECDBF6C016E
:10276000FE013196CE010C967F0120E22193E817FD
:10277000F907E1F7DA0120E037E09D91992331F183
:102780009E3231F43A3009F4AAC028E03AE0F5CF9D
:10279000E6E4F2E08491882321F031969813FACF91
:1027A0009EC0321708F49BC08FED890F8E3508F05C
:1027B00096C081E0820FF701E20FF11D2FE9290F8A
:1027C0002A3108F490529083282FD7CF8981803204
:1027D00009F485C08B01FB01838D948DF601948FE4
:1027E000838FFB011682178210861186128613864C
:1027F00014861586B12CF80182859385A485B5854C
:10280000438954896589768984179507A607B70790
:1028100008F065C025E0B695A795979587952A9508
:10282000D1F7F82FFF70AF2EF8018581823008F4C0
:1028300056C0C8010E94420897FD51C0F801828528
:102840009385A485B5854F96A11DB11D8287938779
:10285000A487B587F0E2AF9EB00111246E547D4F7E
:1028600061157105E1F1FB0180818823F1F0853E5E
:1028700099F14BE050E0C7010E94FB21892B09F040
:10288000BACF6A2DC6012B960FB6F894DEBF0FBEE5
:10289000CDBFDF91CF911F910F91FF90EF90DF900F
:1028A000CF90BF90AF900C941D1AB11018C0F601D4
:1028B000A28A80910E0190910F01A0911001B09118
:1028C000110186879787A08BB18BFB0180818823BC
:1028D00031F0BB24B3948FCFB110FBCFE8CF80E0B1
:1028E0002B960FB6F894DEBF0FBECDBFDF91CF9110
:1028F0001F910F91FF90EF90DF90CF90BF90AF901E
:102900000895CF93DF93FC012581222311F080E00D
:1029100049C0EC018091D7048031C1F482E0858305
:10292000178A108E118E128E8091D8049091D9043E
:10293000A0E0B0E025E0880F991FAA1FBB1F2A95D1
:10294000D1F7838B948BA58BB68B19C08032F9F6A7
:1029500083E085834091DA045091DB046091DC04CC
:102960007091DD04478B508F618F728F9F012D5EB8
:102970003F4F80EC94E00E94B419882341F280EC30
:1029800094E09C8F8B8F81E08C831E821F8218863F
:1029900019861A861B861C861D861E861F86188A27
:1029A000198A1A8ADF91CF9108958F929F92AF92E0
:1029B000BF92CF92DF92EF92FF92CF93DF93C82F17
:1029C00084EB94E09093B0028093AF02CC2369F142
:1029D000C53010F080E00CC140E060E070E0CB0159
:1029E0000E9416128823B1F320E1C29FC001112476
:1029F0008E559D4FFC01E254FE4F20812F7751F7F9
:102A00003C96408151816281738144365105610554
:102A1000710500F33497C080D180E280F380C11447
:102A2000D104E104F10421F4D5CFC12CD12C7601DD
:102A300040E0C701B6010E941612882359F2809126
:102A4000BD029091BE028115924021F6A091C20272
:102A5000AA2309F4BFCF6091C0027091C102611531
:102A6000710509F4B7CF2091BF02222309F4B2CF38
:102A7000A093D2042093C40480E030E041E050E011
:102A8000C82FFA01082E02C0EE0FFF1F0A94E2F7CA
:102A90002E173F0739F08F5FC83091F789E0809398
:102AA000CD0498CF8093CD042091C8023091C90203
:102AB0002115310519F040E050E008C02091D60200
:102AC0003091D7024091D8025091D9022093C50489
:102AD0003093C6044093C7045093C804460157017D
:102AE000860E971EA11CB11C8092D3049092D40430
:102AF000A092D504B092D604E091C302F091C40232
:102B0000F093D904E093D804B0E00E94B81F860E79
:102B1000971EA81EB91E8092DA049092DB04A09240
:102B2000DC04B092DD0485E0EE0FFF1F8A95E1F72B
:102B3000E150FE4FEF2FFF27E6958E0E9F1EA11C42
:102B4000B11C8092CE049092CF04A092D004B09297
:102B5000D1042091C5023091C6022115310521F022
:102B6000A90160E070E008C04091D2025091D30208
:102B70006091D4027091D502D701C60188199909D4
:102B8000AA09BB09840F951FA61FB71F04C0B695DD
:102B9000A79597958795CA95D2F78093C904909386
:102BA000CA04A093CB04B093CC04853F2FE09207D6
:102BB000A105B10510F48CE018C0853F9F4FA10519
:102BC000B10510F480E111C08091DE029091DF0226
:102BD000A091E002B091E1028093DA049093DB04CB
:102BE000A093DC04B093DD0480E28093D70481E0FD
:102BF000DF91CF91FF90EF90DF90CF90BF90AF909B
:102C00009F908F9008952091AE02211103C08FEF05
:102C10009FEF08955FB7F89422E02093E900209198
:102C2000F20030E01216130614F421E030E0422FD7
:102C3000FC0184E6415038F028988093AD029091D1
:102C4000F1009193F7CF2115310521F08091F20029
:102C5000882319F05FBFC90108958BE68093E800CF
:102C6000F9CF90E0FC013197EF30F105B0F5EA5A69
:102C7000FF4F0C940920809180008F7703C08091D2
:102C800080008F7D80938000089580918000877FF1
:102C9000F9CF84B58F7702C084B58F7D84BD089548
:102CA000809190008F7707C0809190008F7D03C046
:102CB00080919000877F8093900008958091C0005C
:102CC0008F7703C08091C0008F7D8093C0000895EE
:102CD0008091C200877F8093C20008951F93CF9395
:102CE000DF93282F30E0F901E95DFD4F8491F90170
:102CF000E85FFD4FD491F901E751FE4FC491CC2319
:102D0000C1F0162F81110E943116EC2FF0E0EE0F6A
:102D1000FF1FE552FE4FA591B4919FB7F894111192
:102D200004C08C91D095D82302C0EC91DE2BDC93AB
:102D30009FBFDF91CF911F910895CF93DF9390E0D4
:102D4000FC01E85FFD4F2491FC01E751FE4F8491A7
:102D5000882361F190E0880F991FFC01E353FE4F37
:102D6000C591D491FC01E552FE4FA591B49161113A
:102D700009C09FB7F8948881209582238883EC91BD
:102D80002E230BC0623061F49FB7F8948881322FF4
:102D9000309583238883EC912E2B2C939FBF06C004
:102DA0008FB7F894E8812E2B28838FBFDF91CF91C6
:102DB00008958F929F92AF92BF92CF92DF92EF923F
:102DC000FF926B017C010E94BA0B4B015C01C114A4
:102DD000D104E104F104F1F00E94BA0BDC01CB0153
:102DE00088199909AA09BB09883E9340A105B10534
:102DF00070F321E0C21AD108E108F10888EE880ECC
:102E000083E0981EA11CB11CC114D104E104F1049B
:102E100019F7DDCFFF90EF90DF90CF90BF90AF908C
:102E20009F908F900895DF92EF92FF920F931F93E0
:102E3000CF93DF93CDB7DEB72C970FB6F894DEBFF4
:102E40000FBECDBF7C0164ED71E0CE0101960E9402
:102E5000FA0DBE016F5F7F4FC7010E9483138C0183
:102E6000CE0101960E948C0C0F3F8FEF180751F492
:102E7000B701CE0101960E94E00DCE0101960E949D
:102E80003D0ADBC0980140E050E0B701CE01019659
:102E90000E94910C66ED71E0CE0101960E94350C06
:102EA000D82ECE0101960E948C0CDD2081F0F70116
:102EB00024813581A8014F5F5F4FB701CE01019694
:102EC0000E94910C4D815E8169817A812CC09801AC
:102ED00040E050E0B701CE0101960E94910C6DEDEB
:102EE00071E0CE0101960E94350CD82ECE010196DC
:102EF0000E948C0CDD20E1F0F70124813581A801CE
:102F00004F5F5F4FB701CE0101960E94910C4D813A
:102F10005E8169817A8186E195E00E94F00142E05C
:102F200050E066EE71E086E195E00E94F00185C018
:102F3000980140E050E0B701CE0101960E94910C4B
:102F400069EE71E0CE0101960E94350CD82ECE01BB
:102F500001960E948C0CDD20D1F0F701248135818F
:102F6000A8014F5F5F4FB701CE0101960E94910CFF
:102F700089819A81009719F00E94471F03C060E081
:102F800070E0CB0170930D0160930C0156C0980165
:102F900040E050E0B701CE0101960E94910C61EF34
:102FA00071E0CE0101960E94350CD82ECE0101961B
:102FB0000E948C0CDD2009F443C00F5F1F4FF70106
:102FC00024813581A801B701CE0101960E94910CA0
:102FD00068EE71E0CE0101960E94350C882341F025
:102FE00060910C0170910D0180E090E010E01DC037
:102FF000F70124813581A801B701CE0107960E940F
:10300000910C8F819885009739F00E94471F562FA9
:10301000472F382F292F04C050E040E030E020E057
:10302000652F742F832F922F11E00E94D916112340
:1030300021F0CE0107960E948C0CCE010196A1C012
:10304000980140E050E0B701CE0101960E94910C3A
:1030500067EF71E0CE0101960E94350C182FCE016A
:1030600001960E948C0C11118EC0B701CE010796FB
:103070000E94E00D8B859C85892B09F480C064ED4E
:1030800071E0CE0101960E94FA0DBE016F5F7F4F85
:10309000CE0107960E9483138C01CE0101960E94F7
:1030A0008C0C0F3FFFEF1F07B1F4BE01695F7F4F2C
:1030B000CE0101960E94E00DCE0101960E943D0ACC
:1030C000CE0101960E948C0C68EE71E0CE0107964D
:1030D0000E94750C4DC0980140E050E0BE01695F50
:1030E0007F4FCE0101960E94910CCE0101960E9465
:1030F0003D0ACE0101960E948C0C2B853C85A801CF
:103100004F5F5F4FBE01695F7F4FCE0101960E9406
:10311000910C8F8198850097A9F069817A8161155A
:10312000710571F049855A852D813E8142175307FB
:1031300038F00E9425228D819E819C878B8712C04A
:103140000E94A72089819A8198878F838B819C8197
:103150009A8789878D819E819C878B871A821982A5
:103160001C821B821E821D82CE0101960E948C0C45
:1031700064EF71E080E090E00E94D9167BCFCE0131
:1031800007960E948C0C10921C0510921D0510923F
:103190001E0510921F051092200510922105109215
:1031A0001A056AE175E086E195E00E945F092C96B8
:1031B0000FB6F894DEBF0FBECDBFDF91CF911F9148
:1031C0000F91FF90EF90DF90089581E080930105CB
:1031D0008093020527E035E0309304052093030532
:1031E000109206051092050524E531E03093FE04A7
:1031F0002093FD04109209051092080510920B050A
:1032000010920A0580930C0580930D0581EC809344
:1032100007050E94570FFC0121818091010590E074
:10322000820F911D0897C4F5A281B381109729F4EC
:103230008DEF94E0938382830EC018968D919C91BC
:103240001997009711F0DC01F8CF8DEF94E01996F3
:103250009C938E93189780818093FF048181809343
:103260000005908180910205890F808380E0909114
:103270000105891788F4A0910305B0910405A80FF2
:10328000B11D9C91A181B0E0AE5EBE4F9C93918137
:103290009F5F91838F5FEBCF0895FC01248135817F
:1032A000FB014481558124173507A0F0FC01808182
:1032B0009181009779F0FB01608171816115710541
:1032C00049F0241B350B820F931F0E941C2221E022
:1032D000892B09F020E0822F0895009769F0FC0106
:1032E00001900020E9F73197AF01481B590BBC0151
:1032F00086E195E00C94F00180E090E00895EF9273
:10330000FF920F931F93CF93DF93EC017B018A0110
:103310001B821A8288EE93E0A0E0B0E08C839D834C
:10332000AE83BF8382E491E0998388838DE190E04E
:103330000E940F209A8F898F009779F02DE1F70175
:10334000DC0101900D922A95E1F74CE050E0B801C4
:10335000CE010C960E943A22188EDF91CF911F91D8
:103360000F91FF90EF9008954F925F926F927F922E
:10337000AF92BF92CF92DF92EF92FF920F931F9383
:10338000CF93DF9300D000D0CDB7DEB78C01498357
:103390005A836B837C835901C12CD12C7601412C3B
:1033A00082E0582E612C712C49815A816B817C817D
:1033B0009E012F5F3F4FC8010E940013882351F1E7
:1033C000D301C201F801058404C0880F991FAA1F08
:1033D000BB1F0A94D2F7C80ED91EEA1EFB1E4981F4
:1033E0005A816B817C818789803129F088EF9FEF3A
:1033F000AFEFBFE004C088EF9FEFA0E0B0E0481758
:1034000059076A077B0780F2F501C082D182E28208
:10341000F38281E00F900F900F900F90DF91CF918A
:103420001F910F91FF90EF90DF90CF90BF90AF90E2
:103430007F906F905F904F900895CF93DF93EC0152
:1034400080E2689FF0011124EE54FD4F6A8B809159
:103450000E0190910F01A0911001B09111018E8782
:103460009F87A88BB98B4489558960E070E0BA01C9
:1034700055274427828D938DA0E0B0E0482B592B2F
:103480006A2B7B2B4F8B588F698F7A8F838588713E
:1034900051F4848D958DA68DB78D8B8B9C8BAD8BC8
:1034A000BE8B81E00EC0803111F080E015C09E011E
:1034B0002D5E3F4F8B8D9C8D0E94B4198823A9F3FC
:1034C00084E08D8381E08C831E821F82188619869A
:1034D0001A861B861C861D86DF91CF910895CF9397
:1034E000DF93CCEDD5E02697CE010E948C0C85E0D1
:1034F000C232D807C1F7DF91CF910895CF93DF9300
:10350000CDB7DEB7CE57D1090FB6F894DEBF0FBEE8
:10351000CDBF789484B5826084BD84B5816084BD5C
:1035200085B5826085BD85B5816085BD80916E0061
:10353000816080936E001092810080918100826092
:1035400080938100809181008160809381008091CF
:1035500080008160809380008091910082608093E0
:103560009100809191008160809391008091900002
:103570008160809390008091C10084608093C1003D
:103580008091C10082608093C1008091C100816000
:103590008093C1008091C30081608093C3008091BB
:1035A000C00082608093C0008091C20081608093DF
:1035B000C20080917A00846080937A0080917A00C2
:1035C000826080937A0080917A00816080937A0093
:1035D00080917A00806880937A001092AE021092F7
:1035E0008C0210928B028091D70081608093D7006B
:1035F00080EA8093D80089B5806189BD89B58260F1
:1036000089BD09B400FEFDCF61E070E080E090E08C
:103610000E94D9168091D8008F7C80618093D80059
:103620008091E000807F8093E0008091E1008E7EB9
:103630008093E1008DE08093E200559A209A68EE35
:1036400071E0CE0187589F4F0E94FA0D8E010F5FE7
:103650001F4FEF968EAD9FADEF978830910508F024
:1036600042C062E08E5F0E949D16EE962FADEE97EF
:103670002E5F30E0F901E95DFD4F8491F901E85FCB
:10368000FD4FF490F901E751FE4FE490EE20A1F0D8
:1036900081110E943116EE2DF0E0EE0FFF1FE65B68
:1036A000FE4FA591B491EC91FE2231E020E009F4A7
:1036B00030E0832F922F02C080E090E04AE0B80112
:1036C00021E082270E946E1FF80101900020E9F797
:1036D0003197AF01401B510BB801CE0187589F4F66
:1036E0000E948C0BB6CF8091E304882321F08EEDED
:1036F00094E00E947F031092BF041092BD041092C8
:10370000BA041092B9048AE08093B8040E94DF0BD7
:103710008B0161E08091B8040E949D1661E0809168
:10372000B8040E946E16FFB6F89480918D02811144
:1037300027C0EAEFF1E08491E9E1F2E09491E82F0B
:10374000F0E0EE0FFF1FE353FE4FA591B491EC9113
:10375000E92321F461E081E10E946E1661E081E1DC
:103760000E949D168CB580618CBD8CB580648CBD2B
:1037700061E08FE00E949D1661E080E10E949D164D
:1037800080918D028F5F80938D02FFBE82E58093D2
:10379000B2041092B3048091B2049091B3040E94D9
:1037A000DE042AE0F22E8FEF0E949F04FA94F110BB
:1037B000FACF84EB94E00E94E10420E030E0A9011C
:1037C00060E084EB94E00E94F704F82E8093BE043E
:1037D00081E0F81649F00E94DF0B601B710B613D20
:1037E000774058F381E056C02AEA31E040E050E0EB
:1037F00068E084EB94E00E94F70482FF03C0F0923B
:10380000BF0410C094E0F92E0E94A6048093BE0469
:10381000FA94F110F9CF8A3A11F082E03BC082E0CD
:103820008093BF048091BF04823021F0C12CD12C41
:10383000760105C0C12CD12CE12C80E4F82E20E0CB
:1038400030E0A90167E384EB94E00E94F704A7014C
:10385000960169E284EB94E00E94F7048093BE0431
:10386000882349F00E94DF0B601B710B613D77409C
:1038700030F388E00FC08091BF04823001F520E072
:1038800030E0A9016AE384EB94E00E94F704882306
:1038900041F086E08093B90484EB94E00E949404A4
:1038A00062C10E94A604807C803C19F483E080936E
:1038B000BF040E94A6040E94A6040E94A60484EBF2
:1038C00094E00E94940480E58093B2041092B304C3
:1038D00081E00E94D514882341F08EED94E00E948F
:1038E0008114882309F43FC107C080E00E94D514E9
:1038F000882309F438C1F1CFBE0167587F4FCE014C
:103900008D589F4F0E94E00D44E050E06DEC71E057
:10391000CE018D589F4F0E948C0B882309F430C133
:10392000E5968EAC9FACE59719A218A284E891E0C9
:103930009F8F8E8F1BA21C821B829A8389831E827B
:103940008E01025E1F4FC8010E9481145401CE01F6
:1039500001967C0118012C016FE270E0C5010E9404
:103960001122009709F441C0F50120812F3221F482
:10397000FFEFAF1ABF0AF0CF8A198D3008F08CE044
:10398000C82ED12CA601B501CE01885A9F4F0E94A6
:103990003A22E8E5F0E0EC0FFD1FEC0DFD1D108272
:1039A000C7010E947F03F7018581882351F01EAE75
:1039B0001DAE84E891E09CAF8BAF21961FAE21979E
:1039C0001CC0AE01485A5F4FB101C7010E949D1350
:1039D000882369F3AC0CBD1CC1010E947F03922DAA
:1039E000832D1701E92EF82EB7CF35016818790815
:1039F000B101CE01CB960E94F107860C971CF40111
:103A00008081811109C0BE01655C7F4FC2010E94A7
:103A1000F10742ED51E03AC019A218A284E891E002
:103A20009F8F8E8F1BA221968FAD219781111CC075
:103A30006C961FAE1EAE6C9788EE93E0A0E0B0E0EF
:103A4000A0968CAF9DAFAEAFBFAFA09782E491E0E0
:103A50006A969FAF8EAF6A97E3961FAE1EAEE3974E
:103A6000A5961FAEA59718C0A401BE01655C7F4F47
:103A7000C8010E949D138823D9F2CE01CB960E94E3
:103A80007F03B801C2010E94F107A401B201CE0177
:103A9000885A9F4F0E947F19CE018D589F4F0E94D8
:103AA0008C0CE396EEADFFADE397309709F45BC065
:103AB0008581882309F457C064EF71E080E090E0CD
:103AC0000E94D91668EE71E0C8010E94FA0DCE017D
:103AD000885A9F4F0E946F01892B11F1CE01885A9D
:103AE0009F4F0E942B098A3081F4B801C2010E94C5
:103AF000E00DC2010E941317C2010E948C0C68EEF7
:103B000071E0C8010E94750CE2CF8D3001F389830A
:103B10001A8241E050E0B201C8010E948C0BD7CF5D
:103B2000B801C2010E94E00DC2010E941317C20138
:103B30000E948C0CE3968EAD9FADE397009761F0E9
:103B40000E947F03E3968EAD9FADE3970E94A7206E
:103B5000E3961FAE1EAEE3978EED94E00E947F03C6
:103B6000C8010E948C0CCE0187589F4F0E948C0C7C
:103B700000E010E001151105E9F30E940000FACF02
:103B8000CE018D589F4F0E94510BCACEDF92EF920B
:103B9000FF920F931F93CF93DF93D82EF92EE42E2D
:103BA000062F10E0C8010196880F0E94D70C83E011
:103BB0000E94D70CCD2DDF2D0C0F1D1FC017D10774
:103BC00089F0E7FE03C0FE01849101C088810E9454
:103BD000D70CF82E80E00E94D70C8F2121968111FE
:103BE000EDCF01C081E0DF91CF911F910F91FF9048
:103BF000EF90DF9008951092DF051092DE0588EEB9
:103C000093E0A0E0B0E08093E0059093E105A093FD
:103C1000E205B093E30582E791E09093DD058093A0
:103C2000DC058FEF9FEF9093E9058093E80580E531
:103C30008093B2041092B3041092B9041092BA04A3
:103C40001092BD041092BF0482E090E0A0E0B0E0CA
:103C50008093C0049093C104A093C204B093C304A2
:103C60001092D7041092E1041092E00484E891E0ED
:103C70009093DF048093DE041092E3041092190500
:103C80001092180580E991E090931705809316052E
:103C900080913206811113C010922D0610922C06CD
:103CA00086E592E090932F0680932E068FE290E0B7
:103CB000909331068093300681E0809332068091A4
:103CC0000E05811105C00E94E51881E080930E0564
:103CD000E0910805F0910905309739F48CE296E0FF
:103CE00090930905809308050AC08081918100970F
:103CF00011F0FC01FACF8CE296E091838083209151
:103D00000A0530910B058091300690913106820FA3
:103D1000931F90930B0580930A056BEF71E082E28D
:103D200095E00E94FA0D61E072E088E295E00E9461
:103D3000FA0D66E072E08EE295E00E94FA0D6CE00A
:103D400072E084E395E00E94FA0D60E172E08AE39C
:103D500095E00E94FA0D63E272E080E495E00E9433
:103D6000FA0D6AE272E086E495E00E94FA0D64E1E1
:103D700072E08CE495E00E94FA0D69E172E082E560
:103D800095E00E94FA0D6FE172E088E595E00E94EF
:103D9000FA0D66E272E08EE595E00E94FA0D6FE2A0
:103DA00072E084E695E00E94FA0D68E372E08AE62C
:103DB00095E00E94FA0D6FE372E080E795E00E94C3
:103DC000FA0D64E472E086E795E00E94FA0D68E47B
:103DD00072E08CE795E00E94FA0D6FE472E082E8F1
:103DE00095E00E94FA0D63E572E088E895E00E9494
:103DF000FA0D67E572E08EE895E00E94FA0D61E643
:103E000072E084E995E00E94FA0D64E672E08AE9C6
:103E100095E00E94FA0D67E672E080EA95E00E9464
:103E2000FA0D6AE672E086EA95E00E94FA0D6DE608
:103E300072E08CEA95E00E94FA0D60E772E082EB96
:103E400095E00E94FA0D63E772E088EB95E00E942E
:103E5000FA0D66E772E08EEB95E00E94FA0D69E7D5
:103E600072E084EC95E00E94FA0D6CE772E08AEC57
:103E700095E00E94FA0D60E872E080ED95E00E9406
:103E8000FA0D64E872E086ED95E00C94FA0D1F934C
:103E9000FC0199278827BC01E89411911032E9F3BD
:103EA000193010F01E30C8F31B3251F01D3249F4A6
:103EB000689406C00E94791F610F711D811D911DBC
:103EC000119110531A30B0F33EF49095809570958F
:103ED00061957F4F8F4F9F4F1F910895BB274A30A9
:103EE00031F4992322F4BDE2909581959F4F0C9473
:103EF0008F1F592F482F372F262F660F771F881FA8
:103F0000991F660F771F881F991F620F731F841FE9
:103F1000951F660F771F881F991F0895BB27FB0108
:103F20005527AA27880F991FAA1FA41710F0A41BB2
:103F300083955051B9F7A05DAA3308F0A95DA1930C
:103F4000009779F7B111B1931192CB010C94A81F8E
:103F5000DC01FC01672F71917723E1F7329704C0F0
:103F60007C916D9370836291AE17BF07C8F308957B
:103F70000E94FA1FA59F900DB49F900DA49F800DE5
:103F8000911D112408952F923F924F925F926F924C
:103F90007F928F929F92AF92BF92CF92DF92EF92D9
:103FA000FF920F931F93CF93DF93CDB7DEB7CA1B5A
:103FB000DB0B0FB6F894DEBF0FBECDBF09942A8885
:103FC000398848885F846E847D848C849B84AA842D
:103FD000B984C884DF80EE80FD800C811B81AA81BA
:103FE000B981CE0FD11D0FB6F894DEBF0FBECDBF85
:103FF000ED010895A29FB001B39FC001A39F700D72
:10400000811D1124911DB29F700D811D1124911DE0
:104010000895EE0FFF1F0590F491E02D09940F9382
:104020001F93CF93DF938230910510F482E090E0EC
:10403000E0913C06F0913D0620E030E0A0E0B0E0E9
:10404000309719F140815181028113814817590736
:10405000C8F08417950769F4109731F012960C9305
:10406000129713961C9327C000933C0610933D06AD
:1040700022C02115310519F04217530718F49A018F
:10408000BD01EF01DF01F801DBCF21153105F9F0AA
:10409000281B390B2430310580F48A819B816115FE
:1040A000710521F0FB019383828304C090933D0648
:1040B00080933C06FE01329644C0FE01E20FF31FDE
:1040C0008193919322503109398328833AC02091FA
:1040D0003A0630913B06232B41F420911B0130918D
:1040E0001C0130933B0620933A0620911901309130
:1040F0001A012115310541F42DB73EB740911D013C
:1041000050911E01241B350BE0913A06F0913B06BD
:10411000E217F307A0F42E1B3F0B2817390778F09E
:10412000AC014E5F5F4F2417350748F04E0F5F1FFD
:1041300050933B0640933A068193919302C0E0E08E
:10414000F0E0CF01DF91CF911F910F910895CF93B0
:10415000DF93009709F481C0FC0132971382128229
:10416000A0913C06B0913D06109781F420813181E9
:10417000820F931F20913A0630913B06281739078A
:1041800051F5F0933B06E0933A0667C0ED0120E05D
:1041900030E0CE17DF0740F44A815B819E01411574
:1041A0005105F1F0EA01F5CFD383C28340815181FB
:1041B000840F951FC817D90759F488819981840FF6
:1041C000951F0296918380838A819B81938382834A
:1041D0002115310529F4F0933D06E0933C063DC0DE
:1041E000E901FB83EA8349915991C40FD51FEC176C
:1041F000FD0761F480819181840F951F0296E9018A
:1042000099838883828193819B838A83E0E0F0E0B5
:1042100012968D919C911397009719F0FD01DC0186
:10422000F7CF8D919C9111979D012E5F3F4F820F8B
:10423000931F20913A0630913B062817390769F4FD
:10424000309729F410923D0610923C0602C013826A
:104250001282B0933B06A0933A06DF91CF91089566
:10426000A0E0B0E0E6E3F1E20C94C71FEC01009798
:1042700021F4CB010E940F20B4C0FC01E60FF71F10
:104280009C0122503109E217F30708F4A8C0D901B4
:104290000D911C91119706171707B0F00530110505
:1042A00008F49BC0C80104978617970708F495C0C7
:1042B00002501109061B170B019311936D937C9308
:1042C000CF010E94A72089C05B01A01AB10A4C014E
:1042D000800E911EA0913C06B0913D06612C712C80
:1042E000E12CF12C109709F446C08D919C91119707
:1042F000A815B905B1F56C0142E0C40ED11CCA1471
:10430000DB0478F14C018A189B08640142E0C40E7A
:10431000D11C1296BC9012971396AC91B5E0CB16B7
:10432000D10440F0B282A38391828082D9016D933F
:104330007C9309C00E5F1F4F800F911FF90191837D
:104340008083EB2DFA2FE114F10431F0D70113969D
:10435000FC93EE93129741C0F0933D06E0933C0628
:104360003CC06816790608F43C017D0112960D9058
:10437000BC91A02DB7CF80913A0690913B0688164C
:104380009906E1F466167706C8F4809119019091B8
:104390001A01009741F48DB79EB740911D015091CD
:1043A0001E01841B950BE817F907C8F4F0933B0630
:1043B000E0933A06F901718360830FC0CB010E943C
:1043C0000F207C01009759F0A801BE010E9408222D
:1043D000CE010E94A720C70104C0CE0102C080E028
:1043E00090E0CDB7DEB7EEE00C94E31F81E090E003
:1043F000F8940C946322FB01DC0104C08D910190C0
:10440000801921F441505040C8F7881B990B08953A
:10441000FB01DC0102C001900D9241505040D8F7E1
:104420000895FC018191861721F08823D9F79927F7
:1044300008953197CF010895FB01DC018D91019022
:1044400080190110D9F3990B0895FB01DC0101904B
:104450000D920020E1F70895FB01DC01415050402E
:1044600030F08D910190801919F40020B9F7881B64
:10447000990B0895FB01DC014150504048F0019038
:104480000D920020C9F701C01D9241505040E0F745
:104490000895FB0151915523A9F0BF01DC014D9115
:1044A00045174111E1F759F4CD010190002049F081
:1044B0004D9140154111C9F3FB014111EFCF81E04E
:1044C00090E00197089511E0C4E4D1E004C0FE013A
:1044D0000E9409202196C534D107C9F7F894FFCF6F
:1044E000FFFFFFFF00E1000000000000F401FFFFFC
:1044F000FFFF00C1808100000000003E068000B088
:1045000080818283DAD9D8D7D3D6C1D4D2B1D1B3FE
:10451000D5B2C2C3C4C5C6C7C8C9CACBCCCD0000BA
:1045200000009001D5071C02E0026F012B0935093C
:1045300000000000A6015F021F02CD010000000084
:10454000630B230D1C02D60C630B630B630B000083
:1045500000004D0D410F6E0D630D730DB10D8D0DEE
:1045600000000000CF0D230D1C02D60C000000003F
:10457000F509F0011C02D60C00000000630B230DAE
:104580001C02D60C424C4B003130300075323538AD
:104590003800373500753235393300353000753223
:1045A000353932003235007532353931002E7478A4
:1045B00074002F002000535452494E470053545268
:1045C000494E474C4E000D0A0044454641554C5457
:1045D0005F44454C41590052454D00454E544552AB
:1045E000004354524C00534849465400414C540037
:1045F000475549004C4546540052494748540050DD
:1046000041474555500050414745444F574E0043A0
:104610004150534C4F434B0044454C455445004892
:104620004F4D450045534300494E534552540054A5
:10463000414200454E44004241434B5350414345A3
:10464000004631004632004633004634004635000D
:1046500046360046370046380046390046313000BD
:08466000463131004631320001
:00000001FF
